{
	"FundMe.sol": {
		"FundMe": {
			"abi": [
				{
					"inputs": [],
					"stateMutability": "nonpayable",
					"type": "constructor"
				},
				{
					"inputs": [],
					"name": "MIN_USD",
					"outputs": [
						{
							"internalType": "uint256",
							"name": "",
							"type": "uint256"
						}
					],
					"stateMutability": "view",
					"type": "function"
				},
				{
					"inputs": [
						{
							"internalType": "address",
							"name": "funder",
							"type": "address"
						}
					],
					"name": "addressToAmountFunded",
					"outputs": [
						{
							"internalType": "uint256",
							"name": "amountFunded",
							"type": "uint256"
						}
					],
					"stateMutability": "view",
					"type": "function"
				},
				{
					"inputs": [],
					"name": "fund",
					"outputs": [],
					"stateMutability": "payable",
					"type": "function"
				},
				{
					"inputs": [
						{
							"internalType": "uint256",
							"name": "",
							"type": "uint256"
						}
					],
					"name": "funders",
					"outputs": [
						{
							"internalType": "address",
							"name": "",
							"type": "address"
						}
					],
					"stateMutability": "view",
					"type": "function"
				},
				{
					"inputs": [],
					"name": "i_owner",
					"outputs": [
						{
							"internalType": "address",
							"name": "",
							"type": "address"
						}
					],
					"stateMutability": "view",
					"type": "function"
				},
				{
					"inputs": [],
					"name": "withdraw",
					"outputs": [],
					"stateMutability": "nonpayable",
					"type": "function"
				}
			],
			"devdoc": {
				"kind": "dev",
				"methods": {},
				"version": 1
			},
			"evm": {
				"assembly": "    /* \"FundMe.sol\":231:1629  contract FundMe{... */\n  mstore(0x40, 0xa0)\n    /* \"FundMe.sol\":317:321  5e18 */\n  0x4563918244f40000\n    /* \"FundMe.sol\":294:321  uint256 public MIN_USD=5e18 */\n  0x00\n  sstore\n    /* \"FundMe.sol\":486:537  constructor(){... */\n  callvalue\n  dup1\n  iszero\n  tag_1\n  jumpi\n  0x00\n  dup1\n  revert\ntag_1:\n  pop\n    /* \"FundMe.sol\":518:528  msg.sender */\n  caller\n    /* \"FundMe.sol\":510:528  i_owner=msg.sender */\n  0xffffffffffffffffffffffffffffffffffffffff\n  and\n  0x80\n  dup2\n  0xffffffffffffffffffffffffffffffffffffffff\n  and\n  dup2\n  mstore\n  pop\n  pop\n    /* \"FundMe.sol\":231:1629  contract FundMe{... */\n  mload(0x80)\n  codecopy(0x00, dataOffset(sub_0), dataSize(sub_0))\n  0x00\n  assignImmutable(\"0x35bb2e240092263378f77ea1e9c278099a33b604c4c4e26d13ea227e8bb74470\")\n  return(0x00, dataSize(sub_0))\nstop\n\nsub_0: assembly {\n        /* \"FundMe.sol\":231:1629  contract FundMe{... */\n      mstore(0x40, 0x80)\n      jumpi(tag_1, lt(calldatasize, 0x04))\n      shr(0xe0, calldataload(0x00))\n      dup1\n      0x213dbea2\n      eq\n      tag_2\n      jumpi\n      dup1\n      0x3ccfd60b\n      eq\n      tag_3\n      jumpi\n      dup1\n      0x3e47d6f3\n      eq\n      tag_4\n      jumpi\n      dup1\n      0xb60d4288\n      eq\n      tag_5\n      jumpi\n      dup1\n      0xdba6335f\n      eq\n      tag_6\n      jumpi\n      dup1\n      0xdc0d3dff\n      eq\n      tag_7\n      jumpi\n    tag_1:\n      0x00\n      dup1\n      revert\n        /* \"FundMe.sol\":294:321  uint256 public MIN_USD=5e18 */\n    tag_2:\n      callvalue\n      dup1\n      iszero\n      tag_8\n      jumpi\n      0x00\n      dup1\n      revert\n    tag_8:\n      pop\n      tag_9\n      tag_10\n      jump\t// in\n    tag_9:\n      mload(0x40)\n      tag_11\n      swap2\n      swap1\n      tag_12\n      jump\t// in\n    tag_11:\n      mload(0x40)\n      dup1\n      swap2\n      sub\n      swap1\n      return\n        /* \"FundMe.sol\":825:1503  function withdraw() public onlyOwner{... */\n    tag_3:\n      callvalue\n      dup1\n      iszero\n      tag_13\n      jumpi\n      0x00\n      dup1\n      revert\n    tag_13:\n      pop\n      tag_14\n      tag_15\n      jump\t// in\n    tag_14:\n      stop\n        /* \"FundMe.sol\":361:436  mapping(address funder=> uint256 amountFunded) public addressToAmountFunded */\n    tag_4:\n      callvalue\n      dup1\n      iszero\n      tag_16\n      jumpi\n      0x00\n      dup1\n      revert\n    tag_16:\n      pop\n      tag_17\n      0x04\n      dup1\n      calldatasize\n      sub\n      dup2\n      add\n      swap1\n      tag_18\n      swap2\n      swap1\n      tag_19\n      jump\t// in\n    tag_18:\n      tag_20\n      jump\t// in\n    tag_17:\n      mload(0x40)\n      tag_21\n      swap2\n      swap1\n      tag_12\n      jump\t// in\n    tag_21:\n      mload(0x40)\n      dup1\n      swap2\n      sub\n      swap1\n      return\n        /* \"FundMe.sol\":545:817  function fund() public payable {... */\n    tag_5:\n      tag_22\n      tag_23\n      jump\t// in\n    tag_22:\n      stop\n        /* \"FundMe.sol\":444:476  address public immutable i_owner */\n    tag_6:\n      callvalue\n      dup1\n      iszero\n      tag_24\n      jumpi\n      0x00\n      dup1\n      revert\n    tag_24:\n      pop\n      tag_25\n      tag_26\n      jump\t// in\n    tag_25:\n      mload(0x40)\n      tag_27\n      swap2\n      swap1\n      tag_28\n      jump\t// in\n    tag_27:\n      mload(0x40)\n      dup1\n      swap2\n      sub\n      swap1\n      return\n        /* \"FundMe.sol\":329:353  address[] public funders */\n    tag_7:\n      callvalue\n      dup1\n      iszero\n      tag_29\n      jumpi\n      0x00\n      dup1\n      revert\n    tag_29:\n      pop\n      tag_30\n      0x04\n      dup1\n      calldatasize\n      sub\n      dup2\n      add\n      swap1\n      tag_31\n      swap2\n      swap1\n      tag_32\n      jump\t// in\n    tag_31:\n      tag_33\n      jump\t// in\n    tag_30:\n      mload(0x40)\n      tag_34\n      swap2\n      swap1\n      tag_28\n      jump\t// in\n    tag_34:\n      mload(0x40)\n      dup1\n      swap2\n      sub\n      swap1\n      return\n        /* \"FundMe.sol\":294:321  uint256 public MIN_USD=5e18 */\n    tag_10:\n      sload(0x00)\n      dup2\n      jump\t// out\n        /* \"FundMe.sol\":825:1503  function withdraw() public onlyOwner{... */\n    tag_15:\n        /* \"FundMe.sol\":1562:1569  i_owner */\n      immutable(\"0x35bb2e240092263378f77ea1e9c278099a33b604c4c4e26d13ea227e8bb74470\")\n        /* \"FundMe.sol\":1550:1569  msg.sender==i_owner */\n      0xffffffffffffffffffffffffffffffffffffffff\n      and\n        /* \"FundMe.sol\":1550:1560  msg.sender */\n      caller\n        /* \"FundMe.sol\":1550:1569  msg.sender==i_owner */\n      0xffffffffffffffffffffffffffffffffffffffff\n      and\n      eq\n        /* \"FundMe.sol\":1542:1606  require(msg.sender==i_owner,\"only owner can call this function\") */\n      tag_36\n      jumpi\n      mload(0x40)\n      0x08c379a000000000000000000000000000000000000000000000000000000000\n      dup2\n      mstore\n      0x04\n      add\n      tag_37\n      swap1\n      tag_38\n      jump\t// in\n    tag_37:\n      mload(0x40)\n      dup1\n      swap2\n      sub\n      swap1\n      revert\n    tag_36:\n        /* \"FundMe.sol\":877:896  uint256 funderIndex */\n      0x00\n        /* \"FundMe.sol\":872:1059  for (uint256 funderIndex = 0; funderIndex < funders.length; funderIndex++) {... */\n    tag_40:\n        /* \"FundMe.sol\":916:923  funders */\n      0x01\n        /* \"FundMe.sol\":916:930  funders.length */\n      dup1\n      sload\n      swap1\n      pop\n        /* \"FundMe.sol\":902:913  funderIndex */\n      dup2\n        /* \"FundMe.sol\":902:930  funderIndex < funders.length */\n      lt\n        /* \"FundMe.sol\":872:1059  for (uint256 funderIndex = 0; funderIndex < funders.length; funderIndex++) {... */\n      iszero\n      tag_41\n      jumpi\n        /* \"FundMe.sol\":962:976  address funder */\n      0x00\n        /* \"FundMe.sol\":979:986  funders */\n      0x01\n        /* \"FundMe.sol\":987:998  funderIndex */\n      dup3\n        /* \"FundMe.sol\":979:999  funders[funderIndex] */\n      dup2\n      sload\n      dup2\n      lt\n      tag_43\n      jumpi\n      tag_44\n      tag_45\n      jump\t// in\n    tag_44:\n    tag_43:\n      swap1\n      0x00\n      mstore\n      keccak256(0x00, 0x20)\n      add\n      0x00\n      swap1\n      sload\n      swap1\n      0x0100\n      exp\n      swap1\n      div\n      0xffffffffffffffffffffffffffffffffffffffff\n      and\n        /* \"FundMe.sol\":962:999  address funder = funders[funderIndex] */\n      swap1\n      pop\n        /* \"FundMe.sol\":1046:1047  0 */\n      0x00\n        /* \"FundMe.sol\":1014:1035  addressToAmountFunded */\n      0x02\n        /* \"FundMe.sol\":1014:1043  addressToAmountFunded[funder] */\n      0x00\n        /* \"FundMe.sol\":1036:1042  funder */\n      dup4\n        /* \"FundMe.sol\":1014:1043  addressToAmountFunded[funder] */\n      0xffffffffffffffffffffffffffffffffffffffff\n      and\n      0xffffffffffffffffffffffffffffffffffffffff\n      and\n      dup2\n      mstore\n      0x20\n      add\n      swap1\n      dup2\n      mstore\n      0x20\n      add\n      0x00\n      keccak256\n        /* \"FundMe.sol\":1014:1047  addressToAmountFunded[funder] = 0 */\n      dup2\n      swap1\n      sstore\n      pop\n        /* \"FundMe.sol\":947:1059  {... */\n      pop\n        /* \"FundMe.sol\":932:945  funderIndex++ */\n      dup1\n      dup1\n      tag_47\n      swap1\n      tag_48\n      jump\t// in\n    tag_47:\n      swap2\n      pop\n      pop\n        /* \"FundMe.sol\":872:1059  for (uint256 funderIndex = 0; funderIndex < funders.length; funderIndex++) {... */\n      jump(tag_40)\n    tag_41:\n      pop\n        /* \"FundMe.sol\":1093:1094  0 */\n      0x00\n        /* \"FundMe.sol\":1079:1095  new address[](0) */\n      0xffffffffffffffff\n      dup2\n      gt\n      iszero\n      tag_49\n      jumpi\n      tag_50\n      tag_51\n      jump\t// in\n    tag_50:\n    tag_49:\n      mload(0x40)\n      swap1\n      dup1\n      dup3\n      mstore\n      dup1\n      0x20\n      mul\n      0x20\n      add\n      dup3\n      add\n      0x40\n      mstore\n      dup1\n      iszero\n      tag_52\n      jumpi\n      dup2\n      0x20\n      add\n      0x20\n      dup3\n      mul\n      dup1\n      calldatasize\n      dup4\n      calldatacopy\n      dup1\n      dup3\n      add\n      swap2\n      pop\n      pop\n      swap1\n      pop\n    tag_52:\n      pop\n        /* \"FundMe.sol\":1069:1076  funders */\n      0x01\n        /* \"FundMe.sol\":1069:1095  funders = new address[](0) */\n      swap1\n      dup1\n      mload\n      swap1\n      0x20\n      add\n      swap1\n      tag_53\n      swap3\n      swap2\n      swap1\n      tag_54\n      jump\t// in\n    tag_53:\n      pop\n        /* \"FundMe.sol\":1366:1382  bool callSuccess */\n      0x00\n        /* \"FundMe.sol\":1395:1405  msg.sender */\n      caller\n        /* \"FundMe.sol\":1387:1411  payable(msg.sender).call */\n      0xffffffffffffffffffffffffffffffffffffffff\n      and\n        /* \"FundMe.sol\":1419:1440  address(this).balance */\n      selfbalance\n        /* \"FundMe.sol\":1387:1445  payable(msg.sender).call{value: address(this).balance}(\"\") */\n      mload(0x40)\n      tag_55\n      swap1\n      tag_56\n      jump\t// in\n    tag_55:\n      0x00\n      mload(0x40)\n      dup1\n      dup4\n      sub\n      dup2\n      dup6\n      dup8\n      gas\n      call\n      swap3\n      pop\n      pop\n      pop\n      returndatasize\n      dup1\n      0x00\n      dup2\n      eq\n      tag_59\n      jumpi\n      mload(0x40)\n      swap2\n      pop\n      and(add(returndatasize, 0x3f), not(0x1f))\n      dup3\n      add\n      0x40\n      mstore\n      returndatasize\n      dup3\n      mstore\n      returndatasize\n      0x00\n      0x20\n      dup5\n      add\n      returndatacopy\n      jump(tag_58)\n    tag_59:\n      0x60\n      swap2\n      pop\n    tag_58:\n      pop\n        /* \"FundMe.sol\":1365:1445  (bool callSuccess,) = payable(msg.sender).call{value: address(this).balance}(\"\") */\n      pop\n      swap1\n      pop\n        /* \"FundMe.sol\":1464:1475  callSuccess */\n      dup1\n        /* \"FundMe.sol\":1456:1491  require(callSuccess, \"Call failed\") */\n      tag_60\n      jumpi\n      mload(0x40)\n      0x08c379a000000000000000000000000000000000000000000000000000000000\n      dup2\n      mstore\n      0x04\n      add\n      tag_61\n      swap1\n      tag_62\n      jump\t// in\n    tag_61:\n      mload(0x40)\n      dup1\n      swap2\n      sub\n      swap1\n      revert\n    tag_60:\n        /* \"FundMe.sol\":861:1503  {... */\n      pop\n        /* \"FundMe.sol\":825:1503  function withdraw() public onlyOwner{... */\n      jump\t// out\n        /* \"FundMe.sol\":361:436  mapping(address funder=> uint256 amountFunded) public addressToAmountFunded */\n    tag_20:\n      mstore(0x20, 0x02)\n      dup1\n      0x00\n      mstore\n      keccak256(0x00, 0x40)\n      0x00\n      swap2\n      pop\n      swap1\n      pop\n      sload\n      dup2\n      jump\t// out\n        /* \"FundMe.sol\":545:817  function fund() public payable {... */\n    tag_23:\n        /* \"FundMe.sol\":628:635  MIN_USD */\n      sload(0x00)\n        /* \"FundMe.sol\":595:624  msg.value.getConversionRate() */\n      tag_64\n        /* \"FundMe.sol\":595:604  msg.value */\n      callvalue\n        /* \"FundMe.sol\":595:622  msg.value.getConversionRate */\n      tag_65\n        /* \"FundMe.sol\":595:624  msg.value.getConversionRate() */\n      jump\t// in\n    tag_64:\n        /* \"FundMe.sol\":595:635  msg.value.getConversionRate() >= MIN_USD */\n      lt\n      iszero\n        /* \"FundMe.sol\":587:661  require(msg.value.getConversionRate() >= MIN_USD,\"Didn't send enoght ETH\") */\n      tag_66\n      jumpi\n      mload(0x40)\n      0x08c379a000000000000000000000000000000000000000000000000000000000\n      dup2\n      mstore\n      0x04\n      add\n      tag_67\n      swap1\n      tag_68\n      jump\t// in\n    tag_67:\n      mload(0x40)\n      dup1\n      swap2\n      sub\n      swap1\n      revert\n    tag_66:\n        /* \"FundMe.sol\":695:702  funders */\n      0x01\n        /* \"FundMe.sol\":708:718  msg.sender */\n      caller\n        /* \"FundMe.sol\":695:719  funders.push(msg.sender) */\n      swap1\n      dup1\n      0x01\n      dup2\n      sload\n      add\n      dup1\n      dup3\n      sstore\n      dup1\n      swap2\n      pop\n      pop\n      0x01\n      swap1\n      sub\n      swap1\n      0x00\n      mstore\n      keccak256(0x00, 0x20)\n      add\n      0x00\n      swap1\n      swap2\n      swap1\n      swap2\n      swap1\n      swap2\n      0x0100\n      exp\n      dup2\n      sload\n      dup2\n      0xffffffffffffffffffffffffffffffffffffffff\n      mul\n      not\n      and\n      swap1\n      dup4\n      0xffffffffffffffffffffffffffffffffffffffff\n      and\n      mul\n      or\n      swap1\n      sstore\n      pop\n        /* \"FundMe.sol\":800:809  msg.value */\n      callvalue\n        /* \"FundMe.sol\":764:785  addressToAmountFunded */\n      0x02\n        /* \"FundMe.sol\":764:797  addressToAmountFunded[msg.sender] */\n      0x00\n        /* \"FundMe.sol\":786:796  msg.sender */\n      caller\n        /* \"FundMe.sol\":764:797  addressToAmountFunded[msg.sender] */\n      0xffffffffffffffffffffffffffffffffffffffff\n      and\n      0xffffffffffffffffffffffffffffffffffffffff\n      and\n      dup2\n      mstore\n      0x20\n      add\n      swap1\n      dup2\n      mstore\n      0x20\n      add\n      0x00\n      keccak256\n      sload\n        /* \"FundMe.sol\":764:809  addressToAmountFunded[msg.sender] + msg.value */\n      tag_70\n      swap2\n      swap1\n      tag_71\n      jump\t// in\n    tag_70:\n        /* \"FundMe.sol\":730:751  addressToAmountFunded */\n      0x02\n        /* \"FundMe.sol\":730:763  addressToAmountFunded[msg.sender] */\n      0x00\n        /* \"FundMe.sol\":752:762  msg.sender */\n      caller\n        /* \"FundMe.sol\":730:763  addressToAmountFunded[msg.sender] */\n      0xffffffffffffffffffffffffffffffffffffffff\n      and\n      0xffffffffffffffffffffffffffffffffffffffff\n      and\n      dup2\n      mstore\n      0x20\n      add\n      swap1\n      dup2\n      mstore\n      0x20\n      add\n      0x00\n      keccak256\n        /* \"FundMe.sol\":730:809  addressToAmountFunded[msg.sender]=addressToAmountFunded[msg.sender] + msg.value */\n      dup2\n      swap1\n      sstore\n      pop\n        /* \"FundMe.sol\":545:817  function fund() public payable {... */\n      jump\t// out\n        /* \"FundMe.sol\":444:476  address public immutable i_owner */\n    tag_26:\n      immutable(\"0x35bb2e240092263378f77ea1e9c278099a33b604c4c4e26d13ea227e8bb74470\")\n      dup2\n      jump\t// out\n        /* \"FundMe.sol\":329:353  address[] public funders */\n    tag_33:\n      0x01\n      dup2\n      dup2\n      sload\n      dup2\n      lt\n      tag_72\n      jumpi\n      0x00\n      dup1\n      revert\n    tag_72:\n      swap1\n      0x00\n      mstore\n      keccak256(0x00, 0x20)\n      add\n      0x00\n      swap2\n      pop\n      sload\n      swap1\n      0x0100\n      exp\n      swap1\n      div\n      0xffffffffffffffffffffffffffffffffffffffff\n      and\n      dup2\n      jump\t// out\n        /* \"PriceConverter.sol\":751:1067  function getConversionRate(uint256 ethAmount) internal view returns (uint256) {... */\n    tag_65:\n        /* \"PriceConverter.sol\":820:827  uint256 */\n      0x00\n        /* \"PriceConverter.sol\":840:856  uint256 ethPrice */\n      dup1\n        /* \"PriceConverter.sol\":859:869  getPrice() */\n      tag_75\n        /* \"PriceConverter.sol\":859:867  getPrice */\n      tag_76\n        /* \"PriceConverter.sol\":859:869  getPrice() */\n      jump\t// in\n    tag_75:\n        /* \"PriceConverter.sol\":840:869  uint256 ethPrice = getPrice() */\n      swap1\n      pop\n        /* \"PriceConverter.sol\":880:902  uint256 ethAmountInUsd */\n      0x00\n        /* \"PriceConverter.sol\":930:949  1000000000000000000 */\n      0x0de0b6b3a7640000\n        /* \"PriceConverter.sol\":917:926  ethAmount */\n      dup5\n        /* \"PriceConverter.sol\":906:914  ethPrice */\n      dup4\n        /* \"PriceConverter.sol\":906:926  ethPrice * ethAmount */\n      tag_77\n      swap2\n      swap1\n      tag_78\n      jump\t// in\n    tag_77:\n        /* \"PriceConverter.sol\":905:949  (ethPrice * ethAmount) / 1000000000000000000 */\n      tag_79\n      swap2\n      swap1\n      tag_80\n      jump\t// in\n    tag_79:\n        /* \"PriceConverter.sol\":880:949  uint256 ethAmountInUsd = (ethPrice * ethAmount) / 1000000000000000000 */\n      swap1\n      pop\n        /* \"PriceConverter.sol\":1045:1059  ethAmountInUsd */\n      dup1\n        /* \"PriceConverter.sol\":1038:1059  return ethAmountInUsd */\n      swap3\n      pop\n      pop\n      pop\n        /* \"PriceConverter.sol\":751:1067  function getConversionRate(uint256 ethAmount) internal view returns (uint256) {... */\n      swap2\n      swap1\n      pop\n      jump\t// out\n        /* \"PriceConverter.sol\":275:724  function getPrice() internal view returns (uint256) {... */\n    tag_76:\n        /* \"PriceConverter.sol\":318:325  uint256 */\n      0x00\n        /* \"PriceConverter.sol\":445:476  AggregatorV3Interface priceFeed */\n      dup1\n        /* \"PriceConverter.sol\":515:557  0x694AA1769357215DE4FAC081bf1f309aDC325306 */\n      0x694aa1769357215de4fac081bf1f309adc325306\n        /* \"PriceConverter.sol\":445:568  AggregatorV3Interface priceFeed = AggregatorV3Interface(... */\n      swap1\n      pop\n        /* \"PriceConverter.sol\":582:595  int256 answer */\n      0x00\n        /* \"PriceConverter.sol\":605:614  priceFeed */\n      dup2\n        /* \"PriceConverter.sol\":605:630  priceFeed.latestRoundData */\n      0xffffffffffffffffffffffffffffffffffffffff\n      and\n      0xfeaf968c\n        /* \"PriceConverter.sol\":605:632  priceFeed.latestRoundData() */\n      mload(0x40)\n      dup2\n      0xffffffff\n      and\n      0xe0\n      shl\n      dup2\n      mstore\n      0x04\n      add\n      0xa0\n      mload(0x40)\n      dup1\n      dup4\n      sub\n      dup2\n      dup7\n      gas\n      staticcall\n      iszero\n      dup1\n      iszero\n      tag_83\n      jumpi\n      returndatasize\n      0x00\n      dup1\n      returndatacopy\n      revert(0x00, returndatasize)\n    tag_83:\n      pop\n      pop\n      pop\n      pop\n      mload(0x40)\n      returndatasize\n      not(0x1f)\n      0x1f\n      dup3\n      add\n      and\n      dup3\n      add\n      dup1\n      0x40\n      mstore\n      pop\n      dup2\n      add\n      swap1\n      tag_84\n      swap2\n      swap1\n      tag_85\n      jump\t// in\n    tag_84:\n        /* \"PriceConverter.sol\":579:632  (, int256 answer, , , ) = priceFeed.latestRoundData() */\n      pop\n      pop\n      pop\n      swap2\n      pop\n      pop\n        /* \"PriceConverter.sol\":704:715  10000000000 */\n      0x02540be400\n        /* \"PriceConverter.sol\":695:701  answer */\n      dup2\n        /* \"PriceConverter.sol\":695:715  answer * 10000000000 */\n      tag_86\n      swap2\n      swap1\n      tag_87\n      jump\t// in\n    tag_86:\n        /* \"PriceConverter.sol\":680:716  return uint256(answer * 10000000000) */\n      swap3\n      pop\n      pop\n      pop\n        /* \"PriceConverter.sol\":275:724  function getPrice() internal view returns (uint256) {... */\n      swap1\n      jump\t// out\n    tag_54:\n      dup3\n      dup1\n      sload\n      dup3\n      dup3\n      sstore\n      swap1\n      0x00\n      mstore\n      keccak256(0x00, 0x20)\n      swap1\n      dup2\n      add\n      swap3\n      dup3\n      iszero\n      tag_88\n      jumpi\n      swap2\n      0x20\n      mul\n      dup3\n      add\n    tag_89:\n      dup3\n      dup2\n      gt\n      iszero\n      tag_90\n      jumpi\n      dup3\n      mload\n      dup3\n      exp(0x0100, 0x00)\n      dup2\n      sload\n      dup2\n      0xffffffffffffffffffffffffffffffffffffffff\n      mul\n      not\n      and\n      swap1\n      dup4\n      0xffffffffffffffffffffffffffffffffffffffff\n      and\n      mul\n      or\n      swap1\n      sstore\n      pop\n      swap2\n      0x20\n      add\n      swap2\n      swap1\n      0x01\n      add\n      swap1\n      jump(tag_89)\n    tag_90:\n    tag_88:\n      pop\n      swap1\n      pop\n      tag_91\n      swap2\n      swap1\n      tag_92\n      jump\t// in\n    tag_91:\n      pop\n      swap1\n      jump\t// out\n    tag_92:\n    tag_93:\n      dup1\n      dup3\n      gt\n      iszero\n      tag_94\n      jumpi\n      0x00\n      dup2\n      0x00\n      swap1\n      sstore\n      pop\n      0x01\n      add\n      jump(tag_93)\n    tag_94:\n      pop\n      swap1\n      jump\t// out\n        /* \"#utility.yul\":7:84   */\n    tag_95:\n        /* \"#utility.yul\":44:51   */\n      0x00\n        /* \"#utility.yul\":73:78   */\n      dup2\n        /* \"#utility.yul\":62:78   */\n      swap1\n      pop\n        /* \"#utility.yul\":7:84   */\n      swap2\n      swap1\n      pop\n      jump\t// out\n        /* \"#utility.yul\":90:208   */\n    tag_96:\n        /* \"#utility.yul\":177:201   */\n      tag_129\n        /* \"#utility.yul\":195:200   */\n      dup2\n        /* \"#utility.yul\":177:201   */\n      tag_95\n      jump\t// in\n    tag_129:\n        /* \"#utility.yul\":172:175   */\n      dup3\n        /* \"#utility.yul\":165:202   */\n      mstore\n        /* \"#utility.yul\":90:208   */\n      pop\n      pop\n      jump\t// out\n        /* \"#utility.yul\":214:436   */\n    tag_12:\n        /* \"#utility.yul\":307:311   */\n      0x00\n        /* \"#utility.yul\":345:347   */\n      0x20\n        /* \"#utility.yul\":334:343   */\n      dup3\n        /* \"#utility.yul\":330:348   */\n      add\n        /* \"#utility.yul\":322:348   */\n      swap1\n      pop\n        /* \"#utility.yul\":358:429   */\n      tag_131\n        /* \"#utility.yul\":426:427   */\n      0x00\n        /* \"#utility.yul\":415:424   */\n      dup4\n        /* \"#utility.yul\":411:428   */\n      add\n        /* \"#utility.yul\":402:408   */\n      dup5\n        /* \"#utility.yul\":358:429   */\n      tag_96\n      jump\t// in\n    tag_131:\n        /* \"#utility.yul\":214:436   */\n      swap3\n      swap2\n      pop\n      pop\n      jump\t// out\n        /* \"#utility.yul\":523:640   */\n    tag_98:\n        /* \"#utility.yul\":632:633   */\n      0x00\n        /* \"#utility.yul\":629:630   */\n      dup1\n        /* \"#utility.yul\":622:634   */\n      revert\n        /* \"#utility.yul\":769:895   */\n    tag_100:\n        /* \"#utility.yul\":806:813   */\n      0x00\n        /* \"#utility.yul\":846:888   */\n      0xffffffffffffffffffffffffffffffffffffffff\n        /* \"#utility.yul\":839:844   */\n      dup3\n        /* \"#utility.yul\":835:889   */\n      and\n        /* \"#utility.yul\":824:889   */\n      swap1\n      pop\n        /* \"#utility.yul\":769:895   */\n      swap2\n      swap1\n      pop\n      jump\t// out\n        /* \"#utility.yul\":901:997   */\n    tag_101:\n        /* \"#utility.yul\":938:945   */\n      0x00\n        /* \"#utility.yul\":967:991   */\n      tag_137\n        /* \"#utility.yul\":985:990   */\n      dup3\n        /* \"#utility.yul\":967:991   */\n      tag_100\n      jump\t// in\n    tag_137:\n        /* \"#utility.yul\":956:991   */\n      swap1\n      pop\n        /* \"#utility.yul\":901:997   */\n      swap2\n      swap1\n      pop\n      jump\t// out\n        /* \"#utility.yul\":1003:1125   */\n    tag_102:\n        /* \"#utility.yul\":1076:1100   */\n      tag_139\n        /* \"#utility.yul\":1094:1099   */\n      dup2\n        /* \"#utility.yul\":1076:1100   */\n      tag_101\n      jump\t// in\n    tag_139:\n        /* \"#utility.yul\":1069:1074   */\n      dup2\n        /* \"#utility.yul\":1066:1101   */\n      eq\n        /* \"#utility.yul\":1056:1119   */\n      tag_140\n      jumpi\n        /* \"#utility.yul\":1115:1116   */\n      0x00\n        /* \"#utility.yul\":1112:1113   */\n      dup1\n        /* \"#utility.yul\":1105:1117   */\n      revert\n        /* \"#utility.yul\":1056:1119   */\n    tag_140:\n        /* \"#utility.yul\":1003:1125   */\n      pop\n      jump\t// out\n        /* \"#utility.yul\":1131:1270   */\n    tag_103:\n        /* \"#utility.yul\":1177:1182   */\n      0x00\n        /* \"#utility.yul\":1215:1221   */\n      dup2\n        /* \"#utility.yul\":1202:1222   */\n      calldataload\n        /* \"#utility.yul\":1193:1222   */\n      swap1\n      pop\n        /* \"#utility.yul\":1231:1264   */\n      tag_142\n        /* \"#utility.yul\":1258:1263   */\n      dup2\n        /* \"#utility.yul\":1231:1264   */\n      tag_102\n      jump\t// in\n    tag_142:\n        /* \"#utility.yul\":1131:1270   */\n      swap3\n      swap2\n      pop\n      pop\n      jump\t// out\n        /* \"#utility.yul\":1276:1605   */\n    tag_19:\n        /* \"#utility.yul\":1335:1341   */\n      0x00\n        /* \"#utility.yul\":1384:1386   */\n      0x20\n        /* \"#utility.yul\":1372:1381   */\n      dup3\n        /* \"#utility.yul\":1363:1370   */\n      dup5\n        /* \"#utility.yul\":1359:1382   */\n      sub\n        /* \"#utility.yul\":1355:1387   */\n      slt\n        /* \"#utility.yul\":1352:1471   */\n      iszero\n      tag_144\n      jumpi\n        /* \"#utility.yul\":1390:1469   */\n      tag_145\n      tag_98\n      jump\t// in\n    tag_145:\n        /* \"#utility.yul\":1352:1471   */\n    tag_144:\n        /* \"#utility.yul\":1510:1511   */\n      0x00\n        /* \"#utility.yul\":1535:1588   */\n      tag_146\n        /* \"#utility.yul\":1580:1587   */\n      dup5\n        /* \"#utility.yul\":1571:1577   */\n      dup3\n        /* \"#utility.yul\":1560:1569   */\n      dup6\n        /* \"#utility.yul\":1556:1578   */\n      add\n        /* \"#utility.yul\":1535:1588   */\n      tag_103\n      jump\t// in\n    tag_146:\n        /* \"#utility.yul\":1525:1588   */\n      swap2\n      pop\n        /* \"#utility.yul\":1481:1598   */\n      pop\n        /* \"#utility.yul\":1276:1605   */\n      swap3\n      swap2\n      pop\n      pop\n      jump\t// out\n        /* \"#utility.yul\":1611:1729   */\n    tag_104:\n        /* \"#utility.yul\":1698:1722   */\n      tag_148\n        /* \"#utility.yul\":1716:1721   */\n      dup2\n        /* \"#utility.yul\":1698:1722   */\n      tag_101\n      jump\t// in\n    tag_148:\n        /* \"#utility.yul\":1693:1696   */\n      dup3\n        /* \"#utility.yul\":1686:1723   */\n      mstore\n        /* \"#utility.yul\":1611:1729   */\n      pop\n      pop\n      jump\t// out\n        /* \"#utility.yul\":1735:1957   */\n    tag_28:\n        /* \"#utility.yul\":1828:1832   */\n      0x00\n        /* \"#utility.yul\":1866:1868   */\n      0x20\n        /* \"#utility.yul\":1855:1864   */\n      dup3\n        /* \"#utility.yul\":1851:1869   */\n      add\n        /* \"#utility.yul\":1843:1869   */\n      swap1\n      pop\n        /* \"#utility.yul\":1879:1950   */\n      tag_150\n        /* \"#utility.yul\":1947:1948   */\n      0x00\n        /* \"#utility.yul\":1936:1945   */\n      dup4\n        /* \"#utility.yul\":1932:1949   */\n      add\n        /* \"#utility.yul\":1923:1929   */\n      dup5\n        /* \"#utility.yul\":1879:1950   */\n      tag_104\n      jump\t// in\n    tag_150:\n        /* \"#utility.yul\":1735:1957   */\n      swap3\n      swap2\n      pop\n      pop\n      jump\t// out\n        /* \"#utility.yul\":1963:2085   */\n    tag_105:\n        /* \"#utility.yul\":2036:2060   */\n      tag_152\n        /* \"#utility.yul\":2054:2059   */\n      dup2\n        /* \"#utility.yul\":2036:2060   */\n      tag_95\n      jump\t// in\n    tag_152:\n        /* \"#utility.yul\":2029:2034   */\n      dup2\n        /* \"#utility.yul\":2026:2061   */\n      eq\n        /* \"#utility.yul\":2016:2079   */\n      tag_153\n      jumpi\n        /* \"#utility.yul\":2075:2076   */\n      0x00\n        /* \"#utility.yul\":2072:2073   */\n      dup1\n        /* \"#utility.yul\":2065:2077   */\n      revert\n        /* \"#utility.yul\":2016:2079   */\n    tag_153:\n        /* \"#utility.yul\":1963:2085   */\n      pop\n      jump\t// out\n        /* \"#utility.yul\":2091:2230   */\n    tag_106:\n        /* \"#utility.yul\":2137:2142   */\n      0x00\n        /* \"#utility.yul\":2175:2181   */\n      dup2\n        /* \"#utility.yul\":2162:2182   */\n      calldataload\n        /* \"#utility.yul\":2153:2182   */\n      swap1\n      pop\n        /* \"#utility.yul\":2191:2224   */\n      tag_155\n        /* \"#utility.yul\":2218:2223   */\n      dup2\n        /* \"#utility.yul\":2191:2224   */\n      tag_105\n      jump\t// in\n    tag_155:\n        /* \"#utility.yul\":2091:2230   */\n      swap3\n      swap2\n      pop\n      pop\n      jump\t// out\n        /* \"#utility.yul\":2236:2565   */\n    tag_32:\n        /* \"#utility.yul\":2295:2301   */\n      0x00\n        /* \"#utility.yul\":2344:2346   */\n      0x20\n        /* \"#utility.yul\":2332:2341   */\n      dup3\n        /* \"#utility.yul\":2323:2330   */\n      dup5\n        /* \"#utility.yul\":2319:2342   */\n      sub\n        /* \"#utility.yul\":2315:2347   */\n      slt\n        /* \"#utility.yul\":2312:2431   */\n      iszero\n      tag_157\n      jumpi\n        /* \"#utility.yul\":2350:2429   */\n      tag_158\n      tag_98\n      jump\t// in\n    tag_158:\n        /* \"#utility.yul\":2312:2431   */\n    tag_157:\n        /* \"#utility.yul\":2470:2471   */\n      0x00\n        /* \"#utility.yul\":2495:2548   */\n      tag_159\n        /* \"#utility.yul\":2540:2547   */\n      dup5\n        /* \"#utility.yul\":2531:2537   */\n      dup3\n        /* \"#utility.yul\":2520:2529   */\n      dup6\n        /* \"#utility.yul\":2516:2538   */\n      add\n        /* \"#utility.yul\":2495:2548   */\n      tag_106\n      jump\t// in\n    tag_159:\n        /* \"#utility.yul\":2485:2548   */\n      swap2\n      pop\n        /* \"#utility.yul\":2441:2558   */\n      pop\n        /* \"#utility.yul\":2236:2565   */\n      swap3\n      swap2\n      pop\n      pop\n      jump\t// out\n        /* \"#utility.yul\":2571:2740   */\n    tag_107:\n        /* \"#utility.yul\":2655:2666   */\n      0x00\n        /* \"#utility.yul\":2689:2695   */\n      dup3\n        /* \"#utility.yul\":2684:2687   */\n      dup3\n        /* \"#utility.yul\":2677:2696   */\n      mstore\n        /* \"#utility.yul\":2729:2733   */\n      0x20\n        /* \"#utility.yul\":2724:2727   */\n      dup3\n        /* \"#utility.yul\":2720:2734   */\n      add\n        /* \"#utility.yul\":2705:2734   */\n      swap1\n      pop\n        /* \"#utility.yul\":2571:2740   */\n      swap3\n      swap2\n      pop\n      pop\n      jump\t// out\n        /* \"#utility.yul\":2746:2966   */\n    tag_108:\n        /* \"#utility.yul\":2886:2920   */\n      0x6f6e6c79206f776e65722063616e2063616c6c20746869732066756e6374696f\n        /* \"#utility.yul\":2882:2883   */\n      0x00\n        /* \"#utility.yul\":2874:2880   */\n      dup3\n        /* \"#utility.yul\":2870:2884   */\n      add\n        /* \"#utility.yul\":2863:2921   */\n      mstore\n        /* \"#utility.yul\":2955:2958   */\n      0x6e00000000000000000000000000000000000000000000000000000000000000\n        /* \"#utility.yul\":2950:2952   */\n      0x20\n        /* \"#utility.yul\":2942:2948   */\n      dup3\n        /* \"#utility.yul\":2938:2953   */\n      add\n        /* \"#utility.yul\":2931:2959   */\n      mstore\n        /* \"#utility.yul\":2746:2966   */\n      pop\n      jump\t// out\n        /* \"#utility.yul\":2972:3338   */\n    tag_109:\n        /* \"#utility.yul\":3114:3117   */\n      0x00\n        /* \"#utility.yul\":3135:3202   */\n      tag_163\n        /* \"#utility.yul\":3199:3201   */\n      0x21\n        /* \"#utility.yul\":3194:3197   */\n      dup4\n        /* \"#utility.yul\":3135:3202   */\n      tag_107\n      jump\t// in\n    tag_163:\n        /* \"#utility.yul\":3128:3202   */\n      swap2\n      pop\n        /* \"#utility.yul\":3211:3304   */\n      tag_164\n        /* \"#utility.yul\":3300:3303   */\n      dup3\n        /* \"#utility.yul\":3211:3304   */\n      tag_108\n      jump\t// in\n    tag_164:\n        /* \"#utility.yul\":3329:3331   */\n      0x40\n        /* \"#utility.yul\":3324:3327   */\n      dup3\n        /* \"#utility.yul\":3320:3332   */\n      add\n        /* \"#utility.yul\":3313:3332   */\n      swap1\n      pop\n        /* \"#utility.yul\":2972:3338   */\n      swap2\n      swap1\n      pop\n      jump\t// out\n        /* \"#utility.yul\":3344:3763   */\n    tag_38:\n        /* \"#utility.yul\":3510:3514   */\n      0x00\n        /* \"#utility.yul\":3548:3550   */\n      0x20\n        /* \"#utility.yul\":3537:3546   */\n      dup3\n        /* \"#utility.yul\":3533:3551   */\n      add\n        /* \"#utility.yul\":3525:3551   */\n      swap1\n      pop\n        /* \"#utility.yul\":3597:3606   */\n      dup2\n        /* \"#utility.yul\":3591:3595   */\n      dup2\n        /* \"#utility.yul\":3587:3607   */\n      sub\n        /* \"#utility.yul\":3583:3584   */\n      0x00\n        /* \"#utility.yul\":3572:3581   */\n      dup4\n        /* \"#utility.yul\":3568:3585   */\n      add\n        /* \"#utility.yul\":3561:3608   */\n      mstore\n        /* \"#utility.yul\":3625:3756   */\n      tag_166\n        /* \"#utility.yul\":3751:3755   */\n      dup2\n        /* \"#utility.yul\":3625:3756   */\n      tag_109\n      jump\t// in\n    tag_166:\n        /* \"#utility.yul\":3617:3756   */\n      swap1\n      pop\n        /* \"#utility.yul\":3344:3763   */\n      swap2\n      swap1\n      pop\n      jump\t// out\n        /* \"#utility.yul\":3769:3949   */\n    tag_45:\n        /* \"#utility.yul\":3817:3894   */\n      0x4e487b7100000000000000000000000000000000000000000000000000000000\n        /* \"#utility.yul\":3814:3815   */\n      0x00\n        /* \"#utility.yul\":3807:3895   */\n      mstore\n        /* \"#utility.yul\":3914:3918   */\n      0x32\n        /* \"#utility.yul\":3911:3912   */\n      0x04\n        /* \"#utility.yul\":3904:3919   */\n      mstore\n        /* \"#utility.yul\":3938:3942   */\n      0x24\n        /* \"#utility.yul\":3935:3936   */\n      0x00\n        /* \"#utility.yul\":3928:3943   */\n      revert\n        /* \"#utility.yul\":3955:4135   */\n    tag_110:\n        /* \"#utility.yul\":4003:4080   */\n      0x4e487b7100000000000000000000000000000000000000000000000000000000\n        /* \"#utility.yul\":4000:4001   */\n      0x00\n        /* \"#utility.yul\":3993:4081   */\n      mstore\n        /* \"#utility.yul\":4100:4104   */\n      0x11\n        /* \"#utility.yul\":4097:4098   */\n      0x04\n        /* \"#utility.yul\":4090:4105   */\n      mstore\n        /* \"#utility.yul\":4124:4128   */\n      0x24\n        /* \"#utility.yul\":4121:4122   */\n      0x00\n        /* \"#utility.yul\":4114:4129   */\n      revert\n        /* \"#utility.yul\":4141:4374   */\n    tag_48:\n        /* \"#utility.yul\":4180:4183   */\n      0x00\n        /* \"#utility.yul\":4203:4227   */\n      tag_170\n        /* \"#utility.yul\":4221:4226   */\n      dup3\n        /* \"#utility.yul\":4203:4227   */\n      tag_95\n      jump\t// in\n    tag_170:\n        /* \"#utility.yul\":4194:4227   */\n      swap2\n      pop\n        /* \"#utility.yul\":4249:4315   */\n      0xffffffffffffffffffffffffffffffffffffffffffffffffffffffffffffffff\n        /* \"#utility.yul\":4242:4247   */\n      dup3\n        /* \"#utility.yul\":4239:4316   */\n      sub\n        /* \"#utility.yul\":4236:4339   */\n      tag_171\n      jumpi\n        /* \"#utility.yul\":4319:4337   */\n      tag_172\n      tag_110\n      jump\t// in\n    tag_172:\n        /* \"#utility.yul\":4236:4339   */\n    tag_171:\n        /* \"#utility.yul\":4366:4367   */\n      0x01\n        /* \"#utility.yul\":4359:4364   */\n      dup3\n        /* \"#utility.yul\":4355:4368   */\n      add\n        /* \"#utility.yul\":4348:4368   */\n      swap1\n      pop\n        /* \"#utility.yul\":4141:4374   */\n      swap2\n      swap1\n      pop\n      jump\t// out\n        /* \"#utility.yul\":4380:4560   */\n    tag_51:\n        /* \"#utility.yul\":4428:4505   */\n      0x4e487b7100000000000000000000000000000000000000000000000000000000\n        /* \"#utility.yul\":4425:4426   */\n      0x00\n        /* \"#utility.yul\":4418:4506   */\n      mstore\n        /* \"#utility.yul\":4525:4529   */\n      0x41\n        /* \"#utility.yul\":4522:4523   */\n      0x04\n        /* \"#utility.yul\":4515:4530   */\n      mstore\n        /* \"#utility.yul\":4549:4553   */\n      0x24\n        /* \"#utility.yul\":4546:4547   */\n      0x00\n        /* \"#utility.yul\":4539:4554   */\n      revert\n        /* \"#utility.yul\":4566:4713   */\n    tag_111:\n        /* \"#utility.yul\":4667:4678   */\n      0x00\n        /* \"#utility.yul\":4704:4707   */\n      dup2\n        /* \"#utility.yul\":4689:4707   */\n      swap1\n      pop\n        /* \"#utility.yul\":4566:4713   */\n      swap3\n      swap2\n      pop\n      pop\n      jump\t// out\n        /* \"#utility.yul\":4719:4833   */\n    tag_112:\n      pop\n      jump\t// out\n        /* \"#utility.yul\":4839:5237   */\n    tag_113:\n        /* \"#utility.yul\":4998:5001   */\n      0x00\n        /* \"#utility.yul\":5019:5102   */\n      tag_177\n        /* \"#utility.yul\":5100:5101   */\n      0x00\n        /* \"#utility.yul\":5095:5098   */\n      dup4\n        /* \"#utility.yul\":5019:5102   */\n      tag_111\n      jump\t// in\n    tag_177:\n        /* \"#utility.yul\":5012:5102   */\n      swap2\n      pop\n        /* \"#utility.yul\":5111:5204   */\n      tag_178\n        /* \"#utility.yul\":5200:5203   */\n      dup3\n        /* \"#utility.yul\":5111:5204   */\n      tag_112\n      jump\t// in\n    tag_178:\n        /* \"#utility.yul\":5229:5230   */\n      0x00\n        /* \"#utility.yul\":5224:5227   */\n      dup3\n        /* \"#utility.yul\":5220:5231   */\n      add\n        /* \"#utility.yul\":5213:5231   */\n      swap1\n      pop\n        /* \"#utility.yul\":4839:5237   */\n      swap2\n      swap1\n      pop\n      jump\t// out\n        /* \"#utility.yul\":5243:5622   */\n    tag_56:\n        /* \"#utility.yul\":5427:5430   */\n      0x00\n        /* \"#utility.yul\":5449:5596   */\n      tag_180\n        /* \"#utility.yul\":5592:5595   */\n      dup3\n        /* \"#utility.yul\":5449:5596   */\n      tag_113\n      jump\t// in\n    tag_180:\n        /* \"#utility.yul\":5442:5596   */\n      swap2\n      pop\n        /* \"#utility.yul\":5613:5616   */\n      dup2\n        /* \"#utility.yul\":5606:5616   */\n      swap1\n      pop\n        /* \"#utility.yul\":5243:5622   */\n      swap2\n      swap1\n      pop\n      jump\t// out\n        /* \"#utility.yul\":5628:5789   */\n    tag_114:\n        /* \"#utility.yul\":5768:5781   */\n      0x43616c6c206661696c6564000000000000000000000000000000000000000000\n        /* \"#utility.yul\":5764:5765   */\n      0x00\n        /* \"#utility.yul\":5756:5762   */\n      dup3\n        /* \"#utility.yul\":5752:5766   */\n      add\n        /* \"#utility.yul\":5745:5782   */\n      mstore\n        /* \"#utility.yul\":5628:5789   */\n      pop\n      jump\t// out\n        /* \"#utility.yul\":5795:6161   */\n    tag_115:\n        /* \"#utility.yul\":5937:5940   */\n      0x00\n        /* \"#utility.yul\":5958:6025   */\n      tag_183\n        /* \"#utility.yul\":6022:6024   */\n      0x0b\n        /* \"#utility.yul\":6017:6020   */\n      dup4\n        /* \"#utility.yul\":5958:6025   */\n      tag_107\n      jump\t// in\n    tag_183:\n        /* \"#utility.yul\":5951:6025   */\n      swap2\n      pop\n        /* \"#utility.yul\":6034:6127   */\n      tag_184\n        /* \"#utility.yul\":6123:6126   */\n      dup3\n        /* \"#utility.yul\":6034:6127   */\n      tag_114\n      jump\t// in\n    tag_184:\n        /* \"#utility.yul\":6152:6154   */\n      0x20\n        /* \"#utility.yul\":6147:6150   */\n      dup3\n        /* \"#utility.yul\":6143:6155   */\n      add\n        /* \"#utility.yul\":6136:6155   */\n      swap1\n      pop\n        /* \"#utility.yul\":5795:6161   */\n      swap2\n      swap1\n      pop\n      jump\t// out\n        /* \"#utility.yul\":6167:6586   */\n    tag_62:\n        /* \"#utility.yul\":6333:6337   */\n      0x00\n        /* \"#utility.yul\":6371:6373   */\n      0x20\n        /* \"#utility.yul\":6360:6369   */\n      dup3\n        /* \"#utility.yul\":6356:6374   */\n      add\n        /* \"#utility.yul\":6348:6374   */\n      swap1\n      pop\n        /* \"#utility.yul\":6420:6429   */\n      dup2\n        /* \"#utility.yul\":6414:6418   */\n      dup2\n        /* \"#utility.yul\":6410:6430   */\n      sub\n        /* \"#utility.yul\":6406:6407   */\n      0x00\n        /* \"#utility.yul\":6395:6404   */\n      dup4\n        /* \"#utility.yul\":6391:6408   */\n      add\n        /* \"#utility.yul\":6384:6431   */\n      mstore\n        /* \"#utility.yul\":6448:6579   */\n      tag_186\n        /* \"#utility.yul\":6574:6578   */\n      dup2\n        /* \"#utility.yul\":6448:6579   */\n      tag_115\n      jump\t// in\n    tag_186:\n        /* \"#utility.yul\":6440:6579   */\n      swap1\n      pop\n        /* \"#utility.yul\":6167:6586   */\n      swap2\n      swap1\n      pop\n      jump\t// out\n        /* \"#utility.yul\":6592:6764   */\n    tag_116:\n        /* \"#utility.yul\":6732:6756   */\n      0x4469646e27742073656e6420656e6f6768742045544800000000000000000000\n        /* \"#utility.yul\":6728:6729   */\n      0x00\n        /* \"#utility.yul\":6720:6726   */\n      dup3\n        /* \"#utility.yul\":6716:6730   */\n      add\n        /* \"#utility.yul\":6709:6757   */\n      mstore\n        /* \"#utility.yul\":6592:6764   */\n      pop\n      jump\t// out\n        /* \"#utility.yul\":6770:7136   */\n    tag_117:\n        /* \"#utility.yul\":6912:6915   */\n      0x00\n        /* \"#utility.yul\":6933:7000   */\n      tag_189\n        /* \"#utility.yul\":6997:6999   */\n      0x16\n        /* \"#utility.yul\":6992:6995   */\n      dup4\n        /* \"#utility.yul\":6933:7000   */\n      tag_107\n      jump\t// in\n    tag_189:\n        /* \"#utility.yul\":6926:7000   */\n      swap2\n      pop\n        /* \"#utility.yul\":7009:7102   */\n      tag_190\n        /* \"#utility.yul\":7098:7101   */\n      dup3\n        /* \"#utility.yul\":7009:7102   */\n      tag_116\n      jump\t// in\n    tag_190:\n        /* \"#utility.yul\":7127:7129   */\n      0x20\n        /* \"#utility.yul\":7122:7125   */\n      dup3\n        /* \"#utility.yul\":7118:7130   */\n      add\n        /* \"#utility.yul\":7111:7130   */\n      swap1\n      pop\n        /* \"#utility.yul\":6770:7136   */\n      swap2\n      swap1\n      pop\n      jump\t// out\n        /* \"#utility.yul\":7142:7561   */\n    tag_68:\n        /* \"#utility.yul\":7308:7312   */\n      0x00\n        /* \"#utility.yul\":7346:7348   */\n      0x20\n        /* \"#utility.yul\":7335:7344   */\n      dup3\n        /* \"#utility.yul\":7331:7349   */\n      add\n        /* \"#utility.yul\":7323:7349   */\n      swap1\n      pop\n        /* \"#utility.yul\":7395:7404   */\n      dup2\n        /* \"#utility.yul\":7389:7393   */\n      dup2\n        /* \"#utility.yul\":7385:7405   */\n      sub\n        /* \"#utility.yul\":7381:7382   */\n      0x00\n        /* \"#utility.yul\":7370:7379   */\n      dup4\n        /* \"#utility.yul\":7366:7383   */\n      add\n        /* \"#utility.yul\":7359:7406   */\n      mstore\n        /* \"#utility.yul\":7423:7554   */\n      tag_192\n        /* \"#utility.yul\":7549:7553   */\n      dup2\n        /* \"#utility.yul\":7423:7554   */\n      tag_117\n      jump\t// in\n    tag_192:\n        /* \"#utility.yul\":7415:7554   */\n      swap1\n      pop\n        /* \"#utility.yul\":7142:7561   */\n      swap2\n      swap1\n      pop\n      jump\t// out\n        /* \"#utility.yul\":7567:7758   */\n    tag_71:\n        /* \"#utility.yul\":7607:7610   */\n      0x00\n        /* \"#utility.yul\":7626:7646   */\n      tag_194\n        /* \"#utility.yul\":7644:7645   */\n      dup3\n        /* \"#utility.yul\":7626:7646   */\n      tag_95\n      jump\t// in\n    tag_194:\n        /* \"#utility.yul\":7621:7646   */\n      swap2\n      pop\n        /* \"#utility.yul\":7660:7680   */\n      tag_195\n        /* \"#utility.yul\":7678:7679   */\n      dup4\n        /* \"#utility.yul\":7660:7680   */\n      tag_95\n      jump\t// in\n    tag_195:\n        /* \"#utility.yul\":7655:7680   */\n      swap3\n      pop\n        /* \"#utility.yul\":7703:7704   */\n      dup3\n        /* \"#utility.yul\":7700:7701   */\n      dup3\n        /* \"#utility.yul\":7696:7705   */\n      add\n        /* \"#utility.yul\":7689:7705   */\n      swap1\n      pop\n        /* \"#utility.yul\":7724:7727   */\n      dup1\n        /* \"#utility.yul\":7721:7722   */\n      dup3\n        /* \"#utility.yul\":7718:7728   */\n      gt\n        /* \"#utility.yul\":7715:7751   */\n      iszero\n      tag_196\n      jumpi\n        /* \"#utility.yul\":7731:7749   */\n      tag_197\n      tag_110\n      jump\t// in\n    tag_197:\n        /* \"#utility.yul\":7715:7751   */\n    tag_196:\n        /* \"#utility.yul\":7567:7758   */\n      swap3\n      swap2\n      pop\n      pop\n      jump\t// out\n        /* \"#utility.yul\":7764:8174   */\n    tag_78:\n        /* \"#utility.yul\":7804:7811   */\n      0x00\n        /* \"#utility.yul\":7827:7847   */\n      tag_199\n        /* \"#utility.yul\":7845:7846   */\n      dup3\n        /* \"#utility.yul\":7827:7847   */\n      tag_95\n      jump\t// in\n    tag_199:\n        /* \"#utility.yul\":7822:7847   */\n      swap2\n      pop\n        /* \"#utility.yul\":7861:7881   */\n      tag_200\n        /* \"#utility.yul\":7879:7880   */\n      dup4\n        /* \"#utility.yul\":7861:7881   */\n      tag_95\n      jump\t// in\n    tag_200:\n        /* \"#utility.yul\":7856:7881   */\n      swap3\n      pop\n        /* \"#utility.yul\":7916:7917   */\n      dup3\n        /* \"#utility.yul\":7913:7914   */\n      dup3\n        /* \"#utility.yul\":7909:7918   */\n      mul\n        /* \"#utility.yul\":7938:7968   */\n      tag_201\n        /* \"#utility.yul\":7956:7967   */\n      dup2\n        /* \"#utility.yul\":7938:7968   */\n      tag_95\n      jump\t// in\n    tag_201:\n        /* \"#utility.yul\":7927:7968   */\n      swap2\n      pop\n        /* \"#utility.yul\":8117:8118   */\n      dup3\n        /* \"#utility.yul\":8108:8115   */\n      dup3\n        /* \"#utility.yul\":8104:8119   */\n      div\n        /* \"#utility.yul\":8101:8102   */\n      dup5\n        /* \"#utility.yul\":8098:8120   */\n      eq\n        /* \"#utility.yul\":8078:8079   */\n      dup4\n        /* \"#utility.yul\":8071:8080   */\n      iszero\n        /* \"#utility.yul\":8051:8134   */\n      or\n        /* \"#utility.yul\":8028:8167   */\n      tag_202\n      jumpi\n        /* \"#utility.yul\":8147:8165   */\n      tag_203\n      tag_110\n      jump\t// in\n    tag_203:\n        /* \"#utility.yul\":8028:8167   */\n    tag_202:\n        /* \"#utility.yul\":7812:8174   */\n      pop\n        /* \"#utility.yul\":7764:8174   */\n      swap3\n      swap2\n      pop\n      pop\n      jump\t// out\n        /* \"#utility.yul\":8180:8360   */\n    tag_118:\n        /* \"#utility.yul\":8228:8305   */\n      0x4e487b7100000000000000000000000000000000000000000000000000000000\n        /* \"#utility.yul\":8225:8226   */\n      0x00\n        /* \"#utility.yul\":8218:8306   */\n      mstore\n        /* \"#utility.yul\":8325:8329   */\n      0x12\n        /* \"#utility.yul\":8322:8323   */\n      0x04\n        /* \"#utility.yul\":8315:8330   */\n      mstore\n        /* \"#utility.yul\":8349:8353   */\n      0x24\n        /* \"#utility.yul\":8346:8347   */\n      0x00\n        /* \"#utility.yul\":8339:8354   */\n      revert\n        /* \"#utility.yul\":8366:8551   */\n    tag_80:\n        /* \"#utility.yul\":8406:8407   */\n      0x00\n        /* \"#utility.yul\":8423:8443   */\n      tag_206\n        /* \"#utility.yul\":8441:8442   */\n      dup3\n        /* \"#utility.yul\":8423:8443   */\n      tag_95\n      jump\t// in\n    tag_206:\n        /* \"#utility.yul\":8418:8443   */\n      swap2\n      pop\n        /* \"#utility.yul\":8457:8477   */\n      tag_207\n        /* \"#utility.yul\":8475:8476   */\n      dup4\n        /* \"#utility.yul\":8457:8477   */\n      tag_95\n      jump\t// in\n    tag_207:\n        /* \"#utility.yul\":8452:8477   */\n      swap3\n      pop\n        /* \"#utility.yul\":8496:8497   */\n      dup3\n        /* \"#utility.yul\":8486:8521   */\n      tag_208\n      jumpi\n        /* \"#utility.yul\":8501:8519   */\n      tag_209\n      tag_118\n      jump\t// in\n    tag_209:\n        /* \"#utility.yul\":8486:8521   */\n    tag_208:\n        /* \"#utility.yul\":8543:8544   */\n      dup3\n        /* \"#utility.yul\":8540:8541   */\n      dup3\n        /* \"#utility.yul\":8536:8545   */\n      div\n        /* \"#utility.yul\":8531:8545   */\n      swap1\n      pop\n        /* \"#utility.yul\":8366:8551   */\n      swap3\n      swap2\n      pop\n      pop\n      jump\t// out\n        /* \"#utility.yul\":8557:8662   */\n    tag_119:\n        /* \"#utility.yul\":8593:8600   */\n      0x00\n        /* \"#utility.yul\":8633:8655   */\n      0xffffffffffffffffffff\n        /* \"#utility.yul\":8626:8631   */\n      dup3\n        /* \"#utility.yul\":8622:8656   */\n      and\n        /* \"#utility.yul\":8611:8656   */\n      swap1\n      pop\n        /* \"#utility.yul\":8557:8662   */\n      swap2\n      swap1\n      pop\n      jump\t// out\n        /* \"#utility.yul\":8668:8788   */\n    tag_120:\n        /* \"#utility.yul\":8740:8763   */\n      tag_212\n        /* \"#utility.yul\":8757:8762   */\n      dup2\n        /* \"#utility.yul\":8740:8763   */\n      tag_119\n      jump\t// in\n    tag_212:\n        /* \"#utility.yul\":8733:8738   */\n      dup2\n        /* \"#utility.yul\":8730:8764   */\n      eq\n        /* \"#utility.yul\":8720:8782   */\n      tag_213\n      jumpi\n        /* \"#utility.yul\":8778:8779   */\n      0x00\n        /* \"#utility.yul\":8775:8776   */\n      dup1\n        /* \"#utility.yul\":8768:8780   */\n      revert\n        /* \"#utility.yul\":8720:8782   */\n    tag_213:\n        /* \"#utility.yul\":8668:8788   */\n      pop\n      jump\t// out\n        /* \"#utility.yul\":8794:8935   */\n    tag_121:\n        /* \"#utility.yul\":8850:8855   */\n      0x00\n        /* \"#utility.yul\":8881:8887   */\n      dup2\n        /* \"#utility.yul\":8875:8888   */\n      mload\n        /* \"#utility.yul\":8866:8888   */\n      swap1\n      pop\n        /* \"#utility.yul\":8897:8929   */\n      tag_215\n        /* \"#utility.yul\":8923:8928   */\n      dup2\n        /* \"#utility.yul\":8897:8929   */\n      tag_120\n      jump\t// in\n    tag_215:\n        /* \"#utility.yul\":8794:8935   */\n      swap3\n      swap2\n      pop\n      pop\n      jump\t// out\n        /* \"#utility.yul\":8941:9017   */\n    tag_122:\n        /* \"#utility.yul\":8977:8984   */\n      0x00\n        /* \"#utility.yul\":9006:9011   */\n      dup2\n        /* \"#utility.yul\":8995:9011   */\n      swap1\n      pop\n        /* \"#utility.yul\":8941:9017   */\n      swap2\n      swap1\n      pop\n      jump\t// out\n        /* \"#utility.yul\":9023:9143   */\n    tag_123:\n        /* \"#utility.yul\":9095:9118   */\n      tag_218\n        /* \"#utility.yul\":9112:9117   */\n      dup2\n        /* \"#utility.yul\":9095:9118   */\n      tag_122\n      jump\t// in\n    tag_218:\n        /* \"#utility.yul\":9088:9093   */\n      dup2\n        /* \"#utility.yul\":9085:9119   */\n      eq\n        /* \"#utility.yul\":9075:9137   */\n      tag_219\n      jumpi\n        /* \"#utility.yul\":9133:9134   */\n      0x00\n        /* \"#utility.yul\":9130:9131   */\n      dup1\n        /* \"#utility.yul\":9123:9135   */\n      revert\n        /* \"#utility.yul\":9075:9137   */\n    tag_219:\n        /* \"#utility.yul\":9023:9143   */\n      pop\n      jump\t// out\n        /* \"#utility.yul\":9149:9290   */\n    tag_124:\n        /* \"#utility.yul\":9205:9210   */\n      0x00\n        /* \"#utility.yul\":9236:9242   */\n      dup2\n        /* \"#utility.yul\":9230:9243   */\n      mload\n        /* \"#utility.yul\":9221:9243   */\n      swap1\n      pop\n        /* \"#utility.yul\":9252:9284   */\n      tag_221\n        /* \"#utility.yul\":9278:9283   */\n      dup2\n        /* \"#utility.yul\":9252:9284   */\n      tag_123\n      jump\t// in\n    tag_221:\n        /* \"#utility.yul\":9149:9290   */\n      swap3\n      swap2\n      pop\n      pop\n      jump\t// out\n        /* \"#utility.yul\":9296:9439   */\n    tag_125:\n        /* \"#utility.yul\":9353:9358   */\n      0x00\n        /* \"#utility.yul\":9384:9390   */\n      dup2\n        /* \"#utility.yul\":9378:9391   */\n      mload\n        /* \"#utility.yul\":9369:9391   */\n      swap1\n      pop\n        /* \"#utility.yul\":9400:9433   */\n      tag_223\n        /* \"#utility.yul\":9427:9432   */\n      dup2\n        /* \"#utility.yul\":9400:9433   */\n      tag_105\n      jump\t// in\n    tag_223:\n        /* \"#utility.yul\":9296:9439   */\n      swap3\n      swap2\n      pop\n      pop\n      jump\t// out\n        /* \"#utility.yul\":9445:10416   */\n    tag_85:\n        /* \"#utility.yul\":9548:9554   */\n      0x00\n        /* \"#utility.yul\":9556:9562   */\n      dup1\n        /* \"#utility.yul\":9564:9570   */\n      0x00\n        /* \"#utility.yul\":9572:9578   */\n      dup1\n        /* \"#utility.yul\":9580:9586   */\n      0x00\n        /* \"#utility.yul\":9629:9632   */\n      0xa0\n        /* \"#utility.yul\":9617:9626   */\n      dup7\n        /* \"#utility.yul\":9608:9615   */\n      dup9\n        /* \"#utility.yul\":9604:9627   */\n      sub\n        /* \"#utility.yul\":9600:9633   */\n      slt\n        /* \"#utility.yul\":9597:9717   */\n      iszero\n      tag_225\n      jumpi\n        /* \"#utility.yul\":9636:9715   */\n      tag_226\n      tag_98\n      jump\t// in\n    tag_226:\n        /* \"#utility.yul\":9597:9717   */\n    tag_225:\n        /* \"#utility.yul\":9756:9757   */\n      0x00\n        /* \"#utility.yul\":9781:9844   */\n      tag_227\n        /* \"#utility.yul\":9836:9843   */\n      dup9\n        /* \"#utility.yul\":9827:9833   */\n      dup3\n        /* \"#utility.yul\":9816:9825   */\n      dup10\n        /* \"#utility.yul\":9812:9834   */\n      add\n        /* \"#utility.yul\":9781:9844   */\n      tag_121\n      jump\t// in\n    tag_227:\n        /* \"#utility.yul\":9771:9844   */\n      swap6\n      pop\n        /* \"#utility.yul\":9727:9854   */\n      pop\n        /* \"#utility.yul\":9893:9895   */\n      0x20\n        /* \"#utility.yul\":9919:9982   */\n      tag_228\n        /* \"#utility.yul\":9974:9981   */\n      dup9\n        /* \"#utility.yul\":9965:9971   */\n      dup3\n        /* \"#utility.yul\":9954:9963   */\n      dup10\n        /* \"#utility.yul\":9950:9972   */\n      add\n        /* \"#utility.yul\":9919:9982   */\n      tag_124\n      jump\t// in\n    tag_228:\n        /* \"#utility.yul\":9909:9982   */\n      swap5\n      pop\n        /* \"#utility.yul\":9864:9992   */\n      pop\n        /* \"#utility.yul\":10031:10033   */\n      0x40\n        /* \"#utility.yul\":10057:10121   */\n      tag_229\n        /* \"#utility.yul\":10113:10120   */\n      dup9\n        /* \"#utility.yul\":10104:10110   */\n      dup3\n        /* \"#utility.yul\":10093:10102   */\n      dup10\n        /* \"#utility.yul\":10089:10111   */\n      add\n        /* \"#utility.yul\":10057:10121   */\n      tag_125\n      jump\t// in\n    tag_229:\n        /* \"#utility.yul\":10047:10121   */\n      swap4\n      pop\n        /* \"#utility.yul\":10002:10131   */\n      pop\n        /* \"#utility.yul\":10170:10172   */\n      0x60\n        /* \"#utility.yul\":10196:10260   */\n      tag_230\n        /* \"#utility.yul\":10252:10259   */\n      dup9\n        /* \"#utility.yul\":10243:10249   */\n      dup3\n        /* \"#utility.yul\":10232:10241   */\n      dup10\n        /* \"#utility.yul\":10228:10250   */\n      add\n        /* \"#utility.yul\":10196:10260   */\n      tag_125\n      jump\t// in\n    tag_230:\n        /* \"#utility.yul\":10186:10260   */\n      swap3\n      pop\n        /* \"#utility.yul\":10141:10270   */\n      pop\n        /* \"#utility.yul\":10309:10312   */\n      0x80\n        /* \"#utility.yul\":10336:10399   */\n      tag_231\n        /* \"#utility.yul\":10391:10398   */\n      dup9\n        /* \"#utility.yul\":10382:10388   */\n      dup3\n        /* \"#utility.yul\":10371:10380   */\n      dup10\n        /* \"#utility.yul\":10367:10389   */\n      add\n        /* \"#utility.yul\":10336:10399   */\n      tag_121\n      jump\t// in\n    tag_231:\n        /* \"#utility.yul\":10326:10399   */\n      swap2\n      pop\n        /* \"#utility.yul\":10280:10409   */\n      pop\n        /* \"#utility.yul\":9445:10416   */\n      swap3\n      swap6\n      pop\n      swap3\n      swap6\n      swap1\n      swap4\n      pop\n      jump\t// out\n        /* \"#utility.yul\":10422:10978   */\n    tag_87:\n        /* \"#utility.yul\":10461:10468   */\n      0x00\n        /* \"#utility.yul\":10484:10503   */\n      tag_233\n        /* \"#utility.yul\":10501:10502   */\n      dup3\n        /* \"#utility.yul\":10484:10503   */\n      tag_122\n      jump\t// in\n    tag_233:\n        /* \"#utility.yul\":10479:10503   */\n      swap2\n      pop\n        /* \"#utility.yul\":10517:10536   */\n      tag_234\n        /* \"#utility.yul\":10534:10535   */\n      dup4\n        /* \"#utility.yul\":10517:10536   */\n      tag_122\n      jump\t// in\n    tag_234:\n        /* \"#utility.yul\":10512:10536   */\n      swap3\n      pop\n        /* \"#utility.yul\":10571:10572   */\n      dup3\n        /* \"#utility.yul\":10568:10569   */\n      dup3\n        /* \"#utility.yul\":10564:10573   */\n      mul\n        /* \"#utility.yul\":10593:10622   */\n      tag_235\n        /* \"#utility.yul\":10610:10621   */\n      dup2\n        /* \"#utility.yul\":10593:10622   */\n      tag_122\n      jump\t// in\n    tag_235:\n        /* \"#utility.yul\":10582:10622   */\n      swap2\n      pop\n        /* \"#utility.yul\":10680:10746   */\n      0x8000000000000000000000000000000000000000000000000000000000000000\n        /* \"#utility.yul\":10677:10678   */\n      dup5\n        /* \"#utility.yul\":10674:10747   */\n      eq\n        /* \"#utility.yul\":10670:10671   */\n      0x00\n        /* \"#utility.yul\":10667:10668   */\n      dup5\n        /* \"#utility.yul\":10663:10672   */\n      slt\n        /* \"#utility.yul\":10659:10748   */\n      and\n        /* \"#utility.yul\":10656:10771   */\n      iszero\n      tag_236\n      jumpi\n        /* \"#utility.yul\":10751:10769   */\n      tag_237\n      tag_110\n      jump\t// in\n    tag_237:\n        /* \"#utility.yul\":10656:10771   */\n    tag_236:\n        /* \"#utility.yul\":10921:10922   */\n      dup3\n        /* \"#utility.yul\":10912:10919   */\n      dup3\n        /* \"#utility.yul\":10907:10923   */\n      sdiv\n        /* \"#utility.yul\":10904:10905   */\n      dup5\n        /* \"#utility.yul\":10901:10924   */\n      eq\n        /* \"#utility.yul\":10881:10882   */\n      dup4\n        /* \"#utility.yul\":10874:10883   */\n      iszero\n        /* \"#utility.yul\":10854:10938   */\n      or\n        /* \"#utility.yul\":10831:10971   */\n      tag_238\n      jumpi\n        /* \"#utility.yul\":10951:10969   */\n      tag_239\n      tag_110\n      jump\t// in\n    tag_239:\n        /* \"#utility.yul\":10831:10971   */\n    tag_238:\n        /* \"#utility.yul\":10469:10978   */\n      pop\n        /* \"#utility.yul\":10422:10978   */\n      swap3\n      swap2\n      pop\n      pop\n      jump\t// out\n\n    auxdata: 0xa2646970667358221220791c3bd3ee49b4d4b25b92a626aef31709ce6ee4c51b72fa923582efdb6018ea64736f6c63430008120033\n}\n",
				"bytecode": {
					"linkReferences": {},
					"object": "60a0604052674563918244f4000060005534801561001c57600080fd5b503373ffffffffffffffffffffffffffffffffffffffff1660808173ffffffffffffffffffffffffffffffffffffffff1681525050608051610d496100736000396000818161015301526104f50152610d496000f3fe6080604052600436106100555760003560e01c8063213dbea21461005a5780633ccfd60b146100855780633e47d6f31461009c578063b60d4288146100d9578063dba6335f146100e3578063dc0d3dff1461010e575b600080fd5b34801561006657600080fd5b5061006f61014b565b60405161007c91906106f9565b60405180910390f35b34801561009157600080fd5b5061009a610151565b005b3480156100a857600080fd5b506100c360048036038101906100be9190610777565b61039b565b6040516100d091906106f9565b60405180910390f35b6100e16103b3565b005b3480156100ef57600080fd5b506100f86104f3565b60405161010591906107b3565b60405180910390f35b34801561011a57600080fd5b50610135600480360381019061013091906107fa565b610517565b60405161014291906107b3565b60405180910390f35b60005481565b7f000000000000000000000000000000000000000000000000000000000000000073ffffffffffffffffffffffffffffffffffffffff163373ffffffffffffffffffffffffffffffffffffffff16146101df576040517f08c379a00000000000000000000000000000000000000000000000000000000081526004016101d6906108aa565b60405180910390fd5b60005b60018054905081101561028b57600060018281548110610205576102046108ca565b5b9060005260206000200160009054906101000a900473ffffffffffffffffffffffffffffffffffffffff1690506000600260008373ffffffffffffffffffffffffffffffffffffffff1673ffffffffffffffffffffffffffffffffffffffff1681526020019081526020016000208190555050808061028390610928565b9150506101e2565b50600067ffffffffffffffff8111156102a7576102a6610970565b5b6040519080825280602002602001820160405280156102d55781602001602082028036833780820191505090505b50600190805190602001906102eb929190610639565b5060003373ffffffffffffffffffffffffffffffffffffffff1647604051610312906109d0565b60006040518083038185875af1925050503d806000811461034f576040519150601f19603f3d011682016040523d82523d6000602084013e610354565b606091505b5050905080610398576040517f08c379a000000000000000000000000000000000000000000000000000000000815260040161038f90610a31565b60405180910390fd5b50565b60026020528060005260406000206000915090505481565b6000546103bf34610556565b1015610400576040517f08c379a00000000000000000000000000000000000000000000000000000000081526004016103f790610a9d565b60405180910390fd5b6001339080600181540180825580915050600190039060005260206000200160009091909190916101000a81548173ffffffffffffffffffffffffffffffffffffffff021916908373ffffffffffffffffffffffffffffffffffffffff16021790555034600260003373ffffffffffffffffffffffffffffffffffffffff1673ffffffffffffffffffffffffffffffffffffffff168152602001908152602001600020546104ae9190610abd565b600260003373ffffffffffffffffffffffffffffffffffffffff1673ffffffffffffffffffffffffffffffffffffffff16815260200190815260200160002081905550565b7f000000000000000000000000000000000000000000000000000000000000000081565b6001818154811061052757600080fd5b906000526020600020016000915054906101000a900473ffffffffffffffffffffffffffffffffffffffff1681565b600080610561610590565b90506000670de0b6b3a7640000848361057a9190610af1565b6105849190610b62565b90508092505050919050565b60008073694aa1769357215de4fac081bf1f309adc325306905060008173ffffffffffffffffffffffffffffffffffffffff1663feaf968c6040518163ffffffff1660e01b815260040160a060405180830381865afa1580156105f7573d6000803e3d6000fd5b505050506040513d601f19601f8201168201806040525081019061061b9190610c20565b5050509150506402540be400816106329190610c9b565b9250505090565b8280548282559060005260206000209081019282156106b2579160200282015b828111156106b15782518260006101000a81548173ffffffffffffffffffffffffffffffffffffffff021916908373ffffffffffffffffffffffffffffffffffffffff16021790555091602001919060010190610659565b5b5090506106bf91906106c3565b5090565b5b808211156106dc5760008160009055506001016106c4565b5090565b6000819050919050565b6106f3816106e0565b82525050565b600060208201905061070e60008301846106ea565b92915050565b600080fd5b600073ffffffffffffffffffffffffffffffffffffffff82169050919050565b600061074482610719565b9050919050565b61075481610739565b811461075f57600080fd5b50565b6000813590506107718161074b565b92915050565b60006020828403121561078d5761078c610714565b5b600061079b84828501610762565b91505092915050565b6107ad81610739565b82525050565b60006020820190506107c860008301846107a4565b92915050565b6107d7816106e0565b81146107e257600080fd5b50565b6000813590506107f4816107ce565b92915050565b6000602082840312156108105761080f610714565b5b600061081e848285016107e5565b91505092915050565b600082825260208201905092915050565b7f6f6e6c79206f776e65722063616e2063616c6c20746869732066756e6374696f60008201527f6e00000000000000000000000000000000000000000000000000000000000000602082015250565b6000610894602183610827565b915061089f82610838565b604082019050919050565b600060208201905081810360008301526108c381610887565b9050919050565b7f4e487b7100000000000000000000000000000000000000000000000000000000600052603260045260246000fd5b7f4e487b7100000000000000000000000000000000000000000000000000000000600052601160045260246000fd5b6000610933826106e0565b91507fffffffffffffffffffffffffffffffffffffffffffffffffffffffffffffffff8203610965576109646108f9565b5b600182019050919050565b7f4e487b7100000000000000000000000000000000000000000000000000000000600052604160045260246000fd5b600081905092915050565b50565b60006109ba60008361099f565b91506109c5826109aa565b600082019050919050565b60006109db826109ad565b9150819050919050565b7f43616c6c206661696c6564000000000000000000000000000000000000000000600082015250565b6000610a1b600b83610827565b9150610a26826109e5565b602082019050919050565b60006020820190508181036000830152610a4a81610a0e565b9050919050565b7f4469646e27742073656e6420656e6f6768742045544800000000000000000000600082015250565b6000610a87601683610827565b9150610a9282610a51565b602082019050919050565b60006020820190508181036000830152610ab681610a7a565b9050919050565b6000610ac8826106e0565b9150610ad3836106e0565b9250828201905080821115610aeb57610aea6108f9565b5b92915050565b6000610afc826106e0565b9150610b07836106e0565b9250828202610b15816106e0565b91508282048414831517610b2c57610b2b6108f9565b5b5092915050565b7f4e487b7100000000000000000000000000000000000000000000000000000000600052601260045260246000fd5b6000610b6d826106e0565b9150610b78836106e0565b925082610b8857610b87610b33565b5b828204905092915050565b600069ffffffffffffffffffff82169050919050565b610bb281610b93565b8114610bbd57600080fd5b50565b600081519050610bcf81610ba9565b92915050565b6000819050919050565b610be881610bd5565b8114610bf357600080fd5b50565b600081519050610c0581610bdf565b92915050565b600081519050610c1a816107ce565b92915050565b600080600080600060a08688031215610c3c57610c3b610714565b5b6000610c4a88828901610bc0565b9550506020610c5b88828901610bf6565b9450506040610c6c88828901610c0b565b9350506060610c7d88828901610c0b565b9250506080610c8e88828901610bc0565b9150509295509295909350565b6000610ca682610bd5565b9150610cb183610bd5565b9250828202610cbf81610bd5565b91507f80000000000000000000000000000000000000000000000000000000000000008414600084121615610cf757610cf66108f9565b5b8282058414831517610d0c57610d0b6108f9565b5b509291505056fea2646970667358221220791c3bd3ee49b4d4b25b92a626aef31709ce6ee4c51b72fa923582efdb6018ea64736f6c63430008120033",
					"opcodes": "PUSH1 0xA0 PUSH1 0x40 MSTORE PUSH8 0x4563918244F40000 PUSH1 0x0 SSTORE CALLVALUE DUP1 ISZERO PUSH2 0x1C JUMPI PUSH1 0x0 DUP1 REVERT JUMPDEST POP CALLER PUSH20 0xFFFFFFFFFFFFFFFFFFFFFFFFFFFFFFFFFFFFFFFF AND PUSH1 0x80 DUP2 PUSH20 0xFFFFFFFFFFFFFFFFFFFFFFFFFFFFFFFFFFFFFFFF AND DUP2 MSTORE POP POP PUSH1 0x80 MLOAD PUSH2 0xD49 PUSH2 0x73 PUSH1 0x0 CODECOPY PUSH1 0x0 DUP2 DUP2 PUSH2 0x153 ADD MSTORE PUSH2 0x4F5 ADD MSTORE PUSH2 0xD49 PUSH1 0x0 RETURN INVALID PUSH1 0x80 PUSH1 0x40 MSTORE PUSH1 0x4 CALLDATASIZE LT PUSH2 0x55 JUMPI PUSH1 0x0 CALLDATALOAD PUSH1 0xE0 SHR DUP1 PUSH4 0x213DBEA2 EQ PUSH2 0x5A JUMPI DUP1 PUSH4 0x3CCFD60B EQ PUSH2 0x85 JUMPI DUP1 PUSH4 0x3E47D6F3 EQ PUSH2 0x9C JUMPI DUP1 PUSH4 0xB60D4288 EQ PUSH2 0xD9 JUMPI DUP1 PUSH4 0xDBA6335F EQ PUSH2 0xE3 JUMPI DUP1 PUSH4 0xDC0D3DFF EQ PUSH2 0x10E JUMPI JUMPDEST PUSH1 0x0 DUP1 REVERT JUMPDEST CALLVALUE DUP1 ISZERO PUSH2 0x66 JUMPI PUSH1 0x0 DUP1 REVERT JUMPDEST POP PUSH2 0x6F PUSH2 0x14B JUMP JUMPDEST PUSH1 0x40 MLOAD PUSH2 0x7C SWAP2 SWAP1 PUSH2 0x6F9 JUMP JUMPDEST PUSH1 0x40 MLOAD DUP1 SWAP2 SUB SWAP1 RETURN JUMPDEST CALLVALUE DUP1 ISZERO PUSH2 0x91 JUMPI PUSH1 0x0 DUP1 REVERT JUMPDEST POP PUSH2 0x9A PUSH2 0x151 JUMP JUMPDEST STOP JUMPDEST CALLVALUE DUP1 ISZERO PUSH2 0xA8 JUMPI PUSH1 0x0 DUP1 REVERT JUMPDEST POP PUSH2 0xC3 PUSH1 0x4 DUP1 CALLDATASIZE SUB DUP2 ADD SWAP1 PUSH2 0xBE SWAP2 SWAP1 PUSH2 0x777 JUMP JUMPDEST PUSH2 0x39B JUMP JUMPDEST PUSH1 0x40 MLOAD PUSH2 0xD0 SWAP2 SWAP1 PUSH2 0x6F9 JUMP JUMPDEST PUSH1 0x40 MLOAD DUP1 SWAP2 SUB SWAP1 RETURN JUMPDEST PUSH2 0xE1 PUSH2 0x3B3 JUMP JUMPDEST STOP JUMPDEST CALLVALUE DUP1 ISZERO PUSH2 0xEF JUMPI PUSH1 0x0 DUP1 REVERT JUMPDEST POP PUSH2 0xF8 PUSH2 0x4F3 JUMP JUMPDEST PUSH1 0x40 MLOAD PUSH2 0x105 SWAP2 SWAP1 PUSH2 0x7B3 JUMP JUMPDEST PUSH1 0x40 MLOAD DUP1 SWAP2 SUB SWAP1 RETURN JUMPDEST CALLVALUE DUP1 ISZERO PUSH2 0x11A JUMPI PUSH1 0x0 DUP1 REVERT JUMPDEST POP PUSH2 0x135 PUSH1 0x4 DUP1 CALLDATASIZE SUB DUP2 ADD SWAP1 PUSH2 0x130 SWAP2 SWAP1 PUSH2 0x7FA JUMP JUMPDEST PUSH2 0x517 JUMP JUMPDEST PUSH1 0x40 MLOAD PUSH2 0x142 SWAP2 SWAP1 PUSH2 0x7B3 JUMP JUMPDEST PUSH1 0x40 MLOAD DUP1 SWAP2 SUB SWAP1 RETURN JUMPDEST PUSH1 0x0 SLOAD DUP2 JUMP JUMPDEST PUSH32 0x0 PUSH20 0xFFFFFFFFFFFFFFFFFFFFFFFFFFFFFFFFFFFFFFFF AND CALLER PUSH20 0xFFFFFFFFFFFFFFFFFFFFFFFFFFFFFFFFFFFFFFFF AND EQ PUSH2 0x1DF JUMPI PUSH1 0x40 MLOAD PUSH32 0x8C379A000000000000000000000000000000000000000000000000000000000 DUP2 MSTORE PUSH1 0x4 ADD PUSH2 0x1D6 SWAP1 PUSH2 0x8AA JUMP JUMPDEST PUSH1 0x40 MLOAD DUP1 SWAP2 SUB SWAP1 REVERT JUMPDEST PUSH1 0x0 JUMPDEST PUSH1 0x1 DUP1 SLOAD SWAP1 POP DUP2 LT ISZERO PUSH2 0x28B JUMPI PUSH1 0x0 PUSH1 0x1 DUP3 DUP2 SLOAD DUP2 LT PUSH2 0x205 JUMPI PUSH2 0x204 PUSH2 0x8CA JUMP JUMPDEST JUMPDEST SWAP1 PUSH1 0x0 MSTORE PUSH1 0x20 PUSH1 0x0 KECCAK256 ADD PUSH1 0x0 SWAP1 SLOAD SWAP1 PUSH2 0x100 EXP SWAP1 DIV PUSH20 0xFFFFFFFFFFFFFFFFFFFFFFFFFFFFFFFFFFFFFFFF AND SWAP1 POP PUSH1 0x0 PUSH1 0x2 PUSH1 0x0 DUP4 PUSH20 0xFFFFFFFFFFFFFFFFFFFFFFFFFFFFFFFFFFFFFFFF AND PUSH20 0xFFFFFFFFFFFFFFFFFFFFFFFFFFFFFFFFFFFFFFFF AND DUP2 MSTORE PUSH1 0x20 ADD SWAP1 DUP2 MSTORE PUSH1 0x20 ADD PUSH1 0x0 KECCAK256 DUP2 SWAP1 SSTORE POP POP DUP1 DUP1 PUSH2 0x283 SWAP1 PUSH2 0x928 JUMP JUMPDEST SWAP2 POP POP PUSH2 0x1E2 JUMP JUMPDEST POP PUSH1 0x0 PUSH8 0xFFFFFFFFFFFFFFFF DUP2 GT ISZERO PUSH2 0x2A7 JUMPI PUSH2 0x2A6 PUSH2 0x970 JUMP JUMPDEST JUMPDEST PUSH1 0x40 MLOAD SWAP1 DUP1 DUP3 MSTORE DUP1 PUSH1 0x20 MUL PUSH1 0x20 ADD DUP3 ADD PUSH1 0x40 MSTORE DUP1 ISZERO PUSH2 0x2D5 JUMPI DUP2 PUSH1 0x20 ADD PUSH1 0x20 DUP3 MUL DUP1 CALLDATASIZE DUP4 CALLDATACOPY DUP1 DUP3 ADD SWAP2 POP POP SWAP1 POP JUMPDEST POP PUSH1 0x1 SWAP1 DUP1 MLOAD SWAP1 PUSH1 0x20 ADD SWAP1 PUSH2 0x2EB SWAP3 SWAP2 SWAP1 PUSH2 0x639 JUMP JUMPDEST POP PUSH1 0x0 CALLER PUSH20 0xFFFFFFFFFFFFFFFFFFFFFFFFFFFFFFFFFFFFFFFF AND SELFBALANCE PUSH1 0x40 MLOAD PUSH2 0x312 SWAP1 PUSH2 0x9D0 JUMP JUMPDEST PUSH1 0x0 PUSH1 0x40 MLOAD DUP1 DUP4 SUB DUP2 DUP6 DUP8 GAS CALL SWAP3 POP POP POP RETURNDATASIZE DUP1 PUSH1 0x0 DUP2 EQ PUSH2 0x34F JUMPI PUSH1 0x40 MLOAD SWAP2 POP PUSH1 0x1F NOT PUSH1 0x3F RETURNDATASIZE ADD AND DUP3 ADD PUSH1 0x40 MSTORE RETURNDATASIZE DUP3 MSTORE RETURNDATASIZE PUSH1 0x0 PUSH1 0x20 DUP5 ADD RETURNDATACOPY PUSH2 0x354 JUMP JUMPDEST PUSH1 0x60 SWAP2 POP JUMPDEST POP POP SWAP1 POP DUP1 PUSH2 0x398 JUMPI PUSH1 0x40 MLOAD PUSH32 0x8C379A000000000000000000000000000000000000000000000000000000000 DUP2 MSTORE PUSH1 0x4 ADD PUSH2 0x38F SWAP1 PUSH2 0xA31 JUMP JUMPDEST PUSH1 0x40 MLOAD DUP1 SWAP2 SUB SWAP1 REVERT JUMPDEST POP JUMP JUMPDEST PUSH1 0x2 PUSH1 0x20 MSTORE DUP1 PUSH1 0x0 MSTORE PUSH1 0x40 PUSH1 0x0 KECCAK256 PUSH1 0x0 SWAP2 POP SWAP1 POP SLOAD DUP2 JUMP JUMPDEST PUSH1 0x0 SLOAD PUSH2 0x3BF CALLVALUE PUSH2 0x556 JUMP JUMPDEST LT ISZERO PUSH2 0x400 JUMPI PUSH1 0x40 MLOAD PUSH32 0x8C379A000000000000000000000000000000000000000000000000000000000 DUP2 MSTORE PUSH1 0x4 ADD PUSH2 0x3F7 SWAP1 PUSH2 0xA9D JUMP JUMPDEST PUSH1 0x40 MLOAD DUP1 SWAP2 SUB SWAP1 REVERT JUMPDEST PUSH1 0x1 CALLER SWAP1 DUP1 PUSH1 0x1 DUP2 SLOAD ADD DUP1 DUP3 SSTORE DUP1 SWAP2 POP POP PUSH1 0x1 SWAP1 SUB SWAP1 PUSH1 0x0 MSTORE PUSH1 0x20 PUSH1 0x0 KECCAK256 ADD PUSH1 0x0 SWAP1 SWAP2 SWAP1 SWAP2 SWAP1 SWAP2 PUSH2 0x100 EXP DUP2 SLOAD DUP2 PUSH20 0xFFFFFFFFFFFFFFFFFFFFFFFFFFFFFFFFFFFFFFFF MUL NOT AND SWAP1 DUP4 PUSH20 0xFFFFFFFFFFFFFFFFFFFFFFFFFFFFFFFFFFFFFFFF AND MUL OR SWAP1 SSTORE POP CALLVALUE PUSH1 0x2 PUSH1 0x0 CALLER PUSH20 0xFFFFFFFFFFFFFFFFFFFFFFFFFFFFFFFFFFFFFFFF AND PUSH20 0xFFFFFFFFFFFFFFFFFFFFFFFFFFFFFFFFFFFFFFFF AND DUP2 MSTORE PUSH1 0x20 ADD SWAP1 DUP2 MSTORE PUSH1 0x20 ADD PUSH1 0x0 KECCAK256 SLOAD PUSH2 0x4AE SWAP2 SWAP1 PUSH2 0xABD JUMP JUMPDEST PUSH1 0x2 PUSH1 0x0 CALLER PUSH20 0xFFFFFFFFFFFFFFFFFFFFFFFFFFFFFFFFFFFFFFFF AND PUSH20 0xFFFFFFFFFFFFFFFFFFFFFFFFFFFFFFFFFFFFFFFF AND DUP2 MSTORE PUSH1 0x20 ADD SWAP1 DUP2 MSTORE PUSH1 0x20 ADD PUSH1 0x0 KECCAK256 DUP2 SWAP1 SSTORE POP JUMP JUMPDEST PUSH32 0x0 DUP2 JUMP JUMPDEST PUSH1 0x1 DUP2 DUP2 SLOAD DUP2 LT PUSH2 0x527 JUMPI PUSH1 0x0 DUP1 REVERT JUMPDEST SWAP1 PUSH1 0x0 MSTORE PUSH1 0x20 PUSH1 0x0 KECCAK256 ADD PUSH1 0x0 SWAP2 POP SLOAD SWAP1 PUSH2 0x100 EXP SWAP1 DIV PUSH20 0xFFFFFFFFFFFFFFFFFFFFFFFFFFFFFFFFFFFFFFFF AND DUP2 JUMP JUMPDEST PUSH1 0x0 DUP1 PUSH2 0x561 PUSH2 0x590 JUMP JUMPDEST SWAP1 POP PUSH1 0x0 PUSH8 0xDE0B6B3A7640000 DUP5 DUP4 PUSH2 0x57A SWAP2 SWAP1 PUSH2 0xAF1 JUMP JUMPDEST PUSH2 0x584 SWAP2 SWAP1 PUSH2 0xB62 JUMP JUMPDEST SWAP1 POP DUP1 SWAP3 POP POP POP SWAP2 SWAP1 POP JUMP JUMPDEST PUSH1 0x0 DUP1 PUSH20 0x694AA1769357215DE4FAC081BF1F309ADC325306 SWAP1 POP PUSH1 0x0 DUP2 PUSH20 0xFFFFFFFFFFFFFFFFFFFFFFFFFFFFFFFFFFFFFFFF AND PUSH4 0xFEAF968C PUSH1 0x40 MLOAD DUP2 PUSH4 0xFFFFFFFF AND PUSH1 0xE0 SHL DUP2 MSTORE PUSH1 0x4 ADD PUSH1 0xA0 PUSH1 0x40 MLOAD DUP1 DUP4 SUB DUP2 DUP7 GAS STATICCALL ISZERO DUP1 ISZERO PUSH2 0x5F7 JUMPI RETURNDATASIZE PUSH1 0x0 DUP1 RETURNDATACOPY RETURNDATASIZE PUSH1 0x0 REVERT JUMPDEST POP POP POP POP PUSH1 0x40 MLOAD RETURNDATASIZE PUSH1 0x1F NOT PUSH1 0x1F DUP3 ADD AND DUP3 ADD DUP1 PUSH1 0x40 MSTORE POP DUP2 ADD SWAP1 PUSH2 0x61B SWAP2 SWAP1 PUSH2 0xC20 JUMP JUMPDEST POP POP POP SWAP2 POP POP PUSH5 0x2540BE400 DUP2 PUSH2 0x632 SWAP2 SWAP1 PUSH2 0xC9B JUMP JUMPDEST SWAP3 POP POP POP SWAP1 JUMP JUMPDEST DUP3 DUP1 SLOAD DUP3 DUP3 SSTORE SWAP1 PUSH1 0x0 MSTORE PUSH1 0x20 PUSH1 0x0 KECCAK256 SWAP1 DUP2 ADD SWAP3 DUP3 ISZERO PUSH2 0x6B2 JUMPI SWAP2 PUSH1 0x20 MUL DUP3 ADD JUMPDEST DUP3 DUP2 GT ISZERO PUSH2 0x6B1 JUMPI DUP3 MLOAD DUP3 PUSH1 0x0 PUSH2 0x100 EXP DUP2 SLOAD DUP2 PUSH20 0xFFFFFFFFFFFFFFFFFFFFFFFFFFFFFFFFFFFFFFFF MUL NOT AND SWAP1 DUP4 PUSH20 0xFFFFFFFFFFFFFFFFFFFFFFFFFFFFFFFFFFFFFFFF AND MUL OR SWAP1 SSTORE POP SWAP2 PUSH1 0x20 ADD SWAP2 SWAP1 PUSH1 0x1 ADD SWAP1 PUSH2 0x659 JUMP JUMPDEST JUMPDEST POP SWAP1 POP PUSH2 0x6BF SWAP2 SWAP1 PUSH2 0x6C3 JUMP JUMPDEST POP SWAP1 JUMP JUMPDEST JUMPDEST DUP1 DUP3 GT ISZERO PUSH2 0x6DC JUMPI PUSH1 0x0 DUP2 PUSH1 0x0 SWAP1 SSTORE POP PUSH1 0x1 ADD PUSH2 0x6C4 JUMP JUMPDEST POP SWAP1 JUMP JUMPDEST PUSH1 0x0 DUP2 SWAP1 POP SWAP2 SWAP1 POP JUMP JUMPDEST PUSH2 0x6F3 DUP2 PUSH2 0x6E0 JUMP JUMPDEST DUP3 MSTORE POP POP JUMP JUMPDEST PUSH1 0x0 PUSH1 0x20 DUP3 ADD SWAP1 POP PUSH2 0x70E PUSH1 0x0 DUP4 ADD DUP5 PUSH2 0x6EA JUMP JUMPDEST SWAP3 SWAP2 POP POP JUMP JUMPDEST PUSH1 0x0 DUP1 REVERT JUMPDEST PUSH1 0x0 PUSH20 0xFFFFFFFFFFFFFFFFFFFFFFFFFFFFFFFFFFFFFFFF DUP3 AND SWAP1 POP SWAP2 SWAP1 POP JUMP JUMPDEST PUSH1 0x0 PUSH2 0x744 DUP3 PUSH2 0x719 JUMP JUMPDEST SWAP1 POP SWAP2 SWAP1 POP JUMP JUMPDEST PUSH2 0x754 DUP2 PUSH2 0x739 JUMP JUMPDEST DUP2 EQ PUSH2 0x75F JUMPI PUSH1 0x0 DUP1 REVERT JUMPDEST POP JUMP JUMPDEST PUSH1 0x0 DUP2 CALLDATALOAD SWAP1 POP PUSH2 0x771 DUP2 PUSH2 0x74B JUMP JUMPDEST SWAP3 SWAP2 POP POP JUMP JUMPDEST PUSH1 0x0 PUSH1 0x20 DUP3 DUP5 SUB SLT ISZERO PUSH2 0x78D JUMPI PUSH2 0x78C PUSH2 0x714 JUMP JUMPDEST JUMPDEST PUSH1 0x0 PUSH2 0x79B DUP5 DUP3 DUP6 ADD PUSH2 0x762 JUMP JUMPDEST SWAP2 POP POP SWAP3 SWAP2 POP POP JUMP JUMPDEST PUSH2 0x7AD DUP2 PUSH2 0x739 JUMP JUMPDEST DUP3 MSTORE POP POP JUMP JUMPDEST PUSH1 0x0 PUSH1 0x20 DUP3 ADD SWAP1 POP PUSH2 0x7C8 PUSH1 0x0 DUP4 ADD DUP5 PUSH2 0x7A4 JUMP JUMPDEST SWAP3 SWAP2 POP POP JUMP JUMPDEST PUSH2 0x7D7 DUP2 PUSH2 0x6E0 JUMP JUMPDEST DUP2 EQ PUSH2 0x7E2 JUMPI PUSH1 0x0 DUP1 REVERT JUMPDEST POP JUMP JUMPDEST PUSH1 0x0 DUP2 CALLDATALOAD SWAP1 POP PUSH2 0x7F4 DUP2 PUSH2 0x7CE JUMP JUMPDEST SWAP3 SWAP2 POP POP JUMP JUMPDEST PUSH1 0x0 PUSH1 0x20 DUP3 DUP5 SUB SLT ISZERO PUSH2 0x810 JUMPI PUSH2 0x80F PUSH2 0x714 JUMP JUMPDEST JUMPDEST PUSH1 0x0 PUSH2 0x81E DUP5 DUP3 DUP6 ADD PUSH2 0x7E5 JUMP JUMPDEST SWAP2 POP POP SWAP3 SWAP2 POP POP JUMP JUMPDEST PUSH1 0x0 DUP3 DUP3 MSTORE PUSH1 0x20 DUP3 ADD SWAP1 POP SWAP3 SWAP2 POP POP JUMP JUMPDEST PUSH32 0x6F6E6C79206F776E65722063616E2063616C6C20746869732066756E6374696F PUSH1 0x0 DUP3 ADD MSTORE PUSH32 0x6E00000000000000000000000000000000000000000000000000000000000000 PUSH1 0x20 DUP3 ADD MSTORE POP JUMP JUMPDEST PUSH1 0x0 PUSH2 0x894 PUSH1 0x21 DUP4 PUSH2 0x827 JUMP JUMPDEST SWAP2 POP PUSH2 0x89F DUP3 PUSH2 0x838 JUMP JUMPDEST PUSH1 0x40 DUP3 ADD SWAP1 POP SWAP2 SWAP1 POP JUMP JUMPDEST PUSH1 0x0 PUSH1 0x20 DUP3 ADD SWAP1 POP DUP2 DUP2 SUB PUSH1 0x0 DUP4 ADD MSTORE PUSH2 0x8C3 DUP2 PUSH2 0x887 JUMP JUMPDEST SWAP1 POP SWAP2 SWAP1 POP JUMP JUMPDEST PUSH32 0x4E487B7100000000000000000000000000000000000000000000000000000000 PUSH1 0x0 MSTORE PUSH1 0x32 PUSH1 0x4 MSTORE PUSH1 0x24 PUSH1 0x0 REVERT JUMPDEST PUSH32 0x4E487B7100000000000000000000000000000000000000000000000000000000 PUSH1 0x0 MSTORE PUSH1 0x11 PUSH1 0x4 MSTORE PUSH1 0x24 PUSH1 0x0 REVERT JUMPDEST PUSH1 0x0 PUSH2 0x933 DUP3 PUSH2 0x6E0 JUMP JUMPDEST SWAP2 POP PUSH32 0xFFFFFFFFFFFFFFFFFFFFFFFFFFFFFFFFFFFFFFFFFFFFFFFFFFFFFFFFFFFFFFFF DUP3 SUB PUSH2 0x965 JUMPI PUSH2 0x964 PUSH2 0x8F9 JUMP JUMPDEST JUMPDEST PUSH1 0x1 DUP3 ADD SWAP1 POP SWAP2 SWAP1 POP JUMP JUMPDEST PUSH32 0x4E487B7100000000000000000000000000000000000000000000000000000000 PUSH1 0x0 MSTORE PUSH1 0x41 PUSH1 0x4 MSTORE PUSH1 0x24 PUSH1 0x0 REVERT JUMPDEST PUSH1 0x0 DUP2 SWAP1 POP SWAP3 SWAP2 POP POP JUMP JUMPDEST POP JUMP JUMPDEST PUSH1 0x0 PUSH2 0x9BA PUSH1 0x0 DUP4 PUSH2 0x99F JUMP JUMPDEST SWAP2 POP PUSH2 0x9C5 DUP3 PUSH2 0x9AA JUMP JUMPDEST PUSH1 0x0 DUP3 ADD SWAP1 POP SWAP2 SWAP1 POP JUMP JUMPDEST PUSH1 0x0 PUSH2 0x9DB DUP3 PUSH2 0x9AD JUMP JUMPDEST SWAP2 POP DUP2 SWAP1 POP SWAP2 SWAP1 POP JUMP JUMPDEST PUSH32 0x43616C6C206661696C6564000000000000000000000000000000000000000000 PUSH1 0x0 DUP3 ADD MSTORE POP JUMP JUMPDEST PUSH1 0x0 PUSH2 0xA1B PUSH1 0xB DUP4 PUSH2 0x827 JUMP JUMPDEST SWAP2 POP PUSH2 0xA26 DUP3 PUSH2 0x9E5 JUMP JUMPDEST PUSH1 0x20 DUP3 ADD SWAP1 POP SWAP2 SWAP1 POP JUMP JUMPDEST PUSH1 0x0 PUSH1 0x20 DUP3 ADD SWAP1 POP DUP2 DUP2 SUB PUSH1 0x0 DUP4 ADD MSTORE PUSH2 0xA4A DUP2 PUSH2 0xA0E JUMP JUMPDEST SWAP1 POP SWAP2 SWAP1 POP JUMP JUMPDEST PUSH32 0x4469646E27742073656E6420656E6F6768742045544800000000000000000000 PUSH1 0x0 DUP3 ADD MSTORE POP JUMP JUMPDEST PUSH1 0x0 PUSH2 0xA87 PUSH1 0x16 DUP4 PUSH2 0x827 JUMP JUMPDEST SWAP2 POP PUSH2 0xA92 DUP3 PUSH2 0xA51 JUMP JUMPDEST PUSH1 0x20 DUP3 ADD SWAP1 POP SWAP2 SWAP1 POP JUMP JUMPDEST PUSH1 0x0 PUSH1 0x20 DUP3 ADD SWAP1 POP DUP2 DUP2 SUB PUSH1 0x0 DUP4 ADD MSTORE PUSH2 0xAB6 DUP2 PUSH2 0xA7A JUMP JUMPDEST SWAP1 POP SWAP2 SWAP1 POP JUMP JUMPDEST PUSH1 0x0 PUSH2 0xAC8 DUP3 PUSH2 0x6E0 JUMP JUMPDEST SWAP2 POP PUSH2 0xAD3 DUP4 PUSH2 0x6E0 JUMP JUMPDEST SWAP3 POP DUP3 DUP3 ADD SWAP1 POP DUP1 DUP3 GT ISZERO PUSH2 0xAEB JUMPI PUSH2 0xAEA PUSH2 0x8F9 JUMP JUMPDEST JUMPDEST SWAP3 SWAP2 POP POP JUMP JUMPDEST PUSH1 0x0 PUSH2 0xAFC DUP3 PUSH2 0x6E0 JUMP JUMPDEST SWAP2 POP PUSH2 0xB07 DUP4 PUSH2 0x6E0 JUMP JUMPDEST SWAP3 POP DUP3 DUP3 MUL PUSH2 0xB15 DUP2 PUSH2 0x6E0 JUMP JUMPDEST SWAP2 POP DUP3 DUP3 DIV DUP5 EQ DUP4 ISZERO OR PUSH2 0xB2C JUMPI PUSH2 0xB2B PUSH2 0x8F9 JUMP JUMPDEST JUMPDEST POP SWAP3 SWAP2 POP POP JUMP JUMPDEST PUSH32 0x4E487B7100000000000000000000000000000000000000000000000000000000 PUSH1 0x0 MSTORE PUSH1 0x12 PUSH1 0x4 MSTORE PUSH1 0x24 PUSH1 0x0 REVERT JUMPDEST PUSH1 0x0 PUSH2 0xB6D DUP3 PUSH2 0x6E0 JUMP JUMPDEST SWAP2 POP PUSH2 0xB78 DUP4 PUSH2 0x6E0 JUMP JUMPDEST SWAP3 POP DUP3 PUSH2 0xB88 JUMPI PUSH2 0xB87 PUSH2 0xB33 JUMP JUMPDEST JUMPDEST DUP3 DUP3 DIV SWAP1 POP SWAP3 SWAP2 POP POP JUMP JUMPDEST PUSH1 0x0 PUSH10 0xFFFFFFFFFFFFFFFFFFFF DUP3 AND SWAP1 POP SWAP2 SWAP1 POP JUMP JUMPDEST PUSH2 0xBB2 DUP2 PUSH2 0xB93 JUMP JUMPDEST DUP2 EQ PUSH2 0xBBD JUMPI PUSH1 0x0 DUP1 REVERT JUMPDEST POP JUMP JUMPDEST PUSH1 0x0 DUP2 MLOAD SWAP1 POP PUSH2 0xBCF DUP2 PUSH2 0xBA9 JUMP JUMPDEST SWAP3 SWAP2 POP POP JUMP JUMPDEST PUSH1 0x0 DUP2 SWAP1 POP SWAP2 SWAP1 POP JUMP JUMPDEST PUSH2 0xBE8 DUP2 PUSH2 0xBD5 JUMP JUMPDEST DUP2 EQ PUSH2 0xBF3 JUMPI PUSH1 0x0 DUP1 REVERT JUMPDEST POP JUMP JUMPDEST PUSH1 0x0 DUP2 MLOAD SWAP1 POP PUSH2 0xC05 DUP2 PUSH2 0xBDF JUMP JUMPDEST SWAP3 SWAP2 POP POP JUMP JUMPDEST PUSH1 0x0 DUP2 MLOAD SWAP1 POP PUSH2 0xC1A DUP2 PUSH2 0x7CE JUMP JUMPDEST SWAP3 SWAP2 POP POP JUMP JUMPDEST PUSH1 0x0 DUP1 PUSH1 0x0 DUP1 PUSH1 0x0 PUSH1 0xA0 DUP7 DUP9 SUB SLT ISZERO PUSH2 0xC3C JUMPI PUSH2 0xC3B PUSH2 0x714 JUMP JUMPDEST JUMPDEST PUSH1 0x0 PUSH2 0xC4A DUP9 DUP3 DUP10 ADD PUSH2 0xBC0 JUMP JUMPDEST SWAP6 POP POP PUSH1 0x20 PUSH2 0xC5B DUP9 DUP3 DUP10 ADD PUSH2 0xBF6 JUMP JUMPDEST SWAP5 POP POP PUSH1 0x40 PUSH2 0xC6C DUP9 DUP3 DUP10 ADD PUSH2 0xC0B JUMP JUMPDEST SWAP4 POP POP PUSH1 0x60 PUSH2 0xC7D DUP9 DUP3 DUP10 ADD PUSH2 0xC0B JUMP JUMPDEST SWAP3 POP POP PUSH1 0x80 PUSH2 0xC8E DUP9 DUP3 DUP10 ADD PUSH2 0xBC0 JUMP JUMPDEST SWAP2 POP POP SWAP3 SWAP6 POP SWAP3 SWAP6 SWAP1 SWAP4 POP JUMP JUMPDEST PUSH1 0x0 PUSH2 0xCA6 DUP3 PUSH2 0xBD5 JUMP JUMPDEST SWAP2 POP PUSH2 0xCB1 DUP4 PUSH2 0xBD5 JUMP JUMPDEST SWAP3 POP DUP3 DUP3 MUL PUSH2 0xCBF DUP2 PUSH2 0xBD5 JUMP JUMPDEST SWAP2 POP PUSH32 0x8000000000000000000000000000000000000000000000000000000000000000 DUP5 EQ PUSH1 0x0 DUP5 SLT AND ISZERO PUSH2 0xCF7 JUMPI PUSH2 0xCF6 PUSH2 0x8F9 JUMP JUMPDEST JUMPDEST DUP3 DUP3 SDIV DUP5 EQ DUP4 ISZERO OR PUSH2 0xD0C JUMPI PUSH2 0xD0B PUSH2 0x8F9 JUMP JUMPDEST JUMPDEST POP SWAP3 SWAP2 POP POP JUMP INVALID LOG2 PUSH5 0x6970667358 0x22 SLT KECCAK256 PUSH26 0x1C3BD3EE49B4D4B25B92A626AEF31709CE6EE4C51B72FA923582 0xEF 0xDB PUSH1 0x18 0xEA PUSH5 0x736F6C6343 STOP ADDMOD SLT STOP CALLER "
				},
				"gasEstimates": {
					"creation": {
						"codeDepositCost": "680200",
						"executionCost": "infinite",
						"totalCost": "infinite"
					},
					"external": {
						"MIN_USD()": "2407",
						"addressToAmountFunded(address)": "2836",
						"fund()": "infinite",
						"funders(uint256)": "5044",
						"i_owner()": "infinite",
						"withdraw()": "infinite"
					}
				},
				"methodIdentifiers": {
					"MIN_USD()": "213dbea2",
					"addressToAmountFunded(address)": "3e47d6f3",
					"fund()": "b60d4288",
					"funders(uint256)": "dc0d3dff",
					"i_owner()": "dba6335f",
					"withdraw()": "3ccfd60b"
				}
			},
			"storageLayout": {
				"storage": [
					{
						"astId": 57,
						"contract": "FundMe.sol:FundMe",
						"label": "MIN_USD",
						"offset": 0,
						"slot": "0",
						"type": "t_uint256"
					},
					{
						"astId": 60,
						"contract": "FundMe.sol:FundMe",
						"label": "funders",
						"offset": 0,
						"slot": "1",
						"type": "t_array(t_address)dyn_storage"
					},
					{
						"astId": 64,
						"contract": "FundMe.sol:FundMe",
						"label": "addressToAmountFunded",
						"offset": 0,
						"slot": "2",
						"type": "t_mapping(t_address,t_uint256)"
					}
				],
				"types": {
					"t_address": {
						"encoding": "inplace",
						"label": "address",
						"numberOfBytes": "20"
					},
					"t_array(t_address)dyn_storage": {
						"base": "t_address",
						"encoding": "dynamic_array",
						"label": "address[]",
						"numberOfBytes": "32"
					},
					"t_mapping(t_address,t_uint256)": {
						"encoding": "mapping",
						"key": "t_address",
						"label": "mapping(address => uint256)",
						"numberOfBytes": "32",
						"value": "t_uint256"
					},
					"t_uint256": {
						"encoding": "inplace",
						"label": "uint256",
						"numberOfBytes": "32"
					}
				}
			},
			"userdoc": {
				"kind": "user",
				"methods": {},
				"version": 1
			}
		}
	}
}