{
	"FundMe.sol": {
		"FundMe": {
			"abi": [
				{
					"inputs": [],
					"stateMutability": "nonpayable",
					"type": "constructor"
				},
				{
					"inputs": [
						{
							"internalType": "address",
							"name": "funder",
							"type": "address"
						}
					],
					"name": "addressToAmountFunded",
					"outputs": [
						{
							"internalType": "uint256",
							"name": "amountFunded",
							"type": "uint256"
						}
					],
					"stateMutability": "view",
					"type": "function"
				},
				{
					"inputs": [],
					"name": "fund",
					"outputs": [],
					"stateMutability": "payable",
					"type": "function"
				},
				{
					"inputs": [
						{
							"internalType": "uint256",
							"name": "",
							"type": "uint256"
						}
					],
					"name": "funders",
					"outputs": [
						{
							"internalType": "address",
							"name": "",
							"type": "address"
						}
					],
					"stateMutability": "view",
					"type": "function"
				},
				{
					"inputs": [],
					"name": "minUsd",
					"outputs": [
						{
							"internalType": "uint256",
							"name": "",
							"type": "uint256"
						}
					],
					"stateMutability": "view",
					"type": "function"
				},
				{
					"inputs": [],
					"name": "owner",
					"outputs": [
						{
							"internalType": "address",
							"name": "",
							"type": "address"
						}
					],
					"stateMutability": "view",
					"type": "function"
				},
				{
					"inputs": [],
					"name": "withdraw",
					"outputs": [],
					"stateMutability": "nonpayable",
					"type": "function"
				}
			],
			"devdoc": {
				"kind": "dev",
				"methods": {},
				"version": 1
			},
			"evm": {
				"assembly": "    /* \"FundMe.sol\":231:1611  contract FundMe{... */\n  mstore(0x40, 0x80)\n    /* \"FundMe.sol\":316:320  5e18 */\n  0x4563918244f40000\n    /* \"FundMe.sol\":294:320  uint256 public minUsd=5e18 */\n  0x00\n  sstore\n    /* \"FundMe.sol\":473:522  constructor(){... */\n  callvalue\n  dup1\n  iszero\n  tag_1\n  jumpi\n  0x00\n  dup1\n  revert\ntag_1:\n  pop\n    /* \"FundMe.sol\":503:513  msg.sender */\n  caller\n    /* \"FundMe.sol\":497:502  owner */\n  0x03\n  0x00\n    /* \"FundMe.sol\":497:513  owner=msg.sender */\n  0x0100\n  exp\n  dup2\n  sload\n  dup2\n  0xffffffffffffffffffffffffffffffffffffffff\n  mul\n  not\n  and\n  swap1\n  dup4\n  0xffffffffffffffffffffffffffffffffffffffff\n  and\n  mul\n  or\n  swap1\n  sstore\n  pop\n    /* \"FundMe.sol\":231:1611  contract FundMe{... */\n  dataSize(sub_0)\n  dup1\n  dataOffset(sub_0)\n  0x00\n  codecopy\n  0x00\n  return\nstop\n\nsub_0: assembly {\n        /* \"FundMe.sol\":231:1611  contract FundMe{... */\n      mstore(0x40, 0x80)\n      jumpi(tag_1, lt(calldatasize, 0x04))\n      shr(0xe0, calldataload(0x00))\n      dup1\n      0x3ccfd60b\n      eq\n      tag_2\n      jumpi\n      dup1\n      0x3e47d6f3\n      eq\n      tag_3\n      jumpi\n      dup1\n      0x51b80e41\n      eq\n      tag_4\n      jumpi\n      dup1\n      0x8da5cb5b\n      eq\n      tag_5\n      jumpi\n      dup1\n      0xb60d4288\n      eq\n      tag_6\n      jumpi\n      dup1\n      0xdc0d3dff\n      eq\n      tag_7\n      jumpi\n    tag_1:\n      0x00\n      dup1\n      revert\n        /* \"FundMe.sol\":809:1487  function withdraw() public onlyOwner{... */\n    tag_2:\n      callvalue\n      dup1\n      iszero\n      tag_8\n      jumpi\n      0x00\n      dup1\n      revert\n    tag_8:\n      pop\n      tag_9\n      tag_10\n      jump\t// in\n    tag_9:\n      stop\n        /* \"FundMe.sol\":360:435  mapping(address funder=> uint256 amountFunded) public addressToAmountFunded */\n    tag_3:\n      callvalue\n      dup1\n      iszero\n      tag_11\n      jumpi\n      0x00\n      dup1\n      revert\n    tag_11:\n      pop\n      tag_12\n      0x04\n      dup1\n      calldatasize\n      sub\n      dup2\n      add\n      swap1\n      tag_13\n      swap2\n      swap1\n      tag_14\n      jump\t// in\n    tag_13:\n      tag_15\n      jump\t// in\n    tag_12:\n      mload(0x40)\n      tag_16\n      swap2\n      swap1\n      tag_17\n      jump\t// in\n    tag_16:\n      mload(0x40)\n      dup1\n      swap2\n      sub\n      swap1\n      return\n        /* \"FundMe.sol\":294:320  uint256 public minUsd=5e18 */\n    tag_4:\n      callvalue\n      dup1\n      iszero\n      tag_18\n      jumpi\n      0x00\n      dup1\n      revert\n    tag_18:\n      pop\n      tag_19\n      tag_20\n      jump\t// in\n    tag_19:\n      mload(0x40)\n      tag_21\n      swap2\n      swap1\n      tag_17\n      jump\t// in\n    tag_21:\n      mload(0x40)\n      dup1\n      swap2\n      sub\n      swap1\n      return\n        /* \"FundMe.sol\":443:463  address public owner */\n    tag_5:\n      callvalue\n      dup1\n      iszero\n      tag_22\n      jumpi\n      0x00\n      dup1\n      revert\n    tag_22:\n      pop\n      tag_23\n      tag_24\n      jump\t// in\n    tag_23:\n      mload(0x40)\n      tag_25\n      swap2\n      swap1\n      tag_26\n      jump\t// in\n    tag_25:\n      mload(0x40)\n      dup1\n      swap2\n      sub\n      swap1\n      return\n        /* \"FundMe.sol\":530:801  function fund() public payable {... */\n    tag_6:\n      tag_27\n      tag_28\n      jump\t// in\n    tag_27:\n      stop\n        /* \"FundMe.sol\":328:352  address[] public funders */\n    tag_7:\n      callvalue\n      dup1\n      iszero\n      tag_29\n      jumpi\n      0x00\n      dup1\n      revert\n    tag_29:\n      pop\n      tag_30\n      0x04\n      dup1\n      calldatasize\n      sub\n      dup2\n      add\n      swap1\n      tag_31\n      swap2\n      swap1\n      tag_32\n      jump\t// in\n    tag_31:\n      tag_33\n      jump\t// in\n    tag_30:\n      mload(0x40)\n      tag_34\n      swap2\n      swap1\n      tag_26\n      jump\t// in\n    tag_34:\n      mload(0x40)\n      dup1\n      swap2\n      sub\n      swap1\n      return\n        /* \"FundMe.sol\":809:1487  function withdraw() public onlyOwner{... */\n    tag_10:\n        /* \"FundMe.sol\":1546:1551  owner */\n      0x03\n      0x00\n      swap1\n      sload\n      swap1\n      0x0100\n      exp\n      swap1\n      div\n      0xffffffffffffffffffffffffffffffffffffffff\n      and\n        /* \"FundMe.sol\":1534:1551  msg.sender==owner */\n      0xffffffffffffffffffffffffffffffffffffffff\n      and\n        /* \"FundMe.sol\":1534:1544  msg.sender */\n      caller\n        /* \"FundMe.sol\":1534:1551  msg.sender==owner */\n      0xffffffffffffffffffffffffffffffffffffffff\n      and\n      eq\n        /* \"FundMe.sol\":1526:1588  require(msg.sender==owner,\"only owner can call this function\") */\n      tag_36\n      jumpi\n      mload(0x40)\n      0x08c379a000000000000000000000000000000000000000000000000000000000\n      dup2\n      mstore\n      0x04\n      add\n      tag_37\n      swap1\n      tag_38\n      jump\t// in\n    tag_37:\n      mload(0x40)\n      dup1\n      swap2\n      sub\n      swap1\n      revert\n    tag_36:\n        /* \"FundMe.sol\":861:880  uint256 funderIndex */\n      0x00\n        /* \"FundMe.sol\":856:1043  for (uint256 funderIndex = 0; funderIndex < funders.length; funderIndex++) {... */\n    tag_40:\n        /* \"FundMe.sol\":900:907  funders */\n      0x01\n        /* \"FundMe.sol\":900:914  funders.length */\n      dup1\n      sload\n      swap1\n      pop\n        /* \"FundMe.sol\":886:897  funderIndex */\n      dup2\n        /* \"FundMe.sol\":886:914  funderIndex < funders.length */\n      lt\n        /* \"FundMe.sol\":856:1043  for (uint256 funderIndex = 0; funderIndex < funders.length; funderIndex++) {... */\n      iszero\n      tag_41\n      jumpi\n        /* \"FundMe.sol\":946:960  address funder */\n      0x00\n        /* \"FundMe.sol\":963:970  funders */\n      0x01\n        /* \"FundMe.sol\":971:982  funderIndex */\n      dup3\n        /* \"FundMe.sol\":963:983  funders[funderIndex] */\n      dup2\n      sload\n      dup2\n      lt\n      tag_43\n      jumpi\n      tag_44\n      tag_45\n      jump\t// in\n    tag_44:\n    tag_43:\n      swap1\n      0x00\n      mstore\n      keccak256(0x00, 0x20)\n      add\n      0x00\n      swap1\n      sload\n      swap1\n      0x0100\n      exp\n      swap1\n      div\n      0xffffffffffffffffffffffffffffffffffffffff\n      and\n        /* \"FundMe.sol\":946:983  address funder = funders[funderIndex] */\n      swap1\n      pop\n        /* \"FundMe.sol\":1030:1031  0 */\n      0x00\n        /* \"FundMe.sol\":998:1019  addressToAmountFunded */\n      0x02\n        /* \"FundMe.sol\":998:1027  addressToAmountFunded[funder] */\n      0x00\n        /* \"FundMe.sol\":1020:1026  funder */\n      dup4\n        /* \"FundMe.sol\":998:1027  addressToAmountFunded[funder] */\n      0xffffffffffffffffffffffffffffffffffffffff\n      and\n      0xffffffffffffffffffffffffffffffffffffffff\n      and\n      dup2\n      mstore\n      0x20\n      add\n      swap1\n      dup2\n      mstore\n      0x20\n      add\n      0x00\n      keccak256\n        /* \"FundMe.sol\":998:1031  addressToAmountFunded[funder] = 0 */\n      dup2\n      swap1\n      sstore\n      pop\n        /* \"FundMe.sol\":931:1043  {... */\n      pop\n        /* \"FundMe.sol\":916:929  funderIndex++ */\n      dup1\n      dup1\n      tag_47\n      swap1\n      tag_48\n      jump\t// in\n    tag_47:\n      swap2\n      pop\n      pop\n        /* \"FundMe.sol\":856:1043  for (uint256 funderIndex = 0; funderIndex < funders.length; funderIndex++) {... */\n      jump(tag_40)\n    tag_41:\n      pop\n        /* \"FundMe.sol\":1077:1078  0 */\n      0x00\n        /* \"FundMe.sol\":1063:1079  new address[](0) */\n      0xffffffffffffffff\n      dup2\n      gt\n      iszero\n      tag_49\n      jumpi\n      tag_50\n      tag_51\n      jump\t// in\n    tag_50:\n    tag_49:\n      mload(0x40)\n      swap1\n      dup1\n      dup3\n      mstore\n      dup1\n      0x20\n      mul\n      0x20\n      add\n      dup3\n      add\n      0x40\n      mstore\n      dup1\n      iszero\n      tag_52\n      jumpi\n      dup2\n      0x20\n      add\n      0x20\n      dup3\n      mul\n      dup1\n      calldatasize\n      dup4\n      calldatacopy\n      dup1\n      dup3\n      add\n      swap2\n      pop\n      pop\n      swap1\n      pop\n    tag_52:\n      pop\n        /* \"FundMe.sol\":1053:1060  funders */\n      0x01\n        /* \"FundMe.sol\":1053:1079  funders = new address[](0) */\n      swap1\n      dup1\n      mload\n      swap1\n      0x20\n      add\n      swap1\n      tag_53\n      swap3\n      swap2\n      swap1\n      tag_54\n      jump\t// in\n    tag_53:\n      pop\n        /* \"FundMe.sol\":1350:1366  bool callSuccess */\n      0x00\n        /* \"FundMe.sol\":1379:1389  msg.sender */\n      caller\n        /* \"FundMe.sol\":1371:1395  payable(msg.sender).call */\n      0xffffffffffffffffffffffffffffffffffffffff\n      and\n        /* \"FundMe.sol\":1403:1424  address(this).balance */\n      selfbalance\n        /* \"FundMe.sol\":1371:1429  payable(msg.sender).call{value: address(this).balance}(\"\") */\n      mload(0x40)\n      tag_55\n      swap1\n      tag_56\n      jump\t// in\n    tag_55:\n      0x00\n      mload(0x40)\n      dup1\n      dup4\n      sub\n      dup2\n      dup6\n      dup8\n      gas\n      call\n      swap3\n      pop\n      pop\n      pop\n      returndatasize\n      dup1\n      0x00\n      dup2\n      eq\n      tag_59\n      jumpi\n      mload(0x40)\n      swap2\n      pop\n      and(add(returndatasize, 0x3f), not(0x1f))\n      dup3\n      add\n      0x40\n      mstore\n      returndatasize\n      dup3\n      mstore\n      returndatasize\n      0x00\n      0x20\n      dup5\n      add\n      returndatacopy\n      jump(tag_58)\n    tag_59:\n      0x60\n      swap2\n      pop\n    tag_58:\n      pop\n        /* \"FundMe.sol\":1349:1429  (bool callSuccess,) = payable(msg.sender).call{value: address(this).balance}(\"\") */\n      pop\n      swap1\n      pop\n        /* \"FundMe.sol\":1448:1459  callSuccess */\n      dup1\n        /* \"FundMe.sol\":1440:1475  require(callSuccess, \"Call failed\") */\n      tag_60\n      jumpi\n      mload(0x40)\n      0x08c379a000000000000000000000000000000000000000000000000000000000\n      dup2\n      mstore\n      0x04\n      add\n      tag_61\n      swap1\n      tag_62\n      jump\t// in\n    tag_61:\n      mload(0x40)\n      dup1\n      swap2\n      sub\n      swap1\n      revert\n    tag_60:\n        /* \"FundMe.sol\":845:1487  {... */\n      pop\n        /* \"FundMe.sol\":809:1487  function withdraw() public onlyOwner{... */\n      jump\t// out\n        /* \"FundMe.sol\":360:435  mapping(address funder=> uint256 amountFunded) public addressToAmountFunded */\n    tag_15:\n      mstore(0x20, 0x02)\n      dup1\n      0x00\n      mstore\n      keccak256(0x00, 0x40)\n      0x00\n      swap2\n      pop\n      swap1\n      pop\n      sload\n      dup2\n      jump\t// out\n        /* \"FundMe.sol\":294:320  uint256 public minUsd=5e18 */\n    tag_20:\n      sload(0x00)\n      dup2\n      jump\t// out\n        /* \"FundMe.sol\":443:463  address public owner */\n    tag_24:\n      0x03\n      0x00\n      swap1\n      sload\n      swap1\n      0x0100\n      exp\n      swap1\n      div\n      0xffffffffffffffffffffffffffffffffffffffff\n      and\n      dup2\n      jump\t// out\n        /* \"FundMe.sol\":530:801  function fund() public payable {... */\n    tag_28:\n        /* \"FundMe.sol\":613:619  minUsd */\n      sload(0x00)\n        /* \"FundMe.sol\":580:609  msg.value.getConversionRate() */\n      tag_64\n        /* \"FundMe.sol\":580:589  msg.value */\n      callvalue\n        /* \"FundMe.sol\":580:607  msg.value.getConversionRate */\n      tag_65\n        /* \"FundMe.sol\":580:609  msg.value.getConversionRate() */\n      jump\t// in\n    tag_64:\n        /* \"FundMe.sol\":580:619  msg.value.getConversionRate() >= minUsd */\n      lt\n      iszero\n        /* \"FundMe.sol\":572:645  require(msg.value.getConversionRate() >= minUsd,\"Didn't send enoght ETH\") */\n      tag_66\n      jumpi\n      mload(0x40)\n      0x08c379a000000000000000000000000000000000000000000000000000000000\n      dup2\n      mstore\n      0x04\n      add\n      tag_67\n      swap1\n      tag_68\n      jump\t// in\n    tag_67:\n      mload(0x40)\n      dup1\n      swap2\n      sub\n      swap1\n      revert\n    tag_66:\n        /* \"FundMe.sol\":679:686  funders */\n      0x01\n        /* \"FundMe.sol\":692:702  msg.sender */\n      caller\n        /* \"FundMe.sol\":679:703  funders.push(msg.sender) */\n      swap1\n      dup1\n      0x01\n      dup2\n      sload\n      add\n      dup1\n      dup3\n      sstore\n      dup1\n      swap2\n      pop\n      pop\n      0x01\n      swap1\n      sub\n      swap1\n      0x00\n      mstore\n      keccak256(0x00, 0x20)\n      add\n      0x00\n      swap1\n      swap2\n      swap1\n      swap2\n      swap1\n      swap2\n      0x0100\n      exp\n      dup2\n      sload\n      dup2\n      0xffffffffffffffffffffffffffffffffffffffff\n      mul\n      not\n      and\n      swap1\n      dup4\n      0xffffffffffffffffffffffffffffffffffffffff\n      and\n      mul\n      or\n      swap1\n      sstore\n      pop\n        /* \"FundMe.sol\":784:793  msg.value */\n      callvalue\n        /* \"FundMe.sol\":748:769  addressToAmountFunded */\n      0x02\n        /* \"FundMe.sol\":748:781  addressToAmountFunded[msg.sender] */\n      0x00\n        /* \"FundMe.sol\":770:780  msg.sender */\n      caller\n        /* \"FundMe.sol\":748:781  addressToAmountFunded[msg.sender] */\n      0xffffffffffffffffffffffffffffffffffffffff\n      and\n      0xffffffffffffffffffffffffffffffffffffffff\n      and\n      dup2\n      mstore\n      0x20\n      add\n      swap1\n      dup2\n      mstore\n      0x20\n      add\n      0x00\n      keccak256\n      sload\n        /* \"FundMe.sol\":748:793  addressToAmountFunded[msg.sender] + msg.value */\n      tag_70\n      swap2\n      swap1\n      tag_71\n      jump\t// in\n    tag_70:\n        /* \"FundMe.sol\":714:735  addressToAmountFunded */\n      0x02\n        /* \"FundMe.sol\":714:747  addressToAmountFunded[msg.sender] */\n      0x00\n        /* \"FundMe.sol\":736:746  msg.sender */\n      caller\n        /* \"FundMe.sol\":714:747  addressToAmountFunded[msg.sender] */\n      0xffffffffffffffffffffffffffffffffffffffff\n      and\n      0xffffffffffffffffffffffffffffffffffffffff\n      and\n      dup2\n      mstore\n      0x20\n      add\n      swap1\n      dup2\n      mstore\n      0x20\n      add\n      0x00\n      keccak256\n        /* \"FundMe.sol\":714:793  addressToAmountFunded[msg.sender]=addressToAmountFunded[msg.sender] + msg.value */\n      dup2\n      swap1\n      sstore\n      pop\n        /* \"FundMe.sol\":530:801  function fund() public payable {... */\n      jump\t// out\n        /* \"FundMe.sol\":328:352  address[] public funders */\n    tag_33:\n      0x01\n      dup2\n      dup2\n      sload\n      dup2\n      lt\n      tag_72\n      jumpi\n      0x00\n      dup1\n      revert\n    tag_72:\n      swap1\n      0x00\n      mstore\n      keccak256(0x00, 0x20)\n      add\n      0x00\n      swap2\n      pop\n      sload\n      swap1\n      0x0100\n      exp\n      swap1\n      div\n      0xffffffffffffffffffffffffffffffffffffffff\n      and\n      dup2\n      jump\t// out\n        /* \"PriceConverter.sol\":751:1067  function getConversionRate(uint256 ethAmount) internal view returns (uint256) {... */\n    tag_65:\n        /* \"PriceConverter.sol\":820:827  uint256 */\n      0x00\n        /* \"PriceConverter.sol\":840:856  uint256 ethPrice */\n      dup1\n        /* \"PriceConverter.sol\":859:869  getPrice() */\n      tag_75\n        /* \"PriceConverter.sol\":859:867  getPrice */\n      tag_76\n        /* \"PriceConverter.sol\":859:869  getPrice() */\n      jump\t// in\n    tag_75:\n        /* \"PriceConverter.sol\":840:869  uint256 ethPrice = getPrice() */\n      swap1\n      pop\n        /* \"PriceConverter.sol\":880:902  uint256 ethAmountInUsd */\n      0x00\n        /* \"PriceConverter.sol\":930:949  1000000000000000000 */\n      0x0de0b6b3a7640000\n        /* \"PriceConverter.sol\":917:926  ethAmount */\n      dup5\n        /* \"PriceConverter.sol\":906:914  ethPrice */\n      dup4\n        /* \"PriceConverter.sol\":906:926  ethPrice * ethAmount */\n      tag_77\n      swap2\n      swap1\n      tag_78\n      jump\t// in\n    tag_77:\n        /* \"PriceConverter.sol\":905:949  (ethPrice * ethAmount) / 1000000000000000000 */\n      tag_79\n      swap2\n      swap1\n      tag_80\n      jump\t// in\n    tag_79:\n        /* \"PriceConverter.sol\":880:949  uint256 ethAmountInUsd = (ethPrice * ethAmount) / 1000000000000000000 */\n      swap1\n      pop\n        /* \"PriceConverter.sol\":1045:1059  ethAmountInUsd */\n      dup1\n        /* \"PriceConverter.sol\":1038:1059  return ethAmountInUsd */\n      swap3\n      pop\n      pop\n      pop\n        /* \"PriceConverter.sol\":751:1067  function getConversionRate(uint256 ethAmount) internal view returns (uint256) {... */\n      swap2\n      swap1\n      pop\n      jump\t// out\n        /* \"PriceConverter.sol\":275:724  function getPrice() internal view returns (uint256) {... */\n    tag_76:\n        /* \"PriceConverter.sol\":318:325  uint256 */\n      0x00\n        /* \"PriceConverter.sol\":445:476  AggregatorV3Interface priceFeed */\n      dup1\n        /* \"PriceConverter.sol\":515:557  0x694AA1769357215DE4FAC081bf1f309aDC325306 */\n      0x694aa1769357215de4fac081bf1f309adc325306\n        /* \"PriceConverter.sol\":445:568  AggregatorV3Interface priceFeed = AggregatorV3Interface(... */\n      swap1\n      pop\n        /* \"PriceConverter.sol\":582:595  int256 answer */\n      0x00\n        /* \"PriceConverter.sol\":605:614  priceFeed */\n      dup2\n        /* \"PriceConverter.sol\":605:630  priceFeed.latestRoundData */\n      0xffffffffffffffffffffffffffffffffffffffff\n      and\n      0xfeaf968c\n        /* \"PriceConverter.sol\":605:632  priceFeed.latestRoundData() */\n      mload(0x40)\n      dup2\n      0xffffffff\n      and\n      0xe0\n      shl\n      dup2\n      mstore\n      0x04\n      add\n      0xa0\n      mload(0x40)\n      dup1\n      dup4\n      sub\n      dup2\n      dup7\n      gas\n      staticcall\n      iszero\n      dup1\n      iszero\n      tag_83\n      jumpi\n      returndatasize\n      0x00\n      dup1\n      returndatacopy\n      revert(0x00, returndatasize)\n    tag_83:\n      pop\n      pop\n      pop\n      pop\n      mload(0x40)\n      returndatasize\n      not(0x1f)\n      0x1f\n      dup3\n      add\n      and\n      dup3\n      add\n      dup1\n      0x40\n      mstore\n      pop\n      dup2\n      add\n      swap1\n      tag_84\n      swap2\n      swap1\n      tag_85\n      jump\t// in\n    tag_84:\n        /* \"PriceConverter.sol\":579:632  (, int256 answer, , , ) = priceFeed.latestRoundData() */\n      pop\n      pop\n      pop\n      swap2\n      pop\n      pop\n        /* \"PriceConverter.sol\":704:715  10000000000 */\n      0x02540be400\n        /* \"PriceConverter.sol\":695:701  answer */\n      dup2\n        /* \"PriceConverter.sol\":695:715  answer * 10000000000 */\n      tag_86\n      swap2\n      swap1\n      tag_87\n      jump\t// in\n    tag_86:\n        /* \"PriceConverter.sol\":680:716  return uint256(answer * 10000000000) */\n      swap3\n      pop\n      pop\n      pop\n        /* \"PriceConverter.sol\":275:724  function getPrice() internal view returns (uint256) {... */\n      swap1\n      jump\t// out\n    tag_54:\n      dup3\n      dup1\n      sload\n      dup3\n      dup3\n      sstore\n      swap1\n      0x00\n      mstore\n      keccak256(0x00, 0x20)\n      swap1\n      dup2\n      add\n      swap3\n      dup3\n      iszero\n      tag_88\n      jumpi\n      swap2\n      0x20\n      mul\n      dup3\n      add\n    tag_89:\n      dup3\n      dup2\n      gt\n      iszero\n      tag_90\n      jumpi\n      dup3\n      mload\n      dup3\n      exp(0x0100, 0x00)\n      dup2\n      sload\n      dup2\n      0xffffffffffffffffffffffffffffffffffffffff\n      mul\n      not\n      and\n      swap1\n      dup4\n      0xffffffffffffffffffffffffffffffffffffffff\n      and\n      mul\n      or\n      swap1\n      sstore\n      pop\n      swap2\n      0x20\n      add\n      swap2\n      swap1\n      0x01\n      add\n      swap1\n      jump(tag_89)\n    tag_90:\n    tag_88:\n      pop\n      swap1\n      pop\n      tag_91\n      swap2\n      swap1\n      tag_92\n      jump\t// in\n    tag_91:\n      pop\n      swap1\n      jump\t// out\n    tag_92:\n    tag_93:\n      dup1\n      dup3\n      gt\n      iszero\n      tag_94\n      jumpi\n      0x00\n      dup2\n      0x00\n      swap1\n      sstore\n      pop\n      0x01\n      add\n      jump(tag_93)\n    tag_94:\n      pop\n      swap1\n      jump\t// out\n        /* \"#utility.yul\":88:205   */\n    tag_96:\n        /* \"#utility.yul\":197:198   */\n      0x00\n        /* \"#utility.yul\":194:195   */\n      dup1\n        /* \"#utility.yul\":187:199   */\n      revert\n        /* \"#utility.yul\":334:460   */\n    tag_98:\n        /* \"#utility.yul\":371:378   */\n      0x00\n        /* \"#utility.yul\":411:453   */\n      0xffffffffffffffffffffffffffffffffffffffff\n        /* \"#utility.yul\":404:409   */\n      dup3\n        /* \"#utility.yul\":400:454   */\n      and\n        /* \"#utility.yul\":389:454   */\n      swap1\n      pop\n        /* \"#utility.yul\":334:460   */\n      swap2\n      swap1\n      pop\n      jump\t// out\n        /* \"#utility.yul\":466:562   */\n    tag_99:\n        /* \"#utility.yul\":503:510   */\n      0x00\n        /* \"#utility.yul\":532:556   */\n      tag_132\n        /* \"#utility.yul\":550:555   */\n      dup3\n        /* \"#utility.yul\":532:556   */\n      tag_98\n      jump\t// in\n    tag_132:\n        /* \"#utility.yul\":521:556   */\n      swap1\n      pop\n        /* \"#utility.yul\":466:562   */\n      swap2\n      swap1\n      pop\n      jump\t// out\n        /* \"#utility.yul\":568:690   */\n    tag_100:\n        /* \"#utility.yul\":641:665   */\n      tag_134\n        /* \"#utility.yul\":659:664   */\n      dup2\n        /* \"#utility.yul\":641:665   */\n      tag_99\n      jump\t// in\n    tag_134:\n        /* \"#utility.yul\":634:639   */\n      dup2\n        /* \"#utility.yul\":631:666   */\n      eq\n        /* \"#utility.yul\":621:684   */\n      tag_135\n      jumpi\n        /* \"#utility.yul\":680:681   */\n      0x00\n        /* \"#utility.yul\":677:678   */\n      dup1\n        /* \"#utility.yul\":670:682   */\n      revert\n        /* \"#utility.yul\":621:684   */\n    tag_135:\n        /* \"#utility.yul\":568:690   */\n      pop\n      jump\t// out\n        /* \"#utility.yul\":696:835   */\n    tag_101:\n        /* \"#utility.yul\":742:747   */\n      0x00\n        /* \"#utility.yul\":780:786   */\n      dup2\n        /* \"#utility.yul\":767:787   */\n      calldataload\n        /* \"#utility.yul\":758:787   */\n      swap1\n      pop\n        /* \"#utility.yul\":796:829   */\n      tag_137\n        /* \"#utility.yul\":823:828   */\n      dup2\n        /* \"#utility.yul\":796:829   */\n      tag_100\n      jump\t// in\n    tag_137:\n        /* \"#utility.yul\":696:835   */\n      swap3\n      swap2\n      pop\n      pop\n      jump\t// out\n        /* \"#utility.yul\":841:1170   */\n    tag_14:\n        /* \"#utility.yul\":900:906   */\n      0x00\n        /* \"#utility.yul\":949:951   */\n      0x20\n        /* \"#utility.yul\":937:946   */\n      dup3\n        /* \"#utility.yul\":928:935   */\n      dup5\n        /* \"#utility.yul\":924:947   */\n      sub\n        /* \"#utility.yul\":920:952   */\n      slt\n        /* \"#utility.yul\":917:1036   */\n      iszero\n      tag_139\n      jumpi\n        /* \"#utility.yul\":955:1034   */\n      tag_140\n      tag_96\n      jump\t// in\n    tag_140:\n        /* \"#utility.yul\":917:1036   */\n    tag_139:\n        /* \"#utility.yul\":1075:1076   */\n      0x00\n        /* \"#utility.yul\":1100:1153   */\n      tag_141\n        /* \"#utility.yul\":1145:1152   */\n      dup5\n        /* \"#utility.yul\":1136:1142   */\n      dup3\n        /* \"#utility.yul\":1125:1134   */\n      dup6\n        /* \"#utility.yul\":1121:1143   */\n      add\n        /* \"#utility.yul\":1100:1153   */\n      tag_101\n      jump\t// in\n    tag_141:\n        /* \"#utility.yul\":1090:1153   */\n      swap2\n      pop\n        /* \"#utility.yul\":1046:1163   */\n      pop\n        /* \"#utility.yul\":841:1170   */\n      swap3\n      swap2\n      pop\n      pop\n      jump\t// out\n        /* \"#utility.yul\":1176:1253   */\n    tag_102:\n        /* \"#utility.yul\":1213:1220   */\n      0x00\n        /* \"#utility.yul\":1242:1247   */\n      dup2\n        /* \"#utility.yul\":1231:1247   */\n      swap1\n      pop\n        /* \"#utility.yul\":1176:1253   */\n      swap2\n      swap1\n      pop\n      jump\t// out\n        /* \"#utility.yul\":1259:1377   */\n    tag_103:\n        /* \"#utility.yul\":1346:1370   */\n      tag_144\n        /* \"#utility.yul\":1364:1369   */\n      dup2\n        /* \"#utility.yul\":1346:1370   */\n      tag_102\n      jump\t// in\n    tag_144:\n        /* \"#utility.yul\":1341:1344   */\n      dup3\n        /* \"#utility.yul\":1334:1371   */\n      mstore\n        /* \"#utility.yul\":1259:1377   */\n      pop\n      pop\n      jump\t// out\n        /* \"#utility.yul\":1383:1605   */\n    tag_17:\n        /* \"#utility.yul\":1476:1480   */\n      0x00\n        /* \"#utility.yul\":1514:1516   */\n      0x20\n        /* \"#utility.yul\":1503:1512   */\n      dup3\n        /* \"#utility.yul\":1499:1517   */\n      add\n        /* \"#utility.yul\":1491:1517   */\n      swap1\n      pop\n        /* \"#utility.yul\":1527:1598   */\n      tag_146\n        /* \"#utility.yul\":1595:1596   */\n      0x00\n        /* \"#utility.yul\":1584:1593   */\n      dup4\n        /* \"#utility.yul\":1580:1597   */\n      add\n        /* \"#utility.yul\":1571:1577   */\n      dup5\n        /* \"#utility.yul\":1527:1598   */\n      tag_103\n      jump\t// in\n    tag_146:\n        /* \"#utility.yul\":1383:1605   */\n      swap3\n      swap2\n      pop\n      pop\n      jump\t// out\n        /* \"#utility.yul\":1611:1729   */\n    tag_104:\n        /* \"#utility.yul\":1698:1722   */\n      tag_148\n        /* \"#utility.yul\":1716:1721   */\n      dup2\n        /* \"#utility.yul\":1698:1722   */\n      tag_99\n      jump\t// in\n    tag_148:\n        /* \"#utility.yul\":1693:1696   */\n      dup3\n        /* \"#utility.yul\":1686:1723   */\n      mstore\n        /* \"#utility.yul\":1611:1729   */\n      pop\n      pop\n      jump\t// out\n        /* \"#utility.yul\":1735:1957   */\n    tag_26:\n        /* \"#utility.yul\":1828:1832   */\n      0x00\n        /* \"#utility.yul\":1866:1868   */\n      0x20\n        /* \"#utility.yul\":1855:1864   */\n      dup3\n        /* \"#utility.yul\":1851:1869   */\n      add\n        /* \"#utility.yul\":1843:1869   */\n      swap1\n      pop\n        /* \"#utility.yul\":1879:1950   */\n      tag_150\n        /* \"#utility.yul\":1947:1948   */\n      0x00\n        /* \"#utility.yul\":1936:1945   */\n      dup4\n        /* \"#utility.yul\":1932:1949   */\n      add\n        /* \"#utility.yul\":1923:1929   */\n      dup5\n        /* \"#utility.yul\":1879:1950   */\n      tag_104\n      jump\t// in\n    tag_150:\n        /* \"#utility.yul\":1735:1957   */\n      swap3\n      swap2\n      pop\n      pop\n      jump\t// out\n        /* \"#utility.yul\":1963:2085   */\n    tag_105:\n        /* \"#utility.yul\":2036:2060   */\n      tag_152\n        /* \"#utility.yul\":2054:2059   */\n      dup2\n        /* \"#utility.yul\":2036:2060   */\n      tag_102\n      jump\t// in\n    tag_152:\n        /* \"#utility.yul\":2029:2034   */\n      dup2\n        /* \"#utility.yul\":2026:2061   */\n      eq\n        /* \"#utility.yul\":2016:2079   */\n      tag_153\n      jumpi\n        /* \"#utility.yul\":2075:2076   */\n      0x00\n        /* \"#utility.yul\":2072:2073   */\n      dup1\n        /* \"#utility.yul\":2065:2077   */\n      revert\n        /* \"#utility.yul\":2016:2079   */\n    tag_153:\n        /* \"#utility.yul\":1963:2085   */\n      pop\n      jump\t// out\n        /* \"#utility.yul\":2091:2230   */\n    tag_106:\n        /* \"#utility.yul\":2137:2142   */\n      0x00\n        /* \"#utility.yul\":2175:2181   */\n      dup2\n        /* \"#utility.yul\":2162:2182   */\n      calldataload\n        /* \"#utility.yul\":2153:2182   */\n      swap1\n      pop\n        /* \"#utility.yul\":2191:2224   */\n      tag_155\n        /* \"#utility.yul\":2218:2223   */\n      dup2\n        /* \"#utility.yul\":2191:2224   */\n      tag_105\n      jump\t// in\n    tag_155:\n        /* \"#utility.yul\":2091:2230   */\n      swap3\n      swap2\n      pop\n      pop\n      jump\t// out\n        /* \"#utility.yul\":2236:2565   */\n    tag_32:\n        /* \"#utility.yul\":2295:2301   */\n      0x00\n        /* \"#utility.yul\":2344:2346   */\n      0x20\n        /* \"#utility.yul\":2332:2341   */\n      dup3\n        /* \"#utility.yul\":2323:2330   */\n      dup5\n        /* \"#utility.yul\":2319:2342   */\n      sub\n        /* \"#utility.yul\":2315:2347   */\n      slt\n        /* \"#utility.yul\":2312:2431   */\n      iszero\n      tag_157\n      jumpi\n        /* \"#utility.yul\":2350:2429   */\n      tag_158\n      tag_96\n      jump\t// in\n    tag_158:\n        /* \"#utility.yul\":2312:2431   */\n    tag_157:\n        /* \"#utility.yul\":2470:2471   */\n      0x00\n        /* \"#utility.yul\":2495:2548   */\n      tag_159\n        /* \"#utility.yul\":2540:2547   */\n      dup5\n        /* \"#utility.yul\":2531:2537   */\n      dup3\n        /* \"#utility.yul\":2520:2529   */\n      dup6\n        /* \"#utility.yul\":2516:2538   */\n      add\n        /* \"#utility.yul\":2495:2548   */\n      tag_106\n      jump\t// in\n    tag_159:\n        /* \"#utility.yul\":2485:2548   */\n      swap2\n      pop\n        /* \"#utility.yul\":2441:2558   */\n      pop\n        /* \"#utility.yul\":2236:2565   */\n      swap3\n      swap2\n      pop\n      pop\n      jump\t// out\n        /* \"#utility.yul\":2571:2740   */\n    tag_107:\n        /* \"#utility.yul\":2655:2666   */\n      0x00\n        /* \"#utility.yul\":2689:2695   */\n      dup3\n        /* \"#utility.yul\":2684:2687   */\n      dup3\n        /* \"#utility.yul\":2677:2696   */\n      mstore\n        /* \"#utility.yul\":2729:2733   */\n      0x20\n        /* \"#utility.yul\":2724:2727   */\n      dup3\n        /* \"#utility.yul\":2720:2734   */\n      add\n        /* \"#utility.yul\":2705:2734   */\n      swap1\n      pop\n        /* \"#utility.yul\":2571:2740   */\n      swap3\n      swap2\n      pop\n      pop\n      jump\t// out\n        /* \"#utility.yul\":2746:2966   */\n    tag_108:\n        /* \"#utility.yul\":2886:2920   */\n      0x6f6e6c79206f776e65722063616e2063616c6c20746869732066756e6374696f\n        /* \"#utility.yul\":2882:2883   */\n      0x00\n        /* \"#utility.yul\":2874:2880   */\n      dup3\n        /* \"#utility.yul\":2870:2884   */\n      add\n        /* \"#utility.yul\":2863:2921   */\n      mstore\n        /* \"#utility.yul\":2955:2958   */\n      0x6e00000000000000000000000000000000000000000000000000000000000000\n        /* \"#utility.yul\":2950:2952   */\n      0x20\n        /* \"#utility.yul\":2942:2948   */\n      dup3\n        /* \"#utility.yul\":2938:2953   */\n      add\n        /* \"#utility.yul\":2931:2959   */\n      mstore\n        /* \"#utility.yul\":2746:2966   */\n      pop\n      jump\t// out\n        /* \"#utility.yul\":2972:3338   */\n    tag_109:\n        /* \"#utility.yul\":3114:3117   */\n      0x00\n        /* \"#utility.yul\":3135:3202   */\n      tag_163\n        /* \"#utility.yul\":3199:3201   */\n      0x21\n        /* \"#utility.yul\":3194:3197   */\n      dup4\n        /* \"#utility.yul\":3135:3202   */\n      tag_107\n      jump\t// in\n    tag_163:\n        /* \"#utility.yul\":3128:3202   */\n      swap2\n      pop\n        /* \"#utility.yul\":3211:3304   */\n      tag_164\n        /* \"#utility.yul\":3300:3303   */\n      dup3\n        /* \"#utility.yul\":3211:3304   */\n      tag_108\n      jump\t// in\n    tag_164:\n        /* \"#utility.yul\":3329:3331   */\n      0x40\n        /* \"#utility.yul\":3324:3327   */\n      dup3\n        /* \"#utility.yul\":3320:3332   */\n      add\n        /* \"#utility.yul\":3313:3332   */\n      swap1\n      pop\n        /* \"#utility.yul\":2972:3338   */\n      swap2\n      swap1\n      pop\n      jump\t// out\n        /* \"#utility.yul\":3344:3763   */\n    tag_38:\n        /* \"#utility.yul\":3510:3514   */\n      0x00\n        /* \"#utility.yul\":3548:3550   */\n      0x20\n        /* \"#utility.yul\":3537:3546   */\n      dup3\n        /* \"#utility.yul\":3533:3551   */\n      add\n        /* \"#utility.yul\":3525:3551   */\n      swap1\n      pop\n        /* \"#utility.yul\":3597:3606   */\n      dup2\n        /* \"#utility.yul\":3591:3595   */\n      dup2\n        /* \"#utility.yul\":3587:3607   */\n      sub\n        /* \"#utility.yul\":3583:3584   */\n      0x00\n        /* \"#utility.yul\":3572:3581   */\n      dup4\n        /* \"#utility.yul\":3568:3585   */\n      add\n        /* \"#utility.yul\":3561:3608   */\n      mstore\n        /* \"#utility.yul\":3625:3756   */\n      tag_166\n        /* \"#utility.yul\":3751:3755   */\n      dup2\n        /* \"#utility.yul\":3625:3756   */\n      tag_109\n      jump\t// in\n    tag_166:\n        /* \"#utility.yul\":3617:3756   */\n      swap1\n      pop\n        /* \"#utility.yul\":3344:3763   */\n      swap2\n      swap1\n      pop\n      jump\t// out\n        /* \"#utility.yul\":3769:3949   */\n    tag_45:\n        /* \"#utility.yul\":3817:3894   */\n      0x4e487b7100000000000000000000000000000000000000000000000000000000\n        /* \"#utility.yul\":3814:3815   */\n      0x00\n        /* \"#utility.yul\":3807:3895   */\n      mstore\n        /* \"#utility.yul\":3914:3918   */\n      0x32\n        /* \"#utility.yul\":3911:3912   */\n      0x04\n        /* \"#utility.yul\":3904:3919   */\n      mstore\n        /* \"#utility.yul\":3938:3942   */\n      0x24\n        /* \"#utility.yul\":3935:3936   */\n      0x00\n        /* \"#utility.yul\":3928:3943   */\n      revert\n        /* \"#utility.yul\":3955:4135   */\n    tag_110:\n        /* \"#utility.yul\":4003:4080   */\n      0x4e487b7100000000000000000000000000000000000000000000000000000000\n        /* \"#utility.yul\":4000:4001   */\n      0x00\n        /* \"#utility.yul\":3993:4081   */\n      mstore\n        /* \"#utility.yul\":4100:4104   */\n      0x11\n        /* \"#utility.yul\":4097:4098   */\n      0x04\n        /* \"#utility.yul\":4090:4105   */\n      mstore\n        /* \"#utility.yul\":4124:4128   */\n      0x24\n        /* \"#utility.yul\":4121:4122   */\n      0x00\n        /* \"#utility.yul\":4114:4129   */\n      revert\n        /* \"#utility.yul\":4141:4374   */\n    tag_48:\n        /* \"#utility.yul\":4180:4183   */\n      0x00\n        /* \"#utility.yul\":4203:4227   */\n      tag_170\n        /* \"#utility.yul\":4221:4226   */\n      dup3\n        /* \"#utility.yul\":4203:4227   */\n      tag_102\n      jump\t// in\n    tag_170:\n        /* \"#utility.yul\":4194:4227   */\n      swap2\n      pop\n        /* \"#utility.yul\":4249:4315   */\n      0xffffffffffffffffffffffffffffffffffffffffffffffffffffffffffffffff\n        /* \"#utility.yul\":4242:4247   */\n      dup3\n        /* \"#utility.yul\":4239:4316   */\n      sub\n        /* \"#utility.yul\":4236:4339   */\n      tag_171\n      jumpi\n        /* \"#utility.yul\":4319:4337   */\n      tag_172\n      tag_110\n      jump\t// in\n    tag_172:\n        /* \"#utility.yul\":4236:4339   */\n    tag_171:\n        /* \"#utility.yul\":4366:4367   */\n      0x01\n        /* \"#utility.yul\":4359:4364   */\n      dup3\n        /* \"#utility.yul\":4355:4368   */\n      add\n        /* \"#utility.yul\":4348:4368   */\n      swap1\n      pop\n        /* \"#utility.yul\":4141:4374   */\n      swap2\n      swap1\n      pop\n      jump\t// out\n        /* \"#utility.yul\":4380:4560   */\n    tag_51:\n        /* \"#utility.yul\":4428:4505   */\n      0x4e487b7100000000000000000000000000000000000000000000000000000000\n        /* \"#utility.yul\":4425:4426   */\n      0x00\n        /* \"#utility.yul\":4418:4506   */\n      mstore\n        /* \"#utility.yul\":4525:4529   */\n      0x41\n        /* \"#utility.yul\":4522:4523   */\n      0x04\n        /* \"#utility.yul\":4515:4530   */\n      mstore\n        /* \"#utility.yul\":4549:4553   */\n      0x24\n        /* \"#utility.yul\":4546:4547   */\n      0x00\n        /* \"#utility.yul\":4539:4554   */\n      revert\n        /* \"#utility.yul\":4566:4713   */\n    tag_111:\n        /* \"#utility.yul\":4667:4678   */\n      0x00\n        /* \"#utility.yul\":4704:4707   */\n      dup2\n        /* \"#utility.yul\":4689:4707   */\n      swap1\n      pop\n        /* \"#utility.yul\":4566:4713   */\n      swap3\n      swap2\n      pop\n      pop\n      jump\t// out\n        /* \"#utility.yul\":4719:4833   */\n    tag_112:\n      pop\n      jump\t// out\n        /* \"#utility.yul\":4839:5237   */\n    tag_113:\n        /* \"#utility.yul\":4998:5001   */\n      0x00\n        /* \"#utility.yul\":5019:5102   */\n      tag_177\n        /* \"#utility.yul\":5100:5101   */\n      0x00\n        /* \"#utility.yul\":5095:5098   */\n      dup4\n        /* \"#utility.yul\":5019:5102   */\n      tag_111\n      jump\t// in\n    tag_177:\n        /* \"#utility.yul\":5012:5102   */\n      swap2\n      pop\n        /* \"#utility.yul\":5111:5204   */\n      tag_178\n        /* \"#utility.yul\":5200:5203   */\n      dup3\n        /* \"#utility.yul\":5111:5204   */\n      tag_112\n      jump\t// in\n    tag_178:\n        /* \"#utility.yul\":5229:5230   */\n      0x00\n        /* \"#utility.yul\":5224:5227   */\n      dup3\n        /* \"#utility.yul\":5220:5231   */\n      add\n        /* \"#utility.yul\":5213:5231   */\n      swap1\n      pop\n        /* \"#utility.yul\":4839:5237   */\n      swap2\n      swap1\n      pop\n      jump\t// out\n        /* \"#utility.yul\":5243:5622   */\n    tag_56:\n        /* \"#utility.yul\":5427:5430   */\n      0x00\n        /* \"#utility.yul\":5449:5596   */\n      tag_180\n        /* \"#utility.yul\":5592:5595   */\n      dup3\n        /* \"#utility.yul\":5449:5596   */\n      tag_113\n      jump\t// in\n    tag_180:\n        /* \"#utility.yul\":5442:5596   */\n      swap2\n      pop\n        /* \"#utility.yul\":5613:5616   */\n      dup2\n        /* \"#utility.yul\":5606:5616   */\n      swap1\n      pop\n        /* \"#utility.yul\":5243:5622   */\n      swap2\n      swap1\n      pop\n      jump\t// out\n        /* \"#utility.yul\":5628:5789   */\n    tag_114:\n        /* \"#utility.yul\":5768:5781   */\n      0x43616c6c206661696c6564000000000000000000000000000000000000000000\n        /* \"#utility.yul\":5764:5765   */\n      0x00\n        /* \"#utility.yul\":5756:5762   */\n      dup3\n        /* \"#utility.yul\":5752:5766   */\n      add\n        /* \"#utility.yul\":5745:5782   */\n      mstore\n        /* \"#utility.yul\":5628:5789   */\n      pop\n      jump\t// out\n        /* \"#utility.yul\":5795:6161   */\n    tag_115:\n        /* \"#utility.yul\":5937:5940   */\n      0x00\n        /* \"#utility.yul\":5958:6025   */\n      tag_183\n        /* \"#utility.yul\":6022:6024   */\n      0x0b\n        /* \"#utility.yul\":6017:6020   */\n      dup4\n        /* \"#utility.yul\":5958:6025   */\n      tag_107\n      jump\t// in\n    tag_183:\n        /* \"#utility.yul\":5951:6025   */\n      swap2\n      pop\n        /* \"#utility.yul\":6034:6127   */\n      tag_184\n        /* \"#utility.yul\":6123:6126   */\n      dup3\n        /* \"#utility.yul\":6034:6127   */\n      tag_114\n      jump\t// in\n    tag_184:\n        /* \"#utility.yul\":6152:6154   */\n      0x20\n        /* \"#utility.yul\":6147:6150   */\n      dup3\n        /* \"#utility.yul\":6143:6155   */\n      add\n        /* \"#utility.yul\":6136:6155   */\n      swap1\n      pop\n        /* \"#utility.yul\":5795:6161   */\n      swap2\n      swap1\n      pop\n      jump\t// out\n        /* \"#utility.yul\":6167:6586   */\n    tag_62:\n        /* \"#utility.yul\":6333:6337   */\n      0x00\n        /* \"#utility.yul\":6371:6373   */\n      0x20\n        /* \"#utility.yul\":6360:6369   */\n      dup3\n        /* \"#utility.yul\":6356:6374   */\n      add\n        /* \"#utility.yul\":6348:6374   */\n      swap1\n      pop\n        /* \"#utility.yul\":6420:6429   */\n      dup2\n        /* \"#utility.yul\":6414:6418   */\n      dup2\n        /* \"#utility.yul\":6410:6430   */\n      sub\n        /* \"#utility.yul\":6406:6407   */\n      0x00\n        /* \"#utility.yul\":6395:6404   */\n      dup4\n        /* \"#utility.yul\":6391:6408   */\n      add\n        /* \"#utility.yul\":6384:6431   */\n      mstore\n        /* \"#utility.yul\":6448:6579   */\n      tag_186\n        /* \"#utility.yul\":6574:6578   */\n      dup2\n        /* \"#utility.yul\":6448:6579   */\n      tag_115\n      jump\t// in\n    tag_186:\n        /* \"#utility.yul\":6440:6579   */\n      swap1\n      pop\n        /* \"#utility.yul\":6167:6586   */\n      swap2\n      swap1\n      pop\n      jump\t// out\n        /* \"#utility.yul\":6592:6764   */\n    tag_116:\n        /* \"#utility.yul\":6732:6756   */\n      0x4469646e27742073656e6420656e6f6768742045544800000000000000000000\n        /* \"#utility.yul\":6728:6729   */\n      0x00\n        /* \"#utility.yul\":6720:6726   */\n      dup3\n        /* \"#utility.yul\":6716:6730   */\n      add\n        /* \"#utility.yul\":6709:6757   */\n      mstore\n        /* \"#utility.yul\":6592:6764   */\n      pop\n      jump\t// out\n        /* \"#utility.yul\":6770:7136   */\n    tag_117:\n        /* \"#utility.yul\":6912:6915   */\n      0x00\n        /* \"#utility.yul\":6933:7000   */\n      tag_189\n        /* \"#utility.yul\":6997:6999   */\n      0x16\n        /* \"#utility.yul\":6992:6995   */\n      dup4\n        /* \"#utility.yul\":6933:7000   */\n      tag_107\n      jump\t// in\n    tag_189:\n        /* \"#utility.yul\":6926:7000   */\n      swap2\n      pop\n        /* \"#utility.yul\":7009:7102   */\n      tag_190\n        /* \"#utility.yul\":7098:7101   */\n      dup3\n        /* \"#utility.yul\":7009:7102   */\n      tag_116\n      jump\t// in\n    tag_190:\n        /* \"#utility.yul\":7127:7129   */\n      0x20\n        /* \"#utility.yul\":7122:7125   */\n      dup3\n        /* \"#utility.yul\":7118:7130   */\n      add\n        /* \"#utility.yul\":7111:7130   */\n      swap1\n      pop\n        /* \"#utility.yul\":6770:7136   */\n      swap2\n      swap1\n      pop\n      jump\t// out\n        /* \"#utility.yul\":7142:7561   */\n    tag_68:\n        /* \"#utility.yul\":7308:7312   */\n      0x00\n        /* \"#utility.yul\":7346:7348   */\n      0x20\n        /* \"#utility.yul\":7335:7344   */\n      dup3\n        /* \"#utility.yul\":7331:7349   */\n      add\n        /* \"#utility.yul\":7323:7349   */\n      swap1\n      pop\n        /* \"#utility.yul\":7395:7404   */\n      dup2\n        /* \"#utility.yul\":7389:7393   */\n      dup2\n        /* \"#utility.yul\":7385:7405   */\n      sub\n        /* \"#utility.yul\":7381:7382   */\n      0x00\n        /* \"#utility.yul\":7370:7379   */\n      dup4\n        /* \"#utility.yul\":7366:7383   */\n      add\n        /* \"#utility.yul\":7359:7406   */\n      mstore\n        /* \"#utility.yul\":7423:7554   */\n      tag_192\n        /* \"#utility.yul\":7549:7553   */\n      dup2\n        /* \"#utility.yul\":7423:7554   */\n      tag_117\n      jump\t// in\n    tag_192:\n        /* \"#utility.yul\":7415:7554   */\n      swap1\n      pop\n        /* \"#utility.yul\":7142:7561   */\n      swap2\n      swap1\n      pop\n      jump\t// out\n        /* \"#utility.yul\":7567:7758   */\n    tag_71:\n        /* \"#utility.yul\":7607:7610   */\n      0x00\n        /* \"#utility.yul\":7626:7646   */\n      tag_194\n        /* \"#utility.yul\":7644:7645   */\n      dup3\n        /* \"#utility.yul\":7626:7646   */\n      tag_102\n      jump\t// in\n    tag_194:\n        /* \"#utility.yul\":7621:7646   */\n      swap2\n      pop\n        /* \"#utility.yul\":7660:7680   */\n      tag_195\n        /* \"#utility.yul\":7678:7679   */\n      dup4\n        /* \"#utility.yul\":7660:7680   */\n      tag_102\n      jump\t// in\n    tag_195:\n        /* \"#utility.yul\":7655:7680   */\n      swap3\n      pop\n        /* \"#utility.yul\":7703:7704   */\n      dup3\n        /* \"#utility.yul\":7700:7701   */\n      dup3\n        /* \"#utility.yul\":7696:7705   */\n      add\n        /* \"#utility.yul\":7689:7705   */\n      swap1\n      pop\n        /* \"#utility.yul\":7724:7727   */\n      dup1\n        /* \"#utility.yul\":7721:7722   */\n      dup3\n        /* \"#utility.yul\":7718:7728   */\n      gt\n        /* \"#utility.yul\":7715:7751   */\n      iszero\n      tag_196\n      jumpi\n        /* \"#utility.yul\":7731:7749   */\n      tag_197\n      tag_110\n      jump\t// in\n    tag_197:\n        /* \"#utility.yul\":7715:7751   */\n    tag_196:\n        /* \"#utility.yul\":7567:7758   */\n      swap3\n      swap2\n      pop\n      pop\n      jump\t// out\n        /* \"#utility.yul\":7764:8174   */\n    tag_78:\n        /* \"#utility.yul\":7804:7811   */\n      0x00\n        /* \"#utility.yul\":7827:7847   */\n      tag_199\n        /* \"#utility.yul\":7845:7846   */\n      dup3\n        /* \"#utility.yul\":7827:7847   */\n      tag_102\n      jump\t// in\n    tag_199:\n        /* \"#utility.yul\":7822:7847   */\n      swap2\n      pop\n        /* \"#utility.yul\":7861:7881   */\n      tag_200\n        /* \"#utility.yul\":7879:7880   */\n      dup4\n        /* \"#utility.yul\":7861:7881   */\n      tag_102\n      jump\t// in\n    tag_200:\n        /* \"#utility.yul\":7856:7881   */\n      swap3\n      pop\n        /* \"#utility.yul\":7916:7917   */\n      dup3\n        /* \"#utility.yul\":7913:7914   */\n      dup3\n        /* \"#utility.yul\":7909:7918   */\n      mul\n        /* \"#utility.yul\":7938:7968   */\n      tag_201\n        /* \"#utility.yul\":7956:7967   */\n      dup2\n        /* \"#utility.yul\":7938:7968   */\n      tag_102\n      jump\t// in\n    tag_201:\n        /* \"#utility.yul\":7927:7968   */\n      swap2\n      pop\n        /* \"#utility.yul\":8117:8118   */\n      dup3\n        /* \"#utility.yul\":8108:8115   */\n      dup3\n        /* \"#utility.yul\":8104:8119   */\n      div\n        /* \"#utility.yul\":8101:8102   */\n      dup5\n        /* \"#utility.yul\":8098:8120   */\n      eq\n        /* \"#utility.yul\":8078:8079   */\n      dup4\n        /* \"#utility.yul\":8071:8080   */\n      iszero\n        /* \"#utility.yul\":8051:8134   */\n      or\n        /* \"#utility.yul\":8028:8167   */\n      tag_202\n      jumpi\n        /* \"#utility.yul\":8147:8165   */\n      tag_203\n      tag_110\n      jump\t// in\n    tag_203:\n        /* \"#utility.yul\":8028:8167   */\n    tag_202:\n        /* \"#utility.yul\":7812:8174   */\n      pop\n        /* \"#utility.yul\":7764:8174   */\n      swap3\n      swap2\n      pop\n      pop\n      jump\t// out\n        /* \"#utility.yul\":8180:8360   */\n    tag_118:\n        /* \"#utility.yul\":8228:8305   */\n      0x4e487b7100000000000000000000000000000000000000000000000000000000\n        /* \"#utility.yul\":8225:8226   */\n      0x00\n        /* \"#utility.yul\":8218:8306   */\n      mstore\n        /* \"#utility.yul\":8325:8329   */\n      0x12\n        /* \"#utility.yul\":8322:8323   */\n      0x04\n        /* \"#utility.yul\":8315:8330   */\n      mstore\n        /* \"#utility.yul\":8349:8353   */\n      0x24\n        /* \"#utility.yul\":8346:8347   */\n      0x00\n        /* \"#utility.yul\":8339:8354   */\n      revert\n        /* \"#utility.yul\":8366:8551   */\n    tag_80:\n        /* \"#utility.yul\":8406:8407   */\n      0x00\n        /* \"#utility.yul\":8423:8443   */\n      tag_206\n        /* \"#utility.yul\":8441:8442   */\n      dup3\n        /* \"#utility.yul\":8423:8443   */\n      tag_102\n      jump\t// in\n    tag_206:\n        /* \"#utility.yul\":8418:8443   */\n      swap2\n      pop\n        /* \"#utility.yul\":8457:8477   */\n      tag_207\n        /* \"#utility.yul\":8475:8476   */\n      dup4\n        /* \"#utility.yul\":8457:8477   */\n      tag_102\n      jump\t// in\n    tag_207:\n        /* \"#utility.yul\":8452:8477   */\n      swap3\n      pop\n        /* \"#utility.yul\":8496:8497   */\n      dup3\n        /* \"#utility.yul\":8486:8521   */\n      tag_208\n      jumpi\n        /* \"#utility.yul\":8501:8519   */\n      tag_209\n      tag_118\n      jump\t// in\n    tag_209:\n        /* \"#utility.yul\":8486:8521   */\n    tag_208:\n        /* \"#utility.yul\":8543:8544   */\n      dup3\n        /* \"#utility.yul\":8540:8541   */\n      dup3\n        /* \"#utility.yul\":8536:8545   */\n      div\n        /* \"#utility.yul\":8531:8545   */\n      swap1\n      pop\n        /* \"#utility.yul\":8366:8551   */\n      swap3\n      swap2\n      pop\n      pop\n      jump\t// out\n        /* \"#utility.yul\":8557:8662   */\n    tag_119:\n        /* \"#utility.yul\":8593:8600   */\n      0x00\n        /* \"#utility.yul\":8633:8655   */\n      0xffffffffffffffffffff\n        /* \"#utility.yul\":8626:8631   */\n      dup3\n        /* \"#utility.yul\":8622:8656   */\n      and\n        /* \"#utility.yul\":8611:8656   */\n      swap1\n      pop\n        /* \"#utility.yul\":8557:8662   */\n      swap2\n      swap1\n      pop\n      jump\t// out\n        /* \"#utility.yul\":8668:8788   */\n    tag_120:\n        /* \"#utility.yul\":8740:8763   */\n      tag_212\n        /* \"#utility.yul\":8757:8762   */\n      dup2\n        /* \"#utility.yul\":8740:8763   */\n      tag_119\n      jump\t// in\n    tag_212:\n        /* \"#utility.yul\":8733:8738   */\n      dup2\n        /* \"#utility.yul\":8730:8764   */\n      eq\n        /* \"#utility.yul\":8720:8782   */\n      tag_213\n      jumpi\n        /* \"#utility.yul\":8778:8779   */\n      0x00\n        /* \"#utility.yul\":8775:8776   */\n      dup1\n        /* \"#utility.yul\":8768:8780   */\n      revert\n        /* \"#utility.yul\":8720:8782   */\n    tag_213:\n        /* \"#utility.yul\":8668:8788   */\n      pop\n      jump\t// out\n        /* \"#utility.yul\":8794:8935   */\n    tag_121:\n        /* \"#utility.yul\":8850:8855   */\n      0x00\n        /* \"#utility.yul\":8881:8887   */\n      dup2\n        /* \"#utility.yul\":8875:8888   */\n      mload\n        /* \"#utility.yul\":8866:8888   */\n      swap1\n      pop\n        /* \"#utility.yul\":8897:8929   */\n      tag_215\n        /* \"#utility.yul\":8923:8928   */\n      dup2\n        /* \"#utility.yul\":8897:8929   */\n      tag_120\n      jump\t// in\n    tag_215:\n        /* \"#utility.yul\":8794:8935   */\n      swap3\n      swap2\n      pop\n      pop\n      jump\t// out\n        /* \"#utility.yul\":8941:9017   */\n    tag_122:\n        /* \"#utility.yul\":8977:8984   */\n      0x00\n        /* \"#utility.yul\":9006:9011   */\n      dup2\n        /* \"#utility.yul\":8995:9011   */\n      swap1\n      pop\n        /* \"#utility.yul\":8941:9017   */\n      swap2\n      swap1\n      pop\n      jump\t// out\n        /* \"#utility.yul\":9023:9143   */\n    tag_123:\n        /* \"#utility.yul\":9095:9118   */\n      tag_218\n        /* \"#utility.yul\":9112:9117   */\n      dup2\n        /* \"#utility.yul\":9095:9118   */\n      tag_122\n      jump\t// in\n    tag_218:\n        /* \"#utility.yul\":9088:9093   */\n      dup2\n        /* \"#utility.yul\":9085:9119   */\n      eq\n        /* \"#utility.yul\":9075:9137   */\n      tag_219\n      jumpi\n        /* \"#utility.yul\":9133:9134   */\n      0x00\n        /* \"#utility.yul\":9130:9131   */\n      dup1\n        /* \"#utility.yul\":9123:9135   */\n      revert\n        /* \"#utility.yul\":9075:9137   */\n    tag_219:\n        /* \"#utility.yul\":9023:9143   */\n      pop\n      jump\t// out\n        /* \"#utility.yul\":9149:9290   */\n    tag_124:\n        /* \"#utility.yul\":9205:9210   */\n      0x00\n        /* \"#utility.yul\":9236:9242   */\n      dup2\n        /* \"#utility.yul\":9230:9243   */\n      mload\n        /* \"#utility.yul\":9221:9243   */\n      swap1\n      pop\n        /* \"#utility.yul\":9252:9284   */\n      tag_221\n        /* \"#utility.yul\":9278:9283   */\n      dup2\n        /* \"#utility.yul\":9252:9284   */\n      tag_123\n      jump\t// in\n    tag_221:\n        /* \"#utility.yul\":9149:9290   */\n      swap3\n      swap2\n      pop\n      pop\n      jump\t// out\n        /* \"#utility.yul\":9296:9439   */\n    tag_125:\n        /* \"#utility.yul\":9353:9358   */\n      0x00\n        /* \"#utility.yul\":9384:9390   */\n      dup2\n        /* \"#utility.yul\":9378:9391   */\n      mload\n        /* \"#utility.yul\":9369:9391   */\n      swap1\n      pop\n        /* \"#utility.yul\":9400:9433   */\n      tag_223\n        /* \"#utility.yul\":9427:9432   */\n      dup2\n        /* \"#utility.yul\":9400:9433   */\n      tag_105\n      jump\t// in\n    tag_223:\n        /* \"#utility.yul\":9296:9439   */\n      swap3\n      swap2\n      pop\n      pop\n      jump\t// out\n        /* \"#utility.yul\":9445:10416   */\n    tag_85:\n        /* \"#utility.yul\":9548:9554   */\n      0x00\n        /* \"#utility.yul\":9556:9562   */\n      dup1\n        /* \"#utility.yul\":9564:9570   */\n      0x00\n        /* \"#utility.yul\":9572:9578   */\n      dup1\n        /* \"#utility.yul\":9580:9586   */\n      0x00\n        /* \"#utility.yul\":9629:9632   */\n      0xa0\n        /* \"#utility.yul\":9617:9626   */\n      dup7\n        /* \"#utility.yul\":9608:9615   */\n      dup9\n        /* \"#utility.yul\":9604:9627   */\n      sub\n        /* \"#utility.yul\":9600:9633   */\n      slt\n        /* \"#utility.yul\":9597:9717   */\n      iszero\n      tag_225\n      jumpi\n        /* \"#utility.yul\":9636:9715   */\n      tag_226\n      tag_96\n      jump\t// in\n    tag_226:\n        /* \"#utility.yul\":9597:9717   */\n    tag_225:\n        /* \"#utility.yul\":9756:9757   */\n      0x00\n        /* \"#utility.yul\":9781:9844   */\n      tag_227\n        /* \"#utility.yul\":9836:9843   */\n      dup9\n        /* \"#utility.yul\":9827:9833   */\n      dup3\n        /* \"#utility.yul\":9816:9825   */\n      dup10\n        /* \"#utility.yul\":9812:9834   */\n      add\n        /* \"#utility.yul\":9781:9844   */\n      tag_121\n      jump\t// in\n    tag_227:\n        /* \"#utility.yul\":9771:9844   */\n      swap6\n      pop\n        /* \"#utility.yul\":9727:9854   */\n      pop\n        /* \"#utility.yul\":9893:9895   */\n      0x20\n        /* \"#utility.yul\":9919:9982   */\n      tag_228\n        /* \"#utility.yul\":9974:9981   */\n      dup9\n        /* \"#utility.yul\":9965:9971   */\n      dup3\n        /* \"#utility.yul\":9954:9963   */\n      dup10\n        /* \"#utility.yul\":9950:9972   */\n      add\n        /* \"#utility.yul\":9919:9982   */\n      tag_124\n      jump\t// in\n    tag_228:\n        /* \"#utility.yul\":9909:9982   */\n      swap5\n      pop\n        /* \"#utility.yul\":9864:9992   */\n      pop\n        /* \"#utility.yul\":10031:10033   */\n      0x40\n        /* \"#utility.yul\":10057:10121   */\n      tag_229\n        /* \"#utility.yul\":10113:10120   */\n      dup9\n        /* \"#utility.yul\":10104:10110   */\n      dup3\n        /* \"#utility.yul\":10093:10102   */\n      dup10\n        /* \"#utility.yul\":10089:10111   */\n      add\n        /* \"#utility.yul\":10057:10121   */\n      tag_125\n      jump\t// in\n    tag_229:\n        /* \"#utility.yul\":10047:10121   */\n      swap4\n      pop\n        /* \"#utility.yul\":10002:10131   */\n      pop\n        /* \"#utility.yul\":10170:10172   */\n      0x60\n        /* \"#utility.yul\":10196:10260   */\n      tag_230\n        /* \"#utility.yul\":10252:10259   */\n      dup9\n        /* \"#utility.yul\":10243:10249   */\n      dup3\n        /* \"#utility.yul\":10232:10241   */\n      dup10\n        /* \"#utility.yul\":10228:10250   */\n      add\n        /* \"#utility.yul\":10196:10260   */\n      tag_125\n      jump\t// in\n    tag_230:\n        /* \"#utility.yul\":10186:10260   */\n      swap3\n      pop\n        /* \"#utility.yul\":10141:10270   */\n      pop\n        /* \"#utility.yul\":10309:10312   */\n      0x80\n        /* \"#utility.yul\":10336:10399   */\n      tag_231\n        /* \"#utility.yul\":10391:10398   */\n      dup9\n        /* \"#utility.yul\":10382:10388   */\n      dup3\n        /* \"#utility.yul\":10371:10380   */\n      dup10\n        /* \"#utility.yul\":10367:10389   */\n      add\n        /* \"#utility.yul\":10336:10399   */\n      tag_121\n      jump\t// in\n    tag_231:\n        /* \"#utility.yul\":10326:10399   */\n      swap2\n      pop\n        /* \"#utility.yul\":10280:10409   */\n      pop\n        /* \"#utility.yul\":9445:10416   */\n      swap3\n      swap6\n      pop\n      swap3\n      swap6\n      swap1\n      swap4\n      pop\n      jump\t// out\n        /* \"#utility.yul\":10422:10978   */\n    tag_87:\n        /* \"#utility.yul\":10461:10468   */\n      0x00\n        /* \"#utility.yul\":10484:10503   */\n      tag_233\n        /* \"#utility.yul\":10501:10502   */\n      dup3\n        /* \"#utility.yul\":10484:10503   */\n      tag_122\n      jump\t// in\n    tag_233:\n        /* \"#utility.yul\":10479:10503   */\n      swap2\n      pop\n        /* \"#utility.yul\":10517:10536   */\n      tag_234\n        /* \"#utility.yul\":10534:10535   */\n      dup4\n        /* \"#utility.yul\":10517:10536   */\n      tag_122\n      jump\t// in\n    tag_234:\n        /* \"#utility.yul\":10512:10536   */\n      swap3\n      pop\n        /* \"#utility.yul\":10571:10572   */\n      dup3\n        /* \"#utility.yul\":10568:10569   */\n      dup3\n        /* \"#utility.yul\":10564:10573   */\n      mul\n        /* \"#utility.yul\":10593:10622   */\n      tag_235\n        /* \"#utility.yul\":10610:10621   */\n      dup2\n        /* \"#utility.yul\":10593:10622   */\n      tag_122\n      jump\t// in\n    tag_235:\n        /* \"#utility.yul\":10582:10622   */\n      swap2\n      pop\n        /* \"#utility.yul\":10680:10746   */\n      0x8000000000000000000000000000000000000000000000000000000000000000\n        /* \"#utility.yul\":10677:10678   */\n      dup5\n        /* \"#utility.yul\":10674:10747   */\n      eq\n        /* \"#utility.yul\":10670:10671   */\n      0x00\n        /* \"#utility.yul\":10667:10668   */\n      dup5\n        /* \"#utility.yul\":10663:10672   */\n      slt\n        /* \"#utility.yul\":10659:10748   */\n      and\n        /* \"#utility.yul\":10656:10771   */\n      iszero\n      tag_236\n      jumpi\n        /* \"#utility.yul\":10751:10769   */\n      tag_237\n      tag_110\n      jump\t// in\n    tag_237:\n        /* \"#utility.yul\":10656:10771   */\n    tag_236:\n        /* \"#utility.yul\":10921:10922   */\n      dup3\n        /* \"#utility.yul\":10912:10919   */\n      dup3\n        /* \"#utility.yul\":10907:10923   */\n      sdiv\n        /* \"#utility.yul\":10904:10905   */\n      dup5\n        /* \"#utility.yul\":10901:10924   */\n      eq\n        /* \"#utility.yul\":10881:10882   */\n      dup4\n        /* \"#utility.yul\":10874:10883   */\n      iszero\n        /* \"#utility.yul\":10854:10938   */\n      or\n        /* \"#utility.yul\":10831:10971   */\n      tag_238\n      jumpi\n        /* \"#utility.yul\":10951:10969   */\n      tag_239\n      tag_110\n      jump\t// in\n    tag_239:\n        /* \"#utility.yul\":10831:10971   */\n    tag_238:\n        /* \"#utility.yul\":10469:10978   */\n      pop\n        /* \"#utility.yul\":10422:10978   */\n      swap3\n      swap2\n      pop\n      pop\n      jump\t// out\n\n    auxdata: 0xa264697066735822122092759874a0cffe7483c0c9f48a0989474bf16b02129aa0e0446ec2318e9ca78564736f6c63430008120033\n}\n",
				"bytecode": {
					"linkReferences": {},
					"object": "6080604052674563918244f4000060005534801561001c57600080fd5b5033600360006101000a81548173ffffffffffffffffffffffffffffffffffffffff021916908373ffffffffffffffffffffffffffffffffffffffff160217905550610d4d8061006d6000396000f3fe6080604052600436106100555760003560e01c80633ccfd60b1461005a5780633e47d6f31461007157806351b80e41146100ae5780638da5cb5b146100d9578063b60d428814610104578063dc0d3dff1461010e575b600080fd5b34801561006657600080fd5b5061006f61014b565b005b34801561007d57600080fd5b5061009860048036038101906100939190610747565b610397565b6040516100a5919061078d565b60405180910390f35b3480156100ba57600080fd5b506100c36103af565b6040516100d0919061078d565b60405180910390f35b3480156100e557600080fd5b506100ee6103b5565b6040516100fb91906107b7565b60405180910390f35b61010c6103db565b005b34801561011a57600080fd5b50610135600480360381019061013091906107fe565b61051b565b60405161014291906107b7565b60405180910390f35b600360009054906101000a900473ffffffffffffffffffffffffffffffffffffffff1673ffffffffffffffffffffffffffffffffffffffff163373ffffffffffffffffffffffffffffffffffffffff16146101db576040517f08c379a00000000000000000000000000000000000000000000000000000000081526004016101d2906108ae565b60405180910390fd5b60005b60018054905081101561028757600060018281548110610201576102006108ce565b5b9060005260206000200160009054906101000a900473ffffffffffffffffffffffffffffffffffffffff1690506000600260008373ffffffffffffffffffffffffffffffffffffffff1673ffffffffffffffffffffffffffffffffffffffff1681526020019081526020016000208190555050808061027f9061092c565b9150506101de565b50600067ffffffffffffffff8111156102a3576102a2610974565b5b6040519080825280602002602001820160405280156102d15781602001602082028036833780820191505090505b50600190805190602001906102e792919061063d565b5060003373ffffffffffffffffffffffffffffffffffffffff164760405161030e906109d4565b60006040518083038185875af1925050503d806000811461034b576040519150601f19603f3d011682016040523d82523d6000602084013e610350565b606091505b5050905080610394576040517f08c379a000000000000000000000000000000000000000000000000000000000815260040161038b90610a35565b60405180910390fd5b50565b60026020528060005260406000206000915090505481565b60005481565b600360009054906101000a900473ffffffffffffffffffffffffffffffffffffffff1681565b6000546103e73461055a565b1015610428576040517f08c379a000000000000000000000000000000000000000000000000000000000815260040161041f90610aa1565b60405180910390fd5b6001339080600181540180825580915050600190039060005260206000200160009091909190916101000a81548173ffffffffffffffffffffffffffffffffffffffff021916908373ffffffffffffffffffffffffffffffffffffffff16021790555034600260003373ffffffffffffffffffffffffffffffffffffffff1673ffffffffffffffffffffffffffffffffffffffff168152602001908152602001600020546104d69190610ac1565b600260003373ffffffffffffffffffffffffffffffffffffffff1673ffffffffffffffffffffffffffffffffffffffff16815260200190815260200160002081905550565b6001818154811061052b57600080fd5b906000526020600020016000915054906101000a900473ffffffffffffffffffffffffffffffffffffffff1681565b600080610565610594565b90506000670de0b6b3a7640000848361057e9190610af5565b6105889190610b66565b90508092505050919050565b60008073694aa1769357215de4fac081bf1f309adc325306905060008173ffffffffffffffffffffffffffffffffffffffff1663feaf968c6040518163ffffffff1660e01b815260040160a060405180830381865afa1580156105fb573d6000803e3d6000fd5b505050506040513d601f19601f8201168201806040525081019061061f9190610c24565b5050509150506402540be400816106369190610c9f565b9250505090565b8280548282559060005260206000209081019282156106b6579160200282015b828111156106b55782518260006101000a81548173ffffffffffffffffffffffffffffffffffffffff021916908373ffffffffffffffffffffffffffffffffffffffff1602179055509160200191906001019061065d565b5b5090506106c391906106c7565b5090565b5b808211156106e05760008160009055506001016106c8565b5090565b600080fd5b600073ffffffffffffffffffffffffffffffffffffffff82169050919050565b6000610714826106e9565b9050919050565b61072481610709565b811461072f57600080fd5b50565b6000813590506107418161071b565b92915050565b60006020828403121561075d5761075c6106e4565b5b600061076b84828501610732565b91505092915050565b6000819050919050565b61078781610774565b82525050565b60006020820190506107a2600083018461077e565b92915050565b6107b181610709565b82525050565b60006020820190506107cc60008301846107a8565b92915050565b6107db81610774565b81146107e657600080fd5b50565b6000813590506107f8816107d2565b92915050565b600060208284031215610814576108136106e4565b5b6000610822848285016107e9565b91505092915050565b600082825260208201905092915050565b7f6f6e6c79206f776e65722063616e2063616c6c20746869732066756e6374696f60008201527f6e00000000000000000000000000000000000000000000000000000000000000602082015250565b600061089860218361082b565b91506108a38261083c565b604082019050919050565b600060208201905081810360008301526108c78161088b565b9050919050565b7f4e487b7100000000000000000000000000000000000000000000000000000000600052603260045260246000fd5b7f4e487b7100000000000000000000000000000000000000000000000000000000600052601160045260246000fd5b600061093782610774565b91507fffffffffffffffffffffffffffffffffffffffffffffffffffffffffffffffff8203610969576109686108fd565b5b600182019050919050565b7f4e487b7100000000000000000000000000000000000000000000000000000000600052604160045260246000fd5b600081905092915050565b50565b60006109be6000836109a3565b91506109c9826109ae565b600082019050919050565b60006109df826109b1565b9150819050919050565b7f43616c6c206661696c6564000000000000000000000000000000000000000000600082015250565b6000610a1f600b8361082b565b9150610a2a826109e9565b602082019050919050565b60006020820190508181036000830152610a4e81610a12565b9050919050565b7f4469646e27742073656e6420656e6f6768742045544800000000000000000000600082015250565b6000610a8b60168361082b565b9150610a9682610a55565b602082019050919050565b60006020820190508181036000830152610aba81610a7e565b9050919050565b6000610acc82610774565b9150610ad783610774565b9250828201905080821115610aef57610aee6108fd565b5b92915050565b6000610b0082610774565b9150610b0b83610774565b9250828202610b1981610774565b91508282048414831517610b3057610b2f6108fd565b5b5092915050565b7f4e487b7100000000000000000000000000000000000000000000000000000000600052601260045260246000fd5b6000610b7182610774565b9150610b7c83610774565b925082610b8c57610b8b610b37565b5b828204905092915050565b600069ffffffffffffffffffff82169050919050565b610bb681610b97565b8114610bc157600080fd5b50565b600081519050610bd381610bad565b92915050565b6000819050919050565b610bec81610bd9565b8114610bf757600080fd5b50565b600081519050610c0981610be3565b92915050565b600081519050610c1e816107d2565b92915050565b600080600080600060a08688031215610c4057610c3f6106e4565b5b6000610c4e88828901610bc4565b9550506020610c5f88828901610bfa565b9450506040610c7088828901610c0f565b9350506060610c8188828901610c0f565b9250506080610c9288828901610bc4565b9150509295509295909350565b6000610caa82610bd9565b9150610cb583610bd9565b9250828202610cc381610bd9565b91507f80000000000000000000000000000000000000000000000000000000000000008414600084121615610cfb57610cfa6108fd565b5b8282058414831517610d1057610d0f6108fd565b5b509291505056fea264697066735822122092759874a0cffe7483c0c9f48a0989474bf16b02129aa0e0446ec2318e9ca78564736f6c63430008120033",
					"opcodes": "PUSH1 0x80 PUSH1 0x40 MSTORE PUSH8 0x4563918244F40000 PUSH1 0x0 SSTORE CALLVALUE DUP1 ISZERO PUSH2 0x1C JUMPI PUSH1 0x0 DUP1 REVERT JUMPDEST POP CALLER PUSH1 0x3 PUSH1 0x0 PUSH2 0x100 EXP DUP2 SLOAD DUP2 PUSH20 0xFFFFFFFFFFFFFFFFFFFFFFFFFFFFFFFFFFFFFFFF MUL NOT AND SWAP1 DUP4 PUSH20 0xFFFFFFFFFFFFFFFFFFFFFFFFFFFFFFFFFFFFFFFF AND MUL OR SWAP1 SSTORE POP PUSH2 0xD4D DUP1 PUSH2 0x6D PUSH1 0x0 CODECOPY PUSH1 0x0 RETURN INVALID PUSH1 0x80 PUSH1 0x40 MSTORE PUSH1 0x4 CALLDATASIZE LT PUSH2 0x55 JUMPI PUSH1 0x0 CALLDATALOAD PUSH1 0xE0 SHR DUP1 PUSH4 0x3CCFD60B EQ PUSH2 0x5A JUMPI DUP1 PUSH4 0x3E47D6F3 EQ PUSH2 0x71 JUMPI DUP1 PUSH4 0x51B80E41 EQ PUSH2 0xAE JUMPI DUP1 PUSH4 0x8DA5CB5B EQ PUSH2 0xD9 JUMPI DUP1 PUSH4 0xB60D4288 EQ PUSH2 0x104 JUMPI DUP1 PUSH4 0xDC0D3DFF EQ PUSH2 0x10E JUMPI JUMPDEST PUSH1 0x0 DUP1 REVERT JUMPDEST CALLVALUE DUP1 ISZERO PUSH2 0x66 JUMPI PUSH1 0x0 DUP1 REVERT JUMPDEST POP PUSH2 0x6F PUSH2 0x14B JUMP JUMPDEST STOP JUMPDEST CALLVALUE DUP1 ISZERO PUSH2 0x7D JUMPI PUSH1 0x0 DUP1 REVERT JUMPDEST POP PUSH2 0x98 PUSH1 0x4 DUP1 CALLDATASIZE SUB DUP2 ADD SWAP1 PUSH2 0x93 SWAP2 SWAP1 PUSH2 0x747 JUMP JUMPDEST PUSH2 0x397 JUMP JUMPDEST PUSH1 0x40 MLOAD PUSH2 0xA5 SWAP2 SWAP1 PUSH2 0x78D JUMP JUMPDEST PUSH1 0x40 MLOAD DUP1 SWAP2 SUB SWAP1 RETURN JUMPDEST CALLVALUE DUP1 ISZERO PUSH2 0xBA JUMPI PUSH1 0x0 DUP1 REVERT JUMPDEST POP PUSH2 0xC3 PUSH2 0x3AF JUMP JUMPDEST PUSH1 0x40 MLOAD PUSH2 0xD0 SWAP2 SWAP1 PUSH2 0x78D JUMP JUMPDEST PUSH1 0x40 MLOAD DUP1 SWAP2 SUB SWAP1 RETURN JUMPDEST CALLVALUE DUP1 ISZERO PUSH2 0xE5 JUMPI PUSH1 0x0 DUP1 REVERT JUMPDEST POP PUSH2 0xEE PUSH2 0x3B5 JUMP JUMPDEST PUSH1 0x40 MLOAD PUSH2 0xFB SWAP2 SWAP1 PUSH2 0x7B7 JUMP JUMPDEST PUSH1 0x40 MLOAD DUP1 SWAP2 SUB SWAP1 RETURN JUMPDEST PUSH2 0x10C PUSH2 0x3DB JUMP JUMPDEST STOP JUMPDEST CALLVALUE DUP1 ISZERO PUSH2 0x11A JUMPI PUSH1 0x0 DUP1 REVERT JUMPDEST POP PUSH2 0x135 PUSH1 0x4 DUP1 CALLDATASIZE SUB DUP2 ADD SWAP1 PUSH2 0x130 SWAP2 SWAP1 PUSH2 0x7FE JUMP JUMPDEST PUSH2 0x51B JUMP JUMPDEST PUSH1 0x40 MLOAD PUSH2 0x142 SWAP2 SWAP1 PUSH2 0x7B7 JUMP JUMPDEST PUSH1 0x40 MLOAD DUP1 SWAP2 SUB SWAP1 RETURN JUMPDEST PUSH1 0x3 PUSH1 0x0 SWAP1 SLOAD SWAP1 PUSH2 0x100 EXP SWAP1 DIV PUSH20 0xFFFFFFFFFFFFFFFFFFFFFFFFFFFFFFFFFFFFFFFF AND PUSH20 0xFFFFFFFFFFFFFFFFFFFFFFFFFFFFFFFFFFFFFFFF AND CALLER PUSH20 0xFFFFFFFFFFFFFFFFFFFFFFFFFFFFFFFFFFFFFFFF AND EQ PUSH2 0x1DB JUMPI PUSH1 0x40 MLOAD PUSH32 0x8C379A000000000000000000000000000000000000000000000000000000000 DUP2 MSTORE PUSH1 0x4 ADD PUSH2 0x1D2 SWAP1 PUSH2 0x8AE JUMP JUMPDEST PUSH1 0x40 MLOAD DUP1 SWAP2 SUB SWAP1 REVERT JUMPDEST PUSH1 0x0 JUMPDEST PUSH1 0x1 DUP1 SLOAD SWAP1 POP DUP2 LT ISZERO PUSH2 0x287 JUMPI PUSH1 0x0 PUSH1 0x1 DUP3 DUP2 SLOAD DUP2 LT PUSH2 0x201 JUMPI PUSH2 0x200 PUSH2 0x8CE JUMP JUMPDEST JUMPDEST SWAP1 PUSH1 0x0 MSTORE PUSH1 0x20 PUSH1 0x0 KECCAK256 ADD PUSH1 0x0 SWAP1 SLOAD SWAP1 PUSH2 0x100 EXP SWAP1 DIV PUSH20 0xFFFFFFFFFFFFFFFFFFFFFFFFFFFFFFFFFFFFFFFF AND SWAP1 POP PUSH1 0x0 PUSH1 0x2 PUSH1 0x0 DUP4 PUSH20 0xFFFFFFFFFFFFFFFFFFFFFFFFFFFFFFFFFFFFFFFF AND PUSH20 0xFFFFFFFFFFFFFFFFFFFFFFFFFFFFFFFFFFFFFFFF AND DUP2 MSTORE PUSH1 0x20 ADD SWAP1 DUP2 MSTORE PUSH1 0x20 ADD PUSH1 0x0 KECCAK256 DUP2 SWAP1 SSTORE POP POP DUP1 DUP1 PUSH2 0x27F SWAP1 PUSH2 0x92C JUMP JUMPDEST SWAP2 POP POP PUSH2 0x1DE JUMP JUMPDEST POP PUSH1 0x0 PUSH8 0xFFFFFFFFFFFFFFFF DUP2 GT ISZERO PUSH2 0x2A3 JUMPI PUSH2 0x2A2 PUSH2 0x974 JUMP JUMPDEST JUMPDEST PUSH1 0x40 MLOAD SWAP1 DUP1 DUP3 MSTORE DUP1 PUSH1 0x20 MUL PUSH1 0x20 ADD DUP3 ADD PUSH1 0x40 MSTORE DUP1 ISZERO PUSH2 0x2D1 JUMPI DUP2 PUSH1 0x20 ADD PUSH1 0x20 DUP3 MUL DUP1 CALLDATASIZE DUP4 CALLDATACOPY DUP1 DUP3 ADD SWAP2 POP POP SWAP1 POP JUMPDEST POP PUSH1 0x1 SWAP1 DUP1 MLOAD SWAP1 PUSH1 0x20 ADD SWAP1 PUSH2 0x2E7 SWAP3 SWAP2 SWAP1 PUSH2 0x63D JUMP JUMPDEST POP PUSH1 0x0 CALLER PUSH20 0xFFFFFFFFFFFFFFFFFFFFFFFFFFFFFFFFFFFFFFFF AND SELFBALANCE PUSH1 0x40 MLOAD PUSH2 0x30E SWAP1 PUSH2 0x9D4 JUMP JUMPDEST PUSH1 0x0 PUSH1 0x40 MLOAD DUP1 DUP4 SUB DUP2 DUP6 DUP8 GAS CALL SWAP3 POP POP POP RETURNDATASIZE DUP1 PUSH1 0x0 DUP2 EQ PUSH2 0x34B JUMPI PUSH1 0x40 MLOAD SWAP2 POP PUSH1 0x1F NOT PUSH1 0x3F RETURNDATASIZE ADD AND DUP3 ADD PUSH1 0x40 MSTORE RETURNDATASIZE DUP3 MSTORE RETURNDATASIZE PUSH1 0x0 PUSH1 0x20 DUP5 ADD RETURNDATACOPY PUSH2 0x350 JUMP JUMPDEST PUSH1 0x60 SWAP2 POP JUMPDEST POP POP SWAP1 POP DUP1 PUSH2 0x394 JUMPI PUSH1 0x40 MLOAD PUSH32 0x8C379A000000000000000000000000000000000000000000000000000000000 DUP2 MSTORE PUSH1 0x4 ADD PUSH2 0x38B SWAP1 PUSH2 0xA35 JUMP JUMPDEST PUSH1 0x40 MLOAD DUP1 SWAP2 SUB SWAP1 REVERT JUMPDEST POP JUMP JUMPDEST PUSH1 0x2 PUSH1 0x20 MSTORE DUP1 PUSH1 0x0 MSTORE PUSH1 0x40 PUSH1 0x0 KECCAK256 PUSH1 0x0 SWAP2 POP SWAP1 POP SLOAD DUP2 JUMP JUMPDEST PUSH1 0x0 SLOAD DUP2 JUMP JUMPDEST PUSH1 0x3 PUSH1 0x0 SWAP1 SLOAD SWAP1 PUSH2 0x100 EXP SWAP1 DIV PUSH20 0xFFFFFFFFFFFFFFFFFFFFFFFFFFFFFFFFFFFFFFFF AND DUP2 JUMP JUMPDEST PUSH1 0x0 SLOAD PUSH2 0x3E7 CALLVALUE PUSH2 0x55A JUMP JUMPDEST LT ISZERO PUSH2 0x428 JUMPI PUSH1 0x40 MLOAD PUSH32 0x8C379A000000000000000000000000000000000000000000000000000000000 DUP2 MSTORE PUSH1 0x4 ADD PUSH2 0x41F SWAP1 PUSH2 0xAA1 JUMP JUMPDEST PUSH1 0x40 MLOAD DUP1 SWAP2 SUB SWAP1 REVERT JUMPDEST PUSH1 0x1 CALLER SWAP1 DUP1 PUSH1 0x1 DUP2 SLOAD ADD DUP1 DUP3 SSTORE DUP1 SWAP2 POP POP PUSH1 0x1 SWAP1 SUB SWAP1 PUSH1 0x0 MSTORE PUSH1 0x20 PUSH1 0x0 KECCAK256 ADD PUSH1 0x0 SWAP1 SWAP2 SWAP1 SWAP2 SWAP1 SWAP2 PUSH2 0x100 EXP DUP2 SLOAD DUP2 PUSH20 0xFFFFFFFFFFFFFFFFFFFFFFFFFFFFFFFFFFFFFFFF MUL NOT AND SWAP1 DUP4 PUSH20 0xFFFFFFFFFFFFFFFFFFFFFFFFFFFFFFFFFFFFFFFF AND MUL OR SWAP1 SSTORE POP CALLVALUE PUSH1 0x2 PUSH1 0x0 CALLER PUSH20 0xFFFFFFFFFFFFFFFFFFFFFFFFFFFFFFFFFFFFFFFF AND PUSH20 0xFFFFFFFFFFFFFFFFFFFFFFFFFFFFFFFFFFFFFFFF AND DUP2 MSTORE PUSH1 0x20 ADD SWAP1 DUP2 MSTORE PUSH1 0x20 ADD PUSH1 0x0 KECCAK256 SLOAD PUSH2 0x4D6 SWAP2 SWAP1 PUSH2 0xAC1 JUMP JUMPDEST PUSH1 0x2 PUSH1 0x0 CALLER PUSH20 0xFFFFFFFFFFFFFFFFFFFFFFFFFFFFFFFFFFFFFFFF AND PUSH20 0xFFFFFFFFFFFFFFFFFFFFFFFFFFFFFFFFFFFFFFFF AND DUP2 MSTORE PUSH1 0x20 ADD SWAP1 DUP2 MSTORE PUSH1 0x20 ADD PUSH1 0x0 KECCAK256 DUP2 SWAP1 SSTORE POP JUMP JUMPDEST PUSH1 0x1 DUP2 DUP2 SLOAD DUP2 LT PUSH2 0x52B JUMPI PUSH1 0x0 DUP1 REVERT JUMPDEST SWAP1 PUSH1 0x0 MSTORE PUSH1 0x20 PUSH1 0x0 KECCAK256 ADD PUSH1 0x0 SWAP2 POP SLOAD SWAP1 PUSH2 0x100 EXP SWAP1 DIV PUSH20 0xFFFFFFFFFFFFFFFFFFFFFFFFFFFFFFFFFFFFFFFF AND DUP2 JUMP JUMPDEST PUSH1 0x0 DUP1 PUSH2 0x565 PUSH2 0x594 JUMP JUMPDEST SWAP1 POP PUSH1 0x0 PUSH8 0xDE0B6B3A7640000 DUP5 DUP4 PUSH2 0x57E SWAP2 SWAP1 PUSH2 0xAF5 JUMP JUMPDEST PUSH2 0x588 SWAP2 SWAP1 PUSH2 0xB66 JUMP JUMPDEST SWAP1 POP DUP1 SWAP3 POP POP POP SWAP2 SWAP1 POP JUMP JUMPDEST PUSH1 0x0 DUP1 PUSH20 0x694AA1769357215DE4FAC081BF1F309ADC325306 SWAP1 POP PUSH1 0x0 DUP2 PUSH20 0xFFFFFFFFFFFFFFFFFFFFFFFFFFFFFFFFFFFFFFFF AND PUSH4 0xFEAF968C PUSH1 0x40 MLOAD DUP2 PUSH4 0xFFFFFFFF AND PUSH1 0xE0 SHL DUP2 MSTORE PUSH1 0x4 ADD PUSH1 0xA0 PUSH1 0x40 MLOAD DUP1 DUP4 SUB DUP2 DUP7 GAS STATICCALL ISZERO DUP1 ISZERO PUSH2 0x5FB JUMPI RETURNDATASIZE PUSH1 0x0 DUP1 RETURNDATACOPY RETURNDATASIZE PUSH1 0x0 REVERT JUMPDEST POP POP POP POP PUSH1 0x40 MLOAD RETURNDATASIZE PUSH1 0x1F NOT PUSH1 0x1F DUP3 ADD AND DUP3 ADD DUP1 PUSH1 0x40 MSTORE POP DUP2 ADD SWAP1 PUSH2 0x61F SWAP2 SWAP1 PUSH2 0xC24 JUMP JUMPDEST POP POP POP SWAP2 POP POP PUSH5 0x2540BE400 DUP2 PUSH2 0x636 SWAP2 SWAP1 PUSH2 0xC9F JUMP JUMPDEST SWAP3 POP POP POP SWAP1 JUMP JUMPDEST DUP3 DUP1 SLOAD DUP3 DUP3 SSTORE SWAP1 PUSH1 0x0 MSTORE PUSH1 0x20 PUSH1 0x0 KECCAK256 SWAP1 DUP2 ADD SWAP3 DUP3 ISZERO PUSH2 0x6B6 JUMPI SWAP2 PUSH1 0x20 MUL DUP3 ADD JUMPDEST DUP3 DUP2 GT ISZERO PUSH2 0x6B5 JUMPI DUP3 MLOAD DUP3 PUSH1 0x0 PUSH2 0x100 EXP DUP2 SLOAD DUP2 PUSH20 0xFFFFFFFFFFFFFFFFFFFFFFFFFFFFFFFFFFFFFFFF MUL NOT AND SWAP1 DUP4 PUSH20 0xFFFFFFFFFFFFFFFFFFFFFFFFFFFFFFFFFFFFFFFF AND MUL OR SWAP1 SSTORE POP SWAP2 PUSH1 0x20 ADD SWAP2 SWAP1 PUSH1 0x1 ADD SWAP1 PUSH2 0x65D JUMP JUMPDEST JUMPDEST POP SWAP1 POP PUSH2 0x6C3 SWAP2 SWAP1 PUSH2 0x6C7 JUMP JUMPDEST POP SWAP1 JUMP JUMPDEST JUMPDEST DUP1 DUP3 GT ISZERO PUSH2 0x6E0 JUMPI PUSH1 0x0 DUP2 PUSH1 0x0 SWAP1 SSTORE POP PUSH1 0x1 ADD PUSH2 0x6C8 JUMP JUMPDEST POP SWAP1 JUMP JUMPDEST PUSH1 0x0 DUP1 REVERT JUMPDEST PUSH1 0x0 PUSH20 0xFFFFFFFFFFFFFFFFFFFFFFFFFFFFFFFFFFFFFFFF DUP3 AND SWAP1 POP SWAP2 SWAP1 POP JUMP JUMPDEST PUSH1 0x0 PUSH2 0x714 DUP3 PUSH2 0x6E9 JUMP JUMPDEST SWAP1 POP SWAP2 SWAP1 POP JUMP JUMPDEST PUSH2 0x724 DUP2 PUSH2 0x709 JUMP JUMPDEST DUP2 EQ PUSH2 0x72F JUMPI PUSH1 0x0 DUP1 REVERT JUMPDEST POP JUMP JUMPDEST PUSH1 0x0 DUP2 CALLDATALOAD SWAP1 POP PUSH2 0x741 DUP2 PUSH2 0x71B JUMP JUMPDEST SWAP3 SWAP2 POP POP JUMP JUMPDEST PUSH1 0x0 PUSH1 0x20 DUP3 DUP5 SUB SLT ISZERO PUSH2 0x75D JUMPI PUSH2 0x75C PUSH2 0x6E4 JUMP JUMPDEST JUMPDEST PUSH1 0x0 PUSH2 0x76B DUP5 DUP3 DUP6 ADD PUSH2 0x732 JUMP JUMPDEST SWAP2 POP POP SWAP3 SWAP2 POP POP JUMP JUMPDEST PUSH1 0x0 DUP2 SWAP1 POP SWAP2 SWAP1 POP JUMP JUMPDEST PUSH2 0x787 DUP2 PUSH2 0x774 JUMP JUMPDEST DUP3 MSTORE POP POP JUMP JUMPDEST PUSH1 0x0 PUSH1 0x20 DUP3 ADD SWAP1 POP PUSH2 0x7A2 PUSH1 0x0 DUP4 ADD DUP5 PUSH2 0x77E JUMP JUMPDEST SWAP3 SWAP2 POP POP JUMP JUMPDEST PUSH2 0x7B1 DUP2 PUSH2 0x709 JUMP JUMPDEST DUP3 MSTORE POP POP JUMP JUMPDEST PUSH1 0x0 PUSH1 0x20 DUP3 ADD SWAP1 POP PUSH2 0x7CC PUSH1 0x0 DUP4 ADD DUP5 PUSH2 0x7A8 JUMP JUMPDEST SWAP3 SWAP2 POP POP JUMP JUMPDEST PUSH2 0x7DB DUP2 PUSH2 0x774 JUMP JUMPDEST DUP2 EQ PUSH2 0x7E6 JUMPI PUSH1 0x0 DUP1 REVERT JUMPDEST POP JUMP JUMPDEST PUSH1 0x0 DUP2 CALLDATALOAD SWAP1 POP PUSH2 0x7F8 DUP2 PUSH2 0x7D2 JUMP JUMPDEST SWAP3 SWAP2 POP POP JUMP JUMPDEST PUSH1 0x0 PUSH1 0x20 DUP3 DUP5 SUB SLT ISZERO PUSH2 0x814 JUMPI PUSH2 0x813 PUSH2 0x6E4 JUMP JUMPDEST JUMPDEST PUSH1 0x0 PUSH2 0x822 DUP5 DUP3 DUP6 ADD PUSH2 0x7E9 JUMP JUMPDEST SWAP2 POP POP SWAP3 SWAP2 POP POP JUMP JUMPDEST PUSH1 0x0 DUP3 DUP3 MSTORE PUSH1 0x20 DUP3 ADD SWAP1 POP SWAP3 SWAP2 POP POP JUMP JUMPDEST PUSH32 0x6F6E6C79206F776E65722063616E2063616C6C20746869732066756E6374696F PUSH1 0x0 DUP3 ADD MSTORE PUSH32 0x6E00000000000000000000000000000000000000000000000000000000000000 PUSH1 0x20 DUP3 ADD MSTORE POP JUMP JUMPDEST PUSH1 0x0 PUSH2 0x898 PUSH1 0x21 DUP4 PUSH2 0x82B JUMP JUMPDEST SWAP2 POP PUSH2 0x8A3 DUP3 PUSH2 0x83C JUMP JUMPDEST PUSH1 0x40 DUP3 ADD SWAP1 POP SWAP2 SWAP1 POP JUMP JUMPDEST PUSH1 0x0 PUSH1 0x20 DUP3 ADD SWAP1 POP DUP2 DUP2 SUB PUSH1 0x0 DUP4 ADD MSTORE PUSH2 0x8C7 DUP2 PUSH2 0x88B JUMP JUMPDEST SWAP1 POP SWAP2 SWAP1 POP JUMP JUMPDEST PUSH32 0x4E487B7100000000000000000000000000000000000000000000000000000000 PUSH1 0x0 MSTORE PUSH1 0x32 PUSH1 0x4 MSTORE PUSH1 0x24 PUSH1 0x0 REVERT JUMPDEST PUSH32 0x4E487B7100000000000000000000000000000000000000000000000000000000 PUSH1 0x0 MSTORE PUSH1 0x11 PUSH1 0x4 MSTORE PUSH1 0x24 PUSH1 0x0 REVERT JUMPDEST PUSH1 0x0 PUSH2 0x937 DUP3 PUSH2 0x774 JUMP JUMPDEST SWAP2 POP PUSH32 0xFFFFFFFFFFFFFFFFFFFFFFFFFFFFFFFFFFFFFFFFFFFFFFFFFFFFFFFFFFFFFFFF DUP3 SUB PUSH2 0x969 JUMPI PUSH2 0x968 PUSH2 0x8FD JUMP JUMPDEST JUMPDEST PUSH1 0x1 DUP3 ADD SWAP1 POP SWAP2 SWAP1 POP JUMP JUMPDEST PUSH32 0x4E487B7100000000000000000000000000000000000000000000000000000000 PUSH1 0x0 MSTORE PUSH1 0x41 PUSH1 0x4 MSTORE PUSH1 0x24 PUSH1 0x0 REVERT JUMPDEST PUSH1 0x0 DUP2 SWAP1 POP SWAP3 SWAP2 POP POP JUMP JUMPDEST POP JUMP JUMPDEST PUSH1 0x0 PUSH2 0x9BE PUSH1 0x0 DUP4 PUSH2 0x9A3 JUMP JUMPDEST SWAP2 POP PUSH2 0x9C9 DUP3 PUSH2 0x9AE JUMP JUMPDEST PUSH1 0x0 DUP3 ADD SWAP1 POP SWAP2 SWAP1 POP JUMP JUMPDEST PUSH1 0x0 PUSH2 0x9DF DUP3 PUSH2 0x9B1 JUMP JUMPDEST SWAP2 POP DUP2 SWAP1 POP SWAP2 SWAP1 POP JUMP JUMPDEST PUSH32 0x43616C6C206661696C6564000000000000000000000000000000000000000000 PUSH1 0x0 DUP3 ADD MSTORE POP JUMP JUMPDEST PUSH1 0x0 PUSH2 0xA1F PUSH1 0xB DUP4 PUSH2 0x82B JUMP JUMPDEST SWAP2 POP PUSH2 0xA2A DUP3 PUSH2 0x9E9 JUMP JUMPDEST PUSH1 0x20 DUP3 ADD SWAP1 POP SWAP2 SWAP1 POP JUMP JUMPDEST PUSH1 0x0 PUSH1 0x20 DUP3 ADD SWAP1 POP DUP2 DUP2 SUB PUSH1 0x0 DUP4 ADD MSTORE PUSH2 0xA4E DUP2 PUSH2 0xA12 JUMP JUMPDEST SWAP1 POP SWAP2 SWAP1 POP JUMP JUMPDEST PUSH32 0x4469646E27742073656E6420656E6F6768742045544800000000000000000000 PUSH1 0x0 DUP3 ADD MSTORE POP JUMP JUMPDEST PUSH1 0x0 PUSH2 0xA8B PUSH1 0x16 DUP4 PUSH2 0x82B JUMP JUMPDEST SWAP2 POP PUSH2 0xA96 DUP3 PUSH2 0xA55 JUMP JUMPDEST PUSH1 0x20 DUP3 ADD SWAP1 POP SWAP2 SWAP1 POP JUMP JUMPDEST PUSH1 0x0 PUSH1 0x20 DUP3 ADD SWAP1 POP DUP2 DUP2 SUB PUSH1 0x0 DUP4 ADD MSTORE PUSH2 0xABA DUP2 PUSH2 0xA7E JUMP JUMPDEST SWAP1 POP SWAP2 SWAP1 POP JUMP JUMPDEST PUSH1 0x0 PUSH2 0xACC DUP3 PUSH2 0x774 JUMP JUMPDEST SWAP2 POP PUSH2 0xAD7 DUP4 PUSH2 0x774 JUMP JUMPDEST SWAP3 POP DUP3 DUP3 ADD SWAP1 POP DUP1 DUP3 GT ISZERO PUSH2 0xAEF JUMPI PUSH2 0xAEE PUSH2 0x8FD JUMP JUMPDEST JUMPDEST SWAP3 SWAP2 POP POP JUMP JUMPDEST PUSH1 0x0 PUSH2 0xB00 DUP3 PUSH2 0x774 JUMP JUMPDEST SWAP2 POP PUSH2 0xB0B DUP4 PUSH2 0x774 JUMP JUMPDEST SWAP3 POP DUP3 DUP3 MUL PUSH2 0xB19 DUP2 PUSH2 0x774 JUMP JUMPDEST SWAP2 POP DUP3 DUP3 DIV DUP5 EQ DUP4 ISZERO OR PUSH2 0xB30 JUMPI PUSH2 0xB2F PUSH2 0x8FD JUMP JUMPDEST JUMPDEST POP SWAP3 SWAP2 POP POP JUMP JUMPDEST PUSH32 0x4E487B7100000000000000000000000000000000000000000000000000000000 PUSH1 0x0 MSTORE PUSH1 0x12 PUSH1 0x4 MSTORE PUSH1 0x24 PUSH1 0x0 REVERT JUMPDEST PUSH1 0x0 PUSH2 0xB71 DUP3 PUSH2 0x774 JUMP JUMPDEST SWAP2 POP PUSH2 0xB7C DUP4 PUSH2 0x774 JUMP JUMPDEST SWAP3 POP DUP3 PUSH2 0xB8C JUMPI PUSH2 0xB8B PUSH2 0xB37 JUMP JUMPDEST JUMPDEST DUP3 DUP3 DIV SWAP1 POP SWAP3 SWAP2 POP POP JUMP JUMPDEST PUSH1 0x0 PUSH10 0xFFFFFFFFFFFFFFFFFFFF DUP3 AND SWAP1 POP SWAP2 SWAP1 POP JUMP JUMPDEST PUSH2 0xBB6 DUP2 PUSH2 0xB97 JUMP JUMPDEST DUP2 EQ PUSH2 0xBC1 JUMPI PUSH1 0x0 DUP1 REVERT JUMPDEST POP JUMP JUMPDEST PUSH1 0x0 DUP2 MLOAD SWAP1 POP PUSH2 0xBD3 DUP2 PUSH2 0xBAD JUMP JUMPDEST SWAP3 SWAP2 POP POP JUMP JUMPDEST PUSH1 0x0 DUP2 SWAP1 POP SWAP2 SWAP1 POP JUMP JUMPDEST PUSH2 0xBEC DUP2 PUSH2 0xBD9 JUMP JUMPDEST DUP2 EQ PUSH2 0xBF7 JUMPI PUSH1 0x0 DUP1 REVERT JUMPDEST POP JUMP JUMPDEST PUSH1 0x0 DUP2 MLOAD SWAP1 POP PUSH2 0xC09 DUP2 PUSH2 0xBE3 JUMP JUMPDEST SWAP3 SWAP2 POP POP JUMP JUMPDEST PUSH1 0x0 DUP2 MLOAD SWAP1 POP PUSH2 0xC1E DUP2 PUSH2 0x7D2 JUMP JUMPDEST SWAP3 SWAP2 POP POP JUMP JUMPDEST PUSH1 0x0 DUP1 PUSH1 0x0 DUP1 PUSH1 0x0 PUSH1 0xA0 DUP7 DUP9 SUB SLT ISZERO PUSH2 0xC40 JUMPI PUSH2 0xC3F PUSH2 0x6E4 JUMP JUMPDEST JUMPDEST PUSH1 0x0 PUSH2 0xC4E DUP9 DUP3 DUP10 ADD PUSH2 0xBC4 JUMP JUMPDEST SWAP6 POP POP PUSH1 0x20 PUSH2 0xC5F DUP9 DUP3 DUP10 ADD PUSH2 0xBFA JUMP JUMPDEST SWAP5 POP POP PUSH1 0x40 PUSH2 0xC70 DUP9 DUP3 DUP10 ADD PUSH2 0xC0F JUMP JUMPDEST SWAP4 POP POP PUSH1 0x60 PUSH2 0xC81 DUP9 DUP3 DUP10 ADD PUSH2 0xC0F JUMP JUMPDEST SWAP3 POP POP PUSH1 0x80 PUSH2 0xC92 DUP9 DUP3 DUP10 ADD PUSH2 0xBC4 JUMP JUMPDEST SWAP2 POP POP SWAP3 SWAP6 POP SWAP3 SWAP6 SWAP1 SWAP4 POP JUMP JUMPDEST PUSH1 0x0 PUSH2 0xCAA DUP3 PUSH2 0xBD9 JUMP JUMPDEST SWAP2 POP PUSH2 0xCB5 DUP4 PUSH2 0xBD9 JUMP JUMPDEST SWAP3 POP DUP3 DUP3 MUL PUSH2 0xCC3 DUP2 PUSH2 0xBD9 JUMP JUMPDEST SWAP2 POP PUSH32 0x8000000000000000000000000000000000000000000000000000000000000000 DUP5 EQ PUSH1 0x0 DUP5 SLT AND ISZERO PUSH2 0xCFB JUMPI PUSH2 0xCFA PUSH2 0x8FD JUMP JUMPDEST JUMPDEST DUP3 DUP3 SDIV DUP5 EQ DUP4 ISZERO OR PUSH2 0xD10 JUMPI PUSH2 0xD0F PUSH2 0x8FD JUMP JUMPDEST JUMPDEST POP SWAP3 SWAP2 POP POP JUMP INVALID LOG2 PUSH5 0x6970667358 0x22 SLT KECCAK256 SWAP3 PUSH22 0x9874A0CFFE7483C0C9F48A0989474BF16B02129AA0E0 PREVRANDAO PUSH15 0xC2318E9CA78564736F6C6343000812 STOP CALLER "
				},
				"gasEstimates": {
					"creation": {
						"codeDepositCost": "681000",
						"executionCost": "47087",
						"totalCost": "728087"
					},
					"external": {
						"addressToAmountFunded(address)": "2814",
						"fund()": "infinite",
						"funders(uint256)": "5044",
						"minUsd()": "2451",
						"owner()": "2558",
						"withdraw()": "infinite"
					}
				},
				"methodIdentifiers": {
					"addressToAmountFunded(address)": "3e47d6f3",
					"fund()": "b60d4288",
					"funders(uint256)": "dc0d3dff",
					"minUsd()": "51b80e41",
					"owner()": "8da5cb5b",
					"withdraw()": "3ccfd60b"
				}
			},
			"storageLayout": {
				"storage": [
					{
						"astId": 57,
						"contract": "FundMe.sol:FundMe",
						"label": "minUsd",
						"offset": 0,
						"slot": "0",
						"type": "t_uint256"
					},
					{
						"astId": 60,
						"contract": "FundMe.sol:FundMe",
						"label": "funders",
						"offset": 0,
						"slot": "1",
						"type": "t_array(t_address)dyn_storage"
					},
					{
						"astId": 64,
						"contract": "FundMe.sol:FundMe",
						"label": "addressToAmountFunded",
						"offset": 0,
						"slot": "2",
						"type": "t_mapping(t_address,t_uint256)"
					},
					{
						"astId": 66,
						"contract": "FundMe.sol:FundMe",
						"label": "owner",
						"offset": 0,
						"slot": "3",
						"type": "t_address"
					}
				],
				"types": {
					"t_address": {
						"encoding": "inplace",
						"label": "address",
						"numberOfBytes": "20"
					},
					"t_array(t_address)dyn_storage": {
						"base": "t_address",
						"encoding": "dynamic_array",
						"label": "address[]",
						"numberOfBytes": "32"
					},
					"t_mapping(t_address,t_uint256)": {
						"encoding": "mapping",
						"key": "t_address",
						"label": "mapping(address => uint256)",
						"numberOfBytes": "32",
						"value": "t_uint256"
					},
					"t_uint256": {
						"encoding": "inplace",
						"label": "uint256",
						"numberOfBytes": "32"
					}
				}
			},
			"userdoc": {
				"kind": "user",
				"methods": {},
				"version": 1
			}
		}
	}
}