{
	"contracts/StorageFactory.sol": {
		"StorageFactory": {
			"abi": [
				{
					"inputs": [],
					"name": "createSimpleStorageContract",
					"outputs": [],
					"stateMutability": "nonpayable",
					"type": "function"
				},
				{
					"inputs": [
						{
							"internalType": "uint256",
							"name": "_simpleStorageIndex",
							"type": "uint256"
						}
					],
					"name": "sfGet",
					"outputs": [
						{
							"internalType": "uint256",
							"name": "",
							"type": "uint256"
						}
					],
					"stateMutability": "view",
					"type": "function"
				},
				{
					"inputs": [
						{
							"internalType": "uint256",
							"name": "_simpleStorageIndex",
							"type": "uint256"
						},
						{
							"internalType": "uint256",
							"name": "_simpleStorageNumber",
							"type": "uint256"
						}
					],
					"name": "sfStore",
					"outputs": [],
					"stateMutability": "nonpayable",
					"type": "function"
				},
				{
					"inputs": [
						{
							"internalType": "uint256",
							"name": "",
							"type": "uint256"
						}
					],
					"name": "simpleStorageArray",
					"outputs": [
						{
							"internalType": "contract SimpleStorage",
							"name": "",
							"type": "address"
						}
					],
					"stateMutability": "view",
					"type": "function"
				}
			],
			"devdoc": {
				"kind": "dev",
				"methods": {},
				"version": 1
			},
			"evm": {
				"assembly": "    /* \"contracts/StorageFactory.sol\":93:731  contract StorageFactory{\r... */\n  mstore(0x40, 0x80)\n  callvalue\n  dup1\n  iszero\n  tag_1\n  jumpi\n  0x00\n  dup1\n  revert\ntag_1:\n  pop\n  dataSize(sub_0)\n  dup1\n  dataOffset(sub_0)\n  0x00\n  codecopy\n  0x00\n  return\nstop\n\nsub_0: assembly {\n        /* \"contracts/StorageFactory.sol\":93:731  contract StorageFactory{\r... */\n      mstore(0x40, 0x80)\n      callvalue\n      dup1\n      iszero\n      tag_1\n      jumpi\n      0x00\n      dup1\n      revert\n    tag_1:\n      pop\n      jumpi(tag_2, lt(calldatasize, 0x04))\n      shr(0xe0, calldataload(0x00))\n      dup1\n      0x1563700f\n      eq\n      tag_3\n      jumpi\n      dup1\n      0x1dda6541\n      eq\n      tag_4\n      jumpi\n      dup1\n      0x64591bf1\n      eq\n      tag_5\n      jumpi\n      dup1\n      0xc5f19c20\n      eq\n      tag_6\n      jumpi\n    tag_2:\n      0x00\n      dup1\n      revert\n        /* \"contracts/StorageFactory.sol\":344:572  function sfStore(uint256 _simpleStorageIndex, uint256 _simpleStorageNumber) public {\r... */\n    tag_3:\n      tag_7\n      0x04\n      dup1\n      calldatasize\n      sub\n      dup2\n      add\n      swap1\n      tag_8\n      swap2\n      swap1\n      tag_9\n      jump\t// in\n    tag_8:\n      tag_10\n      jump\t// in\n    tag_7:\n      stop\n        /* \"contracts/StorageFactory.sol\":173:336  function createSimpleStorageContract() public {\r... */\n    tag_4:\n      tag_11\n      tag_12\n      jump\t// in\n    tag_11:\n      stop\n        /* \"contracts/StorageFactory.sol\":123:164  SimpleStorage[] public simpleStorageArray */\n    tag_5:\n      tag_13\n      0x04\n      dup1\n      calldatasize\n      sub\n      dup2\n      add\n      swap1\n      tag_14\n      swap2\n      swap1\n      tag_15\n      jump\t// in\n    tag_14:\n      tag_16\n      jump\t// in\n    tag_13:\n      mload(0x40)\n      tag_17\n      swap2\n      swap1\n      tag_18\n      jump\t// in\n    tag_17:\n      mload(0x40)\n      dup1\n      swap2\n      sub\n      swap1\n      return\n        /* \"contracts/StorageFactory.sol\":580:728  function sfGet(uint256 _simpleStorageIndex) public view returns (uint256){\r... */\n    tag_6:\n      tag_19\n      0x04\n      dup1\n      calldatasize\n      sub\n      dup2\n      add\n      swap1\n      tag_20\n      swap2\n      swap1\n      tag_15\n      jump\t// in\n    tag_20:\n      tag_21\n      jump\t// in\n    tag_19:\n      mload(0x40)\n      tag_22\n      swap2\n      swap1\n      tag_23\n      jump\t// in\n    tag_22:\n      mload(0x40)\n      dup1\n      swap2\n      sub\n      swap1\n      return\n        /* \"contracts/StorageFactory.sol\":344:572  function sfStore(uint256 _simpleStorageIndex, uint256 _simpleStorageNumber) public {\r... */\n    tag_10:\n        /* \"contracts/StorageFactory.sol\":497:515  simpleStorageArray */\n      0x00\n        /* \"contracts/StorageFactory.sol\":516:535  _simpleStorageIndex */\n      dup3\n        /* \"contracts/StorageFactory.sol\":497:536  simpleStorageArray[_simpleStorageIndex] */\n      dup2\n      sload\n      dup2\n      lt\n      tag_25\n      jumpi\n      tag_26\n      tag_27\n      jump\t// in\n    tag_26:\n    tag_25:\n      swap1\n      0x00\n      mstore\n      keccak256(0x00, 0x20)\n      add\n      0x00\n      swap1\n      sload\n      swap1\n      0x0100\n      exp\n      swap1\n      div\n      0xffffffffffffffffffffffffffffffffffffffff\n      and\n        /* \"contracts/StorageFactory.sol\":497:542  simpleStorageArray[_simpleStorageIndex].store */\n      0xffffffffffffffffffffffffffffffffffffffff\n      and\n      0x6057361d\n        /* \"contracts/StorageFactory.sol\":543:563  _simpleStorageNumber */\n      dup3\n        /* \"contracts/StorageFactory.sol\":497:564  simpleStorageArray[_simpleStorageIndex].store(_simpleStorageNumber) */\n      mload(0x40)\n      dup3\n      0xffffffff\n      and\n      0xe0\n      shl\n      dup2\n      mstore\n      0x04\n      add\n      tag_29\n      swap2\n      swap1\n      tag_23\n      jump\t// in\n    tag_29:\n      0x00\n      mload(0x40)\n      dup1\n      dup4\n      sub\n      dup2\n      0x00\n      dup8\n      dup1\n      extcodesize\n      iszero\n      dup1\n      iszero\n      tag_30\n      jumpi\n      0x00\n      dup1\n      revert\n    tag_30:\n      pop\n      gas\n      call\n      iszero\n      dup1\n      iszero\n      tag_32\n      jumpi\n      returndatasize\n      0x00\n      dup1\n      returndatacopy\n      revert(0x00, returndatasize)\n    tag_32:\n      pop\n      pop\n      pop\n      pop\n        /* \"contracts/StorageFactory.sol\":344:572  function sfStore(uint256 _simpleStorageIndex, uint256 _simpleStorageNumber) public {\r... */\n      pop\n      pop\n      jump\t// out\n        /* \"contracts/StorageFactory.sol\":173:336  function createSimpleStorageContract() public {\r... */\n    tag_12:\n        /* \"contracts/StorageFactory.sol\":230:257  SimpleStorage simpleStorage */\n      0x00\n        /* \"contracts/StorageFactory.sol\":260:279  new SimpleStorage() */\n      mload(0x40)\n      tag_34\n      swap1\n      tag_35\n      jump\t// in\n    tag_34:\n      mload(0x40)\n      dup1\n      swap2\n      sub\n      swap1\n      0x00\n      create\n      dup1\n      iszero\n      dup1\n      iszero\n      tag_36\n      jumpi\n      returndatasize\n      0x00\n      dup1\n      returndatacopy\n      revert(0x00, returndatasize)\n    tag_36:\n      pop\n        /* \"contracts/StorageFactory.sol\":230:279  SimpleStorage simpleStorage = new SimpleStorage() */\n      swap1\n      pop\n        /* \"contracts/StorageFactory.sol\":290:308  simpleStorageArray */\n      0x00\n        /* \"contracts/StorageFactory.sol\":314:327  simpleStorage */\n      dup2\n        /* \"contracts/StorageFactory.sol\":290:328  simpleStorageArray.push(simpleStorage) */\n      swap1\n      dup1\n      0x01\n      dup2\n      sload\n      add\n      dup1\n      dup3\n      sstore\n      dup1\n      swap2\n      pop\n      pop\n      0x01\n      swap1\n      sub\n      swap1\n      0x00\n      mstore\n      keccak256(0x00, 0x20)\n      add\n      0x00\n      swap1\n      swap2\n      swap1\n      swap2\n      swap1\n      swap2\n      0x0100\n      exp\n      dup2\n      sload\n      dup2\n      0xffffffffffffffffffffffffffffffffffffffff\n      mul\n      not\n      and\n      swap1\n      dup4\n      0xffffffffffffffffffffffffffffffffffffffff\n      and\n      mul\n      or\n      swap1\n      sstore\n      pop\n        /* \"contracts/StorageFactory.sol\":219:336  {\r... */\n      pop\n        /* \"contracts/StorageFactory.sol\":173:336  function createSimpleStorageContract() public {\r... */\n      jump\t// out\n        /* \"contracts/StorageFactory.sol\":123:164  SimpleStorage[] public simpleStorageArray */\n    tag_16:\n      0x00\n      dup2\n      dup2\n      sload\n      dup2\n      lt\n      tag_38\n      jumpi\n      0x00\n      dup1\n      revert\n    tag_38:\n      swap1\n      0x00\n      mstore\n      keccak256(0x00, 0x20)\n      add\n      0x00\n      swap2\n      pop\n      sload\n      swap1\n      0x0100\n      exp\n      swap1\n      div\n      0xffffffffffffffffffffffffffffffffffffffff\n      and\n      dup2\n      jump\t// out\n        /* \"contracts/StorageFactory.sol\":580:728  function sfGet(uint256 _simpleStorageIndex) public view returns (uint256){\r... */\n    tag_21:\n        /* \"contracts/StorageFactory.sol\":645:652  uint256 */\n      0x00\n        /* \"contracts/StorageFactory.sol\":671:689  simpleStorageArray */\n      dup1\n        /* \"contracts/StorageFactory.sol\":690:709  _simpleStorageIndex */\n      dup3\n        /* \"contracts/StorageFactory.sol\":671:710  simpleStorageArray[_simpleStorageIndex] */\n      dup2\n      sload\n      dup2\n      lt\n      tag_41\n      jumpi\n      tag_42\n      tag_27\n      jump\t// in\n    tag_42:\n    tag_41:\n      swap1\n      0x00\n      mstore\n      keccak256(0x00, 0x20)\n      add\n      0x00\n      swap1\n      sload\n      swap1\n      0x0100\n      exp\n      swap1\n      div\n      0xffffffffffffffffffffffffffffffffffffffff\n      and\n        /* \"contracts/StorageFactory.sol\":671:718  simpleStorageArray[_simpleStorageIndex].retrive */\n      0xffffffffffffffffffffffffffffffffffffffff\n      and\n      0xa6b7fc5b\n        /* \"contracts/StorageFactory.sol\":671:720  simpleStorageArray[_simpleStorageIndex].retrive() */\n      mload(0x40)\n      dup2\n      0xffffffff\n      and\n      0xe0\n      shl\n      dup2\n      mstore\n      0x04\n      add\n      0x20\n      mload(0x40)\n      dup1\n      dup4\n      sub\n      dup2\n      dup7\n      dup1\n      extcodesize\n      iszero\n      dup1\n      iszero\n      tag_44\n      jumpi\n      0x00\n      dup1\n      revert\n    tag_44:\n      pop\n      gas\n      staticcall\n      iszero\n      dup1\n      iszero\n      tag_46\n      jumpi\n      returndatasize\n      0x00\n      dup1\n      returndatacopy\n      revert(0x00, returndatasize)\n    tag_46:\n      pop\n      pop\n      pop\n      pop\n      mload(0x40)\n      returndatasize\n      not(0x1f)\n      0x1f\n      dup3\n      add\n      and\n      dup3\n      add\n      dup1\n      0x40\n      mstore\n      pop\n      dup2\n      add\n      swap1\n      tag_47\n      swap2\n      swap1\n      tag_48\n      jump\t// in\n    tag_47:\n        /* \"contracts/StorageFactory.sol\":664:720  return simpleStorageArray[_simpleStorageIndex].retrive() */\n      swap1\n      pop\n        /* \"contracts/StorageFactory.sol\":580:728  function sfGet(uint256 _simpleStorageIndex) public view returns (uint256){\r... */\n      swap2\n      swap1\n      pop\n      jump\t// out\n    tag_35:\n      dataSize(sub_0)\n      dup1\n      dataOffset(sub_0)\n      dup4\n      codecopy\n      add\n      swap1\n      jump\t// out\n        /* \"#utility.yul\":7:146   */\n    tag_50:\n        /* \"#utility.yul\":53:58   */\n      0x00\n        /* \"#utility.yul\":91:97   */\n      dup2\n        /* \"#utility.yul\":78:98   */\n      calldataload\n        /* \"#utility.yul\":69:98   */\n      swap1\n      pop\n        /* \"#utility.yul\":107:140   */\n      tag_52\n        /* \"#utility.yul\":134:139   */\n      dup2\n        /* \"#utility.yul\":107:140   */\n      tag_53\n      jump\t// in\n    tag_52:\n        /* \"#utility.yul\":7:146   */\n      swap3\n      swap2\n      pop\n      pop\n      jump\t// out\n        /* \"#utility.yul\":152:295   */\n    tag_54:\n        /* \"#utility.yul\":209:214   */\n      0x00\n        /* \"#utility.yul\":240:246   */\n      dup2\n        /* \"#utility.yul\":234:247   */\n      mload\n        /* \"#utility.yul\":225:247   */\n      swap1\n      pop\n        /* \"#utility.yul\":256:289   */\n      tag_56\n        /* \"#utility.yul\":283:288   */\n      dup2\n        /* \"#utility.yul\":256:289   */\n      tag_53\n      jump\t// in\n    tag_56:\n        /* \"#utility.yul\":152:295   */\n      swap3\n      swap2\n      pop\n      pop\n      jump\t// out\n        /* \"#utility.yul\":301:630   */\n    tag_15:\n        /* \"#utility.yul\":360:366   */\n      0x00\n        /* \"#utility.yul\":409:411   */\n      0x20\n        /* \"#utility.yul\":397:406   */\n      dup3\n        /* \"#utility.yul\":388:395   */\n      dup5\n        /* \"#utility.yul\":384:407   */\n      sub\n        /* \"#utility.yul\":380:412   */\n      slt\n        /* \"#utility.yul\":377:496   */\n      iszero\n      tag_58\n      jumpi\n        /* \"#utility.yul\":415:494   */\n      tag_59\n      tag_60\n      jump\t// in\n    tag_59:\n        /* \"#utility.yul\":377:496   */\n    tag_58:\n        /* \"#utility.yul\":535:536   */\n      0x00\n        /* \"#utility.yul\":560:613   */\n      tag_61\n        /* \"#utility.yul\":605:612   */\n      dup5\n        /* \"#utility.yul\":596:602   */\n      dup3\n        /* \"#utility.yul\":585:594   */\n      dup6\n        /* \"#utility.yul\":581:603   */\n      add\n        /* \"#utility.yul\":560:613   */\n      tag_50\n      jump\t// in\n    tag_61:\n        /* \"#utility.yul\":550:613   */\n      swap2\n      pop\n        /* \"#utility.yul\":506:623   */\n      pop\n        /* \"#utility.yul\":301:630   */\n      swap3\n      swap2\n      pop\n      pop\n      jump\t// out\n        /* \"#utility.yul\":636:987   */\n    tag_48:\n        /* \"#utility.yul\":706:712   */\n      0x00\n        /* \"#utility.yul\":755:757   */\n      0x20\n        /* \"#utility.yul\":743:752   */\n      dup3\n        /* \"#utility.yul\":734:741   */\n      dup5\n        /* \"#utility.yul\":730:753   */\n      sub\n        /* \"#utility.yul\":726:758   */\n      slt\n        /* \"#utility.yul\":723:842   */\n      iszero\n      tag_63\n      jumpi\n        /* \"#utility.yul\":761:840   */\n      tag_64\n      tag_60\n      jump\t// in\n    tag_64:\n        /* \"#utility.yul\":723:842   */\n    tag_63:\n        /* \"#utility.yul\":881:882   */\n      0x00\n        /* \"#utility.yul\":906:970   */\n      tag_65\n        /* \"#utility.yul\":962:969   */\n      dup5\n        /* \"#utility.yul\":953:959   */\n      dup3\n        /* \"#utility.yul\":942:951   */\n      dup6\n        /* \"#utility.yul\":938:960   */\n      add\n        /* \"#utility.yul\":906:970   */\n      tag_54\n      jump\t// in\n    tag_65:\n        /* \"#utility.yul\":896:970   */\n      swap2\n      pop\n        /* \"#utility.yul\":852:980   */\n      pop\n        /* \"#utility.yul\":636:987   */\n      swap3\n      swap2\n      pop\n      pop\n      jump\t// out\n        /* \"#utility.yul\":993:1467   */\n    tag_9:\n        /* \"#utility.yul\":1061:1067   */\n      0x00\n        /* \"#utility.yul\":1069:1075   */\n      dup1\n        /* \"#utility.yul\":1118:1120   */\n      0x40\n        /* \"#utility.yul\":1106:1115   */\n      dup4\n        /* \"#utility.yul\":1097:1104   */\n      dup6\n        /* \"#utility.yul\":1093:1116   */\n      sub\n        /* \"#utility.yul\":1089:1121   */\n      slt\n        /* \"#utility.yul\":1086:1205   */\n      iszero\n      tag_67\n      jumpi\n        /* \"#utility.yul\":1124:1203   */\n      tag_68\n      tag_60\n      jump\t// in\n    tag_68:\n        /* \"#utility.yul\":1086:1205   */\n    tag_67:\n        /* \"#utility.yul\":1244:1245   */\n      0x00\n        /* \"#utility.yul\":1269:1322   */\n      tag_69\n        /* \"#utility.yul\":1314:1321   */\n      dup6\n        /* \"#utility.yul\":1305:1311   */\n      dup3\n        /* \"#utility.yul\":1294:1303   */\n      dup7\n        /* \"#utility.yul\":1290:1312   */\n      add\n        /* \"#utility.yul\":1269:1322   */\n      tag_50\n      jump\t// in\n    tag_69:\n        /* \"#utility.yul\":1259:1322   */\n      swap3\n      pop\n        /* \"#utility.yul\":1215:1332   */\n      pop\n        /* \"#utility.yul\":1371:1373   */\n      0x20\n        /* \"#utility.yul\":1397:1450   */\n      tag_70\n        /* \"#utility.yul\":1442:1449   */\n      dup6\n        /* \"#utility.yul\":1433:1439   */\n      dup3\n        /* \"#utility.yul\":1422:1431   */\n      dup7\n        /* \"#utility.yul\":1418:1440   */\n      add\n        /* \"#utility.yul\":1397:1450   */\n      tag_50\n      jump\t// in\n    tag_70:\n        /* \"#utility.yul\":1387:1450   */\n      swap2\n      pop\n        /* \"#utility.yul\":1342:1460   */\n      pop\n        /* \"#utility.yul\":993:1467   */\n      swap3\n      pop\n      swap3\n      swap1\n      pop\n      jump\t// out\n        /* \"#utility.yul\":1473:1644   */\n    tag_71:\n        /* \"#utility.yul\":1580:1637   */\n      tag_73\n        /* \"#utility.yul\":1631:1636   */\n      dup2\n        /* \"#utility.yul\":1580:1637   */\n      tag_74\n      jump\t// in\n    tag_73:\n        /* \"#utility.yul\":1575:1578   */\n      dup3\n        /* \"#utility.yul\":1568:1638   */\n      mstore\n        /* \"#utility.yul\":1473:1644   */\n      pop\n      pop\n      jump\t// out\n        /* \"#utility.yul\":1650:1768   */\n    tag_75:\n        /* \"#utility.yul\":1737:1761   */\n      tag_77\n        /* \"#utility.yul\":1755:1760   */\n      dup2\n        /* \"#utility.yul\":1737:1761   */\n      tag_78\n      jump\t// in\n    tag_77:\n        /* \"#utility.yul\":1732:1735   */\n      dup3\n        /* \"#utility.yul\":1725:1762   */\n      mstore\n        /* \"#utility.yul\":1650:1768   */\n      pop\n      pop\n      jump\t// out\n        /* \"#utility.yul\":1774:2036   */\n    tag_18:\n        /* \"#utility.yul\":1887:1891   */\n      0x00\n        /* \"#utility.yul\":1925:1927   */\n      0x20\n        /* \"#utility.yul\":1914:1923   */\n      dup3\n        /* \"#utility.yul\":1910:1928   */\n      add\n        /* \"#utility.yul\":1902:1928   */\n      swap1\n      pop\n        /* \"#utility.yul\":1938:2029   */\n      tag_80\n        /* \"#utility.yul\":2026:2027   */\n      0x00\n        /* \"#utility.yul\":2015:2024   */\n      dup4\n        /* \"#utility.yul\":2011:2028   */\n      add\n        /* \"#utility.yul\":2002:2008   */\n      dup5\n        /* \"#utility.yul\":1938:2029   */\n      tag_71\n      jump\t// in\n    tag_80:\n        /* \"#utility.yul\":1774:2036   */\n      swap3\n      swap2\n      pop\n      pop\n      jump\t// out\n        /* \"#utility.yul\":2042:2264   */\n    tag_23:\n        /* \"#utility.yul\":2135:2139   */\n      0x00\n        /* \"#utility.yul\":2173:2175   */\n      0x20\n        /* \"#utility.yul\":2162:2171   */\n      dup3\n        /* \"#utility.yul\":2158:2176   */\n      add\n        /* \"#utility.yul\":2150:2176   */\n      swap1\n      pop\n        /* \"#utility.yul\":2186:2257   */\n      tag_82\n        /* \"#utility.yul\":2254:2255   */\n      0x00\n        /* \"#utility.yul\":2243:2252   */\n      dup4\n        /* \"#utility.yul\":2239:2256   */\n      add\n        /* \"#utility.yul\":2230:2236   */\n      dup5\n        /* \"#utility.yul\":2186:2257   */\n      tag_75\n      jump\t// in\n    tag_82:\n        /* \"#utility.yul\":2042:2264   */\n      swap3\n      swap2\n      pop\n      pop\n      jump\t// out\n        /* \"#utility.yul\":2351:2477   */\n    tag_85:\n        /* \"#utility.yul\":2388:2395   */\n      0x00\n        /* \"#utility.yul\":2428:2470   */\n      0xffffffffffffffffffffffffffffffffffffffff\n        /* \"#utility.yul\":2421:2426   */\n      dup3\n        /* \"#utility.yul\":2417:2471   */\n      and\n        /* \"#utility.yul\":2406:2471   */\n      swap1\n      pop\n        /* \"#utility.yul\":2351:2477   */\n      swap2\n      swap1\n      pop\n      jump\t// out\n        /* \"#utility.yul\":2483:2560   */\n    tag_78:\n        /* \"#utility.yul\":2520:2527   */\n      0x00\n        /* \"#utility.yul\":2549:2554   */\n      dup2\n        /* \"#utility.yul\":2538:2554   */\n      swap1\n      pop\n        /* \"#utility.yul\":2483:2560   */\n      swap2\n      swap1\n      pop\n      jump\t// out\n        /* \"#utility.yul\":2566:2712   */\n    tag_74:\n        /* \"#utility.yul\":2636:2645   */\n      0x00\n        /* \"#utility.yul\":2669:2706   */\n      tag_89\n        /* \"#utility.yul\":2700:2705   */\n      dup3\n        /* \"#utility.yul\":2669:2706   */\n      tag_90\n      jump\t// in\n    tag_89:\n        /* \"#utility.yul\":2656:2706   */\n      swap1\n      pop\n        /* \"#utility.yul\":2566:2712   */\n      swap2\n      swap1\n      pop\n      jump\t// out\n        /* \"#utility.yul\":2718:2844   */\n    tag_90:\n        /* \"#utility.yul\":2768:2777   */\n      0x00\n        /* \"#utility.yul\":2801:2838   */\n      tag_92\n        /* \"#utility.yul\":2832:2837   */\n      dup3\n        /* \"#utility.yul\":2801:2838   */\n      tag_93\n      jump\t// in\n    tag_92:\n        /* \"#utility.yul\":2788:2838   */\n      swap1\n      pop\n        /* \"#utility.yul\":2718:2844   */\n      swap2\n      swap1\n      pop\n      jump\t// out\n        /* \"#utility.yul\":2850:2963   */\n    tag_93:\n        /* \"#utility.yul\":2900:2909   */\n      0x00\n        /* \"#utility.yul\":2933:2957   */\n      tag_95\n        /* \"#utility.yul\":2951:2956   */\n      dup3\n        /* \"#utility.yul\":2933:2957   */\n      tag_85\n      jump\t// in\n    tag_95:\n        /* \"#utility.yul\":2920:2957   */\n      swap1\n      pop\n        /* \"#utility.yul\":2850:2963   */\n      swap2\n      swap1\n      pop\n      jump\t// out\n        /* \"#utility.yul\":2969:3149   */\n    tag_27:\n        /* \"#utility.yul\":3017:3094   */\n      0x4e487b7100000000000000000000000000000000000000000000000000000000\n        /* \"#utility.yul\":3014:3015   */\n      0x00\n        /* \"#utility.yul\":3007:3095   */\n      mstore\n        /* \"#utility.yul\":3114:3118   */\n      0x32\n        /* \"#utility.yul\":3111:3112   */\n      0x04\n        /* \"#utility.yul\":3104:3119   */\n      mstore\n        /* \"#utility.yul\":3138:3142   */\n      0x24\n        /* \"#utility.yul\":3135:3136   */\n      0x00\n        /* \"#utility.yul\":3128:3143   */\n      revert\n        /* \"#utility.yul\":3278:3395   */\n    tag_60:\n        /* \"#utility.yul\":3387:3388   */\n      0x00\n        /* \"#utility.yul\":3384:3385   */\n      dup1\n        /* \"#utility.yul\":3377:3389   */\n      revert\n        /* \"#utility.yul\":3401:3523   */\n    tag_53:\n        /* \"#utility.yul\":3474:3498   */\n      tag_101\n        /* \"#utility.yul\":3492:3497   */\n      dup2\n        /* \"#utility.yul\":3474:3498   */\n      tag_78\n      jump\t// in\n    tag_101:\n        /* \"#utility.yul\":3467:3472   */\n      dup2\n        /* \"#utility.yul\":3464:3499   */\n      eq\n        /* \"#utility.yul\":3454:3517   */\n      tag_102\n      jumpi\n        /* \"#utility.yul\":3513:3514   */\n      0x00\n        /* \"#utility.yul\":3510:3511   */\n      dup1\n        /* \"#utility.yul\":3503:3515   */\n      revert\n        /* \"#utility.yul\":3454:3517   */\n    tag_102:\n        /* \"#utility.yul\":3401:3523   */\n      pop\n      jump\t// out\n    stop\n\n    sub_0: assembly {\n            /* \"contracts/SimpleStorage.sol\":60:862  contract SimpleStorage{\r... */\n          mstore(0x40, 0x80)\n          callvalue\n          dup1\n          iszero\n          tag_1\n          jumpi\n          0x00\n          dup1\n          revert\n        tag_1:\n          pop\n          dataSize(sub_0)\n          dup1\n          dataOffset(sub_0)\n          0x00\n          codecopy\n          0x00\n          return\n        stop\n\n        sub_0: assembly {\n                /* \"contracts/SimpleStorage.sol\":60:862  contract SimpleStorage{\r... */\n              mstore(0x40, 0x80)\n              callvalue\n              dup1\n              iszero\n              tag_1\n              jumpi\n              0x00\n              dup1\n              revert\n            tag_1:\n              pop\n              jumpi(tag_2, lt(calldatasize, 0x04))\n              shr(0xe0, calldataload(0x00))\n              dup1\n              0x6057361d\n              eq\n              tag_3\n              jumpi\n              dup1\n              0x8f7d59b8\n              eq\n              tag_4\n              jumpi\n              dup1\n              0x9e7a13ad\n              eq\n              tag_5\n              jumpi\n              dup1\n              0xa6b7fc5b\n              eq\n              tag_6\n              jumpi\n              dup1\n              0xc7a0d9f6\n              eq\n              tag_7\n              jumpi\n            tag_2:\n              0x00\n              dup1\n              revert\n                /* \"contracts/SimpleStorage.sol\":400:484  function store(uint256 _favNum )public virtual{\r... */\n            tag_3:\n              tag_8\n              0x04\n              dup1\n              calldatasize\n              sub\n              dup2\n              add\n              swap1\n              tag_9\n              swap2\n              swap1\n              tag_10\n              jump\t// in\n            tag_9:\n              tag_11\n              jump\t// in\n            tag_8:\n              stop\n                /* \"contracts/SimpleStorage.sol\":738:859  function addPeople(uint256 _favNumber,string memory _name) public{\r... */\n            tag_4:\n              tag_12\n              0x04\n              dup1\n              calldatasize\n              sub\n              dup2\n              add\n              swap1\n              tag_13\n              swap2\n              swap1\n              tag_14\n              jump\t// in\n            tag_13:\n              tag_15\n              jump\t// in\n            tag_12:\n              stop\n                /* \"contracts/SimpleStorage.sol\":371:393  People[] public people */\n            tag_5:\n              tag_16\n              0x04\n              dup1\n              calldatasize\n              sub\n              dup2\n              add\n              swap1\n              tag_17\n              swap2\n              swap1\n              tag_10\n              jump\t// in\n            tag_17:\n              tag_18\n              jump\t// in\n            tag_16:\n              mload(0x40)\n              tag_19\n              swap3\n              swap2\n              swap1\n              tag_20\n              jump\t// in\n            tag_19:\n              mload(0x40)\n              dup1\n              swap2\n              sub\n              swap1\n              return\n                /* \"contracts/SimpleStorage.sol\":647:730  function retrive() public view returns (uint256){\r... */\n            tag_6:\n              tag_21\n              tag_22\n              jump\t// in\n            tag_21:\n              mload(0x40)\n              tag_23\n              swap2\n              swap1\n              tag_24\n              jump\t// in\n            tag_23:\n              mload(0x40)\n              dup1\n              swap2\n              sub\n              swap1\n              return\n                /* \"contracts/SimpleStorage.sol\":164:188  uint256 public favNumber */\n            tag_7:\n              tag_25\n              tag_26\n              jump\t// in\n            tag_25:\n              mload(0x40)\n              tag_27\n              swap2\n              swap1\n              tag_24\n              jump\t// in\n            tag_27:\n              mload(0x40)\n              dup1\n              swap2\n              sub\n              swap1\n              return\n                /* \"contracts/SimpleStorage.sol\":400:484  function store(uint256 _favNum )public virtual{\r... */\n            tag_11:\n                /* \"contracts/SimpleStorage.sol\":469:476  _favNum */\n              dup1\n                /* \"contracts/SimpleStorage.sol\":457:466  favNumber */\n              0x00\n                /* \"contracts/SimpleStorage.sol\":457:476  favNumber = _favNum */\n              dup2\n              swap1\n              sstore\n              pop\n                /* \"contracts/SimpleStorage.sol\":400:484  function store(uint256 _favNum )public virtual{\r... */\n              pop\n              jump\t// out\n                /* \"contracts/SimpleStorage.sol\":738:859  function addPeople(uint256 _favNumber,string memory _name) public{\r... */\n            tag_15:\n                /* \"contracts/SimpleStorage.sol\":814:820  people */\n              0x01\n                /* \"contracts/SimpleStorage.sol\":826:850  People(_favNumber,_name) */\n              mload(0x40)\n              dup1\n              0x40\n              add\n              0x40\n              mstore\n              dup1\n                /* \"contracts/SimpleStorage.sol\":833:843  _favNumber */\n              dup5\n                /* \"contracts/SimpleStorage.sol\":826:850  People(_favNumber,_name) */\n              dup2\n              mstore\n              0x20\n              add\n                /* \"contracts/SimpleStorage.sol\":844:849  _name */\n              dup4\n                /* \"contracts/SimpleStorage.sol\":826:850  People(_favNumber,_name) */\n              dup2\n              mstore\n              pop\n                /* \"contracts/SimpleStorage.sol\":814:851  people.push(People(_favNumber,_name)) */\n              swap1\n              dup1\n              0x01\n              dup2\n              sload\n              add\n              dup1\n              dup3\n              sstore\n              dup1\n              swap2\n              pop\n              pop\n              0x01\n              swap1\n              sub\n              swap1\n              0x00\n              mstore\n              keccak256(0x00, 0x20)\n              swap1\n              0x02\n              mul\n              add\n              0x00\n              swap1\n              swap2\n              swap1\n              swap2\n              swap1\n              swap2\n              pop\n              0x00\n              dup3\n              add\n              mload\n              dup2\n              0x00\n              add\n              sstore\n              0x20\n              dup3\n              add\n              mload\n              dup2\n              0x01\n              add\n              swap1\n              dup1\n              mload\n              swap1\n              0x20\n              add\n              swap1\n              tag_31\n              swap3\n              swap2\n              swap1\n              tag_32\n              jump\t// in\n            tag_31:\n              pop\n              pop\n              pop\n                /* \"contracts/SimpleStorage.sol\":738:859  function addPeople(uint256 _favNumber,string memory _name) public{\r... */\n              pop\n              pop\n              jump\t// out\n                /* \"contracts/SimpleStorage.sol\":371:393  People[] public people */\n            tag_18:\n              0x01\n              dup2\n              dup2\n              sload\n              dup2\n              lt\n              tag_33\n              jumpi\n              0x00\n              dup1\n              revert\n            tag_33:\n              swap1\n              0x00\n              mstore\n              keccak256(0x00, 0x20)\n              swap1\n              0x02\n              mul\n              add\n              0x00\n              swap2\n              pop\n              swap1\n              pop\n              dup1\n              0x00\n              add\n              sload\n              swap1\n              dup1\n              0x01\n              add\n              dup1\n              sload\n              tag_35\n              swap1\n              tag_36\n              jump\t// in\n            tag_35:\n              dup1\n              0x1f\n              add\n              0x20\n              dup1\n              swap2\n              div\n              mul\n              0x20\n              add\n              mload(0x40)\n              swap1\n              dup2\n              add\n              0x40\n              mstore\n              dup1\n              swap3\n              swap2\n              swap1\n              dup2\n              dup2\n              mstore\n              0x20\n              add\n              dup3\n              dup1\n              sload\n              tag_37\n              swap1\n              tag_36\n              jump\t// in\n            tag_37:\n              dup1\n              iszero\n              tag_38\n              jumpi\n              dup1\n              0x1f\n              lt\n              tag_39\n              jumpi\n              0x0100\n              dup1\n              dup4\n              sload\n              div\n              mul\n              dup4\n              mstore\n              swap2\n              0x20\n              add\n              swap2\n              jump(tag_38)\n            tag_39:\n              dup3\n              add\n              swap2\n              swap1\n              0x00\n              mstore\n              keccak256(0x00, 0x20)\n              swap1\n            tag_40:\n              dup2\n              sload\n              dup2\n              mstore\n              swap1\n              0x01\n              add\n              swap1\n              0x20\n              add\n              dup1\n              dup4\n              gt\n              tag_40\n              jumpi\n              dup3\n              swap1\n              sub\n              0x1f\n              and\n              dup3\n              add\n              swap2\n            tag_38:\n              pop\n              pop\n              pop\n              pop\n              pop\n              swap1\n              pop\n              dup3\n              jump\t// out\n                /* \"contracts/SimpleStorage.sol\":647:730  function retrive() public view returns (uint256){\r... */\n            tag_22:\n                /* \"contracts/SimpleStorage.sol\":687:694  uint256 */\n              0x00\n                /* \"contracts/SimpleStorage.sol\":713:722  favNumber */\n              dup1\n              sload\n                /* \"contracts/SimpleStorage.sol\":706:722  return favNumber */\n              swap1\n              pop\n                /* \"contracts/SimpleStorage.sol\":647:730  function retrive() public view returns (uint256){\r... */\n              swap1\n              jump\t// out\n                /* \"contracts/SimpleStorage.sol\":164:188  uint256 public favNumber */\n            tag_26:\n              sload(0x00)\n              dup2\n              jump\t// out\n            tag_32:\n              dup3\n              dup1\n              sload\n              tag_42\n              swap1\n              tag_36\n              jump\t// in\n            tag_42:\n              swap1\n              0x00\n              mstore\n              keccak256(0x00, 0x20)\n              swap1\n              0x1f\n              add\n              0x20\n              swap1\n              div\n              dup2\n              add\n              swap3\n              dup3\n              tag_44\n              jumpi\n              0x00\n              dup6\n              sstore\n              jump(tag_43)\n            tag_44:\n              dup3\n              0x1f\n              lt\n              tag_45\n              jumpi\n              dup1\n              mload\n              not(0xff)\n              and\n              dup4\n              dup1\n              add\n              or\n              dup6\n              sstore\n              jump(tag_43)\n            tag_45:\n              dup3\n              dup1\n              add\n              0x01\n              add\n              dup6\n              sstore\n              dup3\n              iszero\n              tag_43\n              jumpi\n              swap2\n              dup3\n              add\n            tag_46:\n              dup3\n              dup2\n              gt\n              iszero\n              tag_47\n              jumpi\n              dup3\n              mload\n              dup3\n              sstore\n              swap2\n              0x20\n              add\n              swap2\n              swap1\n              0x01\n              add\n              swap1\n              jump(tag_46)\n            tag_47:\n            tag_43:\n              pop\n              swap1\n              pop\n              tag_48\n              swap2\n              swap1\n              tag_49\n              jump\t// in\n            tag_48:\n              pop\n              swap1\n              jump\t// out\n            tag_49:\n            tag_50:\n              dup1\n              dup3\n              gt\n              iszero\n              tag_51\n              jumpi\n              0x00\n              dup2\n              0x00\n              swap1\n              sstore\n              pop\n              0x01\n              add\n              jump(tag_50)\n            tag_51:\n              pop\n              swap1\n              jump\t// out\n                /* \"#utility.yul\":7:419   */\n            tag_53:\n                /* \"#utility.yul\":85:90   */\n              0x00\n                /* \"#utility.yul\":110:176   */\n              tag_55\n                /* \"#utility.yul\":126:175   */\n              tag_56\n                /* \"#utility.yul\":168:174   */\n              dup5\n                /* \"#utility.yul\":126:175   */\n              tag_57\n              jump\t// in\n            tag_56:\n                /* \"#utility.yul\":110:176   */\n              tag_58\n              jump\t// in\n            tag_55:\n                /* \"#utility.yul\":101:176   */\n              swap1\n              pop\n                /* \"#utility.yul\":199:205   */\n              dup3\n                /* \"#utility.yul\":192:197   */\n              dup2\n                /* \"#utility.yul\":185:206   */\n              mstore\n                /* \"#utility.yul\":237:241   */\n              0x20\n                /* \"#utility.yul\":230:235   */\n              dup2\n                /* \"#utility.yul\":226:242   */\n              add\n                /* \"#utility.yul\":275:278   */\n              dup5\n                /* \"#utility.yul\":266:272   */\n              dup5\n                /* \"#utility.yul\":261:264   */\n              dup5\n                /* \"#utility.yul\":257:273   */\n              add\n                /* \"#utility.yul\":254:279   */\n              gt\n                /* \"#utility.yul\":251:363   */\n              iszero\n              tag_59\n              jumpi\n                /* \"#utility.yul\":282:361   */\n              tag_60\n              tag_61\n              jump\t// in\n            tag_60:\n                /* \"#utility.yul\":251:363   */\n            tag_59:\n                /* \"#utility.yul\":372:413   */\n              tag_62\n                /* \"#utility.yul\":406:412   */\n              dup5\n                /* \"#utility.yul\":401:404   */\n              dup3\n                /* \"#utility.yul\":396:399   */\n              dup6\n                /* \"#utility.yul\":372:413   */\n              tag_63\n              jump\t// in\n            tag_62:\n                /* \"#utility.yul\":91:419   */\n              pop\n                /* \"#utility.yul\":7:419   */\n              swap4\n              swap3\n              pop\n              pop\n              pop\n              jump\t// out\n                /* \"#utility.yul\":439:779   */\n            tag_64:\n                /* \"#utility.yul\":495:500   */\n              0x00\n                /* \"#utility.yul\":544:547   */\n              dup3\n                /* \"#utility.yul\":537:541   */\n              0x1f\n                /* \"#utility.yul\":529:535   */\n              dup4\n                /* \"#utility.yul\":525:542   */\n              add\n                /* \"#utility.yul\":521:548   */\n              slt\n                /* \"#utility.yul\":511:633   */\n              tag_66\n              jumpi\n                /* \"#utility.yul\":552:631   */\n              tag_67\n              tag_68\n              jump\t// in\n            tag_67:\n                /* \"#utility.yul\":511:633   */\n            tag_66:\n                /* \"#utility.yul\":669:675   */\n              dup2\n                /* \"#utility.yul\":656:676   */\n              calldataload\n                /* \"#utility.yul\":694:773   */\n              tag_69\n                /* \"#utility.yul\":769:772   */\n              dup5\n                /* \"#utility.yul\":761:767   */\n              dup3\n                /* \"#utility.yul\":754:758   */\n              0x20\n                /* \"#utility.yul\":746:752   */\n              dup7\n                /* \"#utility.yul\":742:759   */\n              add\n                /* \"#utility.yul\":694:773   */\n              tag_53\n              jump\t// in\n            tag_69:\n                /* \"#utility.yul\":685:773   */\n              swap2\n              pop\n                /* \"#utility.yul\":501:779   */\n              pop\n                /* \"#utility.yul\":439:779   */\n              swap3\n              swap2\n              pop\n              pop\n              jump\t// out\n                /* \"#utility.yul\":785:924   */\n            tag_70:\n                /* \"#utility.yul\":831:836   */\n              0x00\n                /* \"#utility.yul\":869:875   */\n              dup2\n                /* \"#utility.yul\":856:876   */\n              calldataload\n                /* \"#utility.yul\":847:876   */\n              swap1\n              pop\n                /* \"#utility.yul\":885:918   */\n              tag_72\n                /* \"#utility.yul\":912:917   */\n              dup2\n                /* \"#utility.yul\":885:918   */\n              tag_73\n              jump\t// in\n            tag_72:\n                /* \"#utility.yul\":785:924   */\n              swap3\n              swap2\n              pop\n              pop\n              jump\t// out\n                /* \"#utility.yul\":930:1259   */\n            tag_10:\n                /* \"#utility.yul\":989:995   */\n              0x00\n                /* \"#utility.yul\":1038:1040   */\n              0x20\n                /* \"#utility.yul\":1026:1035   */\n              dup3\n                /* \"#utility.yul\":1017:1024   */\n              dup5\n                /* \"#utility.yul\":1013:1036   */\n              sub\n                /* \"#utility.yul\":1009:1041   */\n              slt\n                /* \"#utility.yul\":1006:1125   */\n              iszero\n              tag_75\n              jumpi\n                /* \"#utility.yul\":1044:1123   */\n              tag_76\n              tag_77\n              jump\t// in\n            tag_76:\n                /* \"#utility.yul\":1006:1125   */\n            tag_75:\n                /* \"#utility.yul\":1164:1165   */\n              0x00\n                /* \"#utility.yul\":1189:1242   */\n              tag_78\n                /* \"#utility.yul\":1234:1241   */\n              dup5\n                /* \"#utility.yul\":1225:1231   */\n              dup3\n                /* \"#utility.yul\":1214:1223   */\n              dup6\n                /* \"#utility.yul\":1210:1232   */\n              add\n                /* \"#utility.yul\":1189:1242   */\n              tag_70\n              jump\t// in\n            tag_78:\n                /* \"#utility.yul\":1179:1242   */\n              swap2\n              pop\n                /* \"#utility.yul\":1135:1252   */\n              pop\n                /* \"#utility.yul\":930:1259   */\n              swap3\n              swap2\n              pop\n              pop\n              jump\t// out\n                /* \"#utility.yul\":1265:1919   */\n            tag_14:\n                /* \"#utility.yul\":1343:1349   */\n              0x00\n                /* \"#utility.yul\":1351:1357   */\n              dup1\n                /* \"#utility.yul\":1400:1402   */\n              0x40\n                /* \"#utility.yul\":1388:1397   */\n              dup4\n                /* \"#utility.yul\":1379:1386   */\n              dup6\n                /* \"#utility.yul\":1375:1398   */\n              sub\n                /* \"#utility.yul\":1371:1403   */\n              slt\n                /* \"#utility.yul\":1368:1487   */\n              iszero\n              tag_80\n              jumpi\n                /* \"#utility.yul\":1406:1485   */\n              tag_81\n              tag_77\n              jump\t// in\n            tag_81:\n                /* \"#utility.yul\":1368:1487   */\n            tag_80:\n                /* \"#utility.yul\":1526:1527   */\n              0x00\n                /* \"#utility.yul\":1551:1604   */\n              tag_82\n                /* \"#utility.yul\":1596:1603   */\n              dup6\n                /* \"#utility.yul\":1587:1593   */\n              dup3\n                /* \"#utility.yul\":1576:1585   */\n              dup7\n                /* \"#utility.yul\":1572:1594   */\n              add\n                /* \"#utility.yul\":1551:1604   */\n              tag_70\n              jump\t// in\n            tag_82:\n                /* \"#utility.yul\":1541:1604   */\n              swap3\n              pop\n                /* \"#utility.yul\":1497:1614   */\n              pop\n                /* \"#utility.yul\":1681:1683   */\n              0x20\n                /* \"#utility.yul\":1670:1679   */\n              dup4\n                /* \"#utility.yul\":1666:1684   */\n              add\n                /* \"#utility.yul\":1653:1685   */\n              calldataload\n                /* \"#utility.yul\":1712:1730   */\n              0xffffffffffffffff\n                /* \"#utility.yul\":1704:1710   */\n              dup2\n                /* \"#utility.yul\":1701:1731   */\n              gt\n                /* \"#utility.yul\":1698:1815   */\n              iszero\n              tag_83\n              jumpi\n                /* \"#utility.yul\":1734:1813   */\n              tag_84\n              tag_85\n              jump\t// in\n            tag_84:\n                /* \"#utility.yul\":1698:1815   */\n            tag_83:\n                /* \"#utility.yul\":1839:1902   */\n              tag_86\n                /* \"#utility.yul\":1894:1901   */\n              dup6\n                /* \"#utility.yul\":1885:1891   */\n              dup3\n                /* \"#utility.yul\":1874:1883   */\n              dup7\n                /* \"#utility.yul\":1870:1892   */\n              add\n                /* \"#utility.yul\":1839:1902   */\n              tag_64\n              jump\t// in\n            tag_86:\n                /* \"#utility.yul\":1829:1902   */\n              swap2\n              pop\n                /* \"#utility.yul\":1624:1912   */\n              pop\n                /* \"#utility.yul\":1265:1919   */\n              swap3\n              pop\n              swap3\n              swap1\n              pop\n              jump\t// out\n                /* \"#utility.yul\":1925:2289   */\n            tag_87:\n                /* \"#utility.yul\":2013:2016   */\n              0x00\n                /* \"#utility.yul\":2041:2080   */\n              tag_89\n                /* \"#utility.yul\":2074:2079   */\n              dup3\n                /* \"#utility.yul\":2041:2080   */\n              tag_90\n              jump\t// in\n            tag_89:\n                /* \"#utility.yul\":2096:2167   */\n              tag_91\n                /* \"#utility.yul\":2160:2166   */\n              dup2\n                /* \"#utility.yul\":2155:2158   */\n              dup6\n                /* \"#utility.yul\":2096:2167   */\n              tag_92\n              jump\t// in\n            tag_91:\n                /* \"#utility.yul\":2089:2167   */\n              swap4\n              pop\n                /* \"#utility.yul\":2176:2228   */\n              tag_93\n                /* \"#utility.yul\":2221:2227   */\n              dup2\n                /* \"#utility.yul\":2216:2219   */\n              dup6\n                /* \"#utility.yul\":2209:2213   */\n              0x20\n                /* \"#utility.yul\":2202:2207   */\n              dup7\n                /* \"#utility.yul\":2198:2214   */\n              add\n                /* \"#utility.yul\":2176:2228   */\n              tag_94\n              jump\t// in\n            tag_93:\n                /* \"#utility.yul\":2253:2282   */\n              tag_95\n                /* \"#utility.yul\":2275:2281   */\n              dup2\n                /* \"#utility.yul\":2253:2282   */\n              tag_96\n              jump\t// in\n            tag_95:\n                /* \"#utility.yul\":2248:2251   */\n              dup5\n                /* \"#utility.yul\":2244:2283   */\n              add\n                /* \"#utility.yul\":2237:2283   */\n              swap2\n              pop\n                /* \"#utility.yul\":2017:2289   */\n              pop\n                /* \"#utility.yul\":1925:2289   */\n              swap3\n              swap2\n              pop\n              pop\n              jump\t// out\n                /* \"#utility.yul\":2295:2413   */\n            tag_97:\n                /* \"#utility.yul\":2382:2406   */\n              tag_99\n                /* \"#utility.yul\":2400:2405   */\n              dup2\n                /* \"#utility.yul\":2382:2406   */\n              tag_100\n              jump\t// in\n            tag_99:\n                /* \"#utility.yul\":2377:2380   */\n              dup3\n                /* \"#utility.yul\":2370:2407   */\n              mstore\n                /* \"#utility.yul\":2295:2413   */\n              pop\n              pop\n              jump\t// out\n                /* \"#utility.yul\":2419:2641   */\n            tag_24:\n                /* \"#utility.yul\":2512:2516   */\n              0x00\n                /* \"#utility.yul\":2550:2552   */\n              0x20\n                /* \"#utility.yul\":2539:2548   */\n              dup3\n                /* \"#utility.yul\":2535:2553   */\n              add\n                /* \"#utility.yul\":2527:2553   */\n              swap1\n              pop\n                /* \"#utility.yul\":2563:2634   */\n              tag_102\n                /* \"#utility.yul\":2631:2632   */\n              0x00\n                /* \"#utility.yul\":2620:2629   */\n              dup4\n                /* \"#utility.yul\":2616:2633   */\n              add\n                /* \"#utility.yul\":2607:2613   */\n              dup5\n                /* \"#utility.yul\":2563:2634   */\n              tag_97\n              jump\t// in\n            tag_102:\n                /* \"#utility.yul\":2419:2641   */\n              swap3\n              swap2\n              pop\n              pop\n              jump\t// out\n                /* \"#utility.yul\":2647:3070   */\n            tag_20:\n                /* \"#utility.yul\":2788:2792   */\n              0x00\n                /* \"#utility.yul\":2826:2828   */\n              0x40\n                /* \"#utility.yul\":2815:2824   */\n              dup3\n                /* \"#utility.yul\":2811:2829   */\n              add\n                /* \"#utility.yul\":2803:2829   */\n              swap1\n              pop\n                /* \"#utility.yul\":2839:2910   */\n              tag_104\n                /* \"#utility.yul\":2907:2908   */\n              0x00\n                /* \"#utility.yul\":2896:2905   */\n              dup4\n                /* \"#utility.yul\":2892:2909   */\n              add\n                /* \"#utility.yul\":2883:2889   */\n              dup6\n                /* \"#utility.yul\":2839:2910   */\n              tag_97\n              jump\t// in\n            tag_104:\n                /* \"#utility.yul\":2957:2966   */\n              dup2\n                /* \"#utility.yul\":2951:2955   */\n              dup2\n                /* \"#utility.yul\":2947:2967   */\n              sub\n                /* \"#utility.yul\":2942:2944   */\n              0x20\n                /* \"#utility.yul\":2931:2940   */\n              dup4\n                /* \"#utility.yul\":2927:2945   */\n              add\n                /* \"#utility.yul\":2920:2968   */\n              mstore\n                /* \"#utility.yul\":2985:3063   */\n              tag_105\n                /* \"#utility.yul\":3058:3062   */\n              dup2\n                /* \"#utility.yul\":3049:3055   */\n              dup5\n                /* \"#utility.yul\":2985:3063   */\n              tag_87\n              jump\t// in\n            tag_105:\n                /* \"#utility.yul\":2977:3063   */\n              swap1\n              pop\n                /* \"#utility.yul\":2647:3070   */\n              swap4\n              swap3\n              pop\n              pop\n              pop\n              jump\t// out\n                /* \"#utility.yul\":3076:3205   */\n            tag_58:\n                /* \"#utility.yul\":3110:3116   */\n              0x00\n                /* \"#utility.yul\":3137:3157   */\n              tag_107\n              tag_108\n              jump\t// in\n            tag_107:\n                /* \"#utility.yul\":3127:3157   */\n              swap1\n              pop\n                /* \"#utility.yul\":3166:3199   */\n              tag_109\n                /* \"#utility.yul\":3194:3198   */\n              dup3\n                /* \"#utility.yul\":3186:3192   */\n              dup3\n                /* \"#utility.yul\":3166:3199   */\n              tag_110\n              jump\t// in\n            tag_109:\n                /* \"#utility.yul\":3076:3205   */\n              swap2\n              swap1\n              pop\n              jump\t// out\n                /* \"#utility.yul\":3211:3286   */\n            tag_108:\n                /* \"#utility.yul\":3244:3250   */\n              0x00\n                /* \"#utility.yul\":3277:3279   */\n              0x40\n                /* \"#utility.yul\":3271:3280   */\n              mload\n                /* \"#utility.yul\":3261:3280   */\n              swap1\n              pop\n                /* \"#utility.yul\":3211:3286   */\n              swap1\n              jump\t// out\n                /* \"#utility.yul\":3292:3600   */\n            tag_57:\n                /* \"#utility.yul\":3354:3358   */\n              0x00\n                /* \"#utility.yul\":3444:3462   */\n              0xffffffffffffffff\n                /* \"#utility.yul\":3436:3442   */\n              dup3\n                /* \"#utility.yul\":3433:3463   */\n              gt\n                /* \"#utility.yul\":3430:3486   */\n              iszero\n              tag_113\n              jumpi\n                /* \"#utility.yul\":3466:3484   */\n              tag_114\n              tag_115\n              jump\t// in\n            tag_114:\n                /* \"#utility.yul\":3430:3486   */\n            tag_113:\n                /* \"#utility.yul\":3504:3533   */\n              tag_116\n                /* \"#utility.yul\":3526:3532   */\n              dup3\n                /* \"#utility.yul\":3504:3533   */\n              tag_96\n              jump\t// in\n            tag_116:\n                /* \"#utility.yul\":3496:3533   */\n              swap1\n              pop\n                /* \"#utility.yul\":3588:3592   */\n              0x20\n                /* \"#utility.yul\":3582:3586   */\n              dup2\n                /* \"#utility.yul\":3578:3593   */\n              add\n                /* \"#utility.yul\":3570:3593   */\n              swap1\n              pop\n                /* \"#utility.yul\":3292:3600   */\n              swap2\n              swap1\n              pop\n              jump\t// out\n                /* \"#utility.yul\":3606:3705   */\n            tag_90:\n                /* \"#utility.yul\":3658:3664   */\n              0x00\n                /* \"#utility.yul\":3692:3697   */\n              dup2\n                /* \"#utility.yul\":3686:3698   */\n              mload\n                /* \"#utility.yul\":3676:3698   */\n              swap1\n              pop\n                /* \"#utility.yul\":3606:3705   */\n              swap2\n              swap1\n              pop\n              jump\t// out\n                /* \"#utility.yul\":3711:3880   */\n            tag_92:\n                /* \"#utility.yul\":3795:3806   */\n              0x00\n                /* \"#utility.yul\":3829:3835   */\n              dup3\n                /* \"#utility.yul\":3824:3827   */\n              dup3\n                /* \"#utility.yul\":3817:3836   */\n              mstore\n                /* \"#utility.yul\":3869:3873   */\n              0x20\n                /* \"#utility.yul\":3864:3867   */\n              dup3\n                /* \"#utility.yul\":3860:3874   */\n              add\n                /* \"#utility.yul\":3845:3874   */\n              swap1\n              pop\n                /* \"#utility.yul\":3711:3880   */\n              swap3\n              swap2\n              pop\n              pop\n              jump\t// out\n                /* \"#utility.yul\":3886:3963   */\n            tag_100:\n                /* \"#utility.yul\":3923:3930   */\n              0x00\n                /* \"#utility.yul\":3952:3957   */\n              dup2\n                /* \"#utility.yul\":3941:3957   */\n              swap1\n              pop\n                /* \"#utility.yul\":3886:3963   */\n              swap2\n              swap1\n              pop\n              jump\t// out\n                /* \"#utility.yul\":3969:4123   */\n            tag_63:\n                /* \"#utility.yul\":4053:4059   */\n              dup3\n                /* \"#utility.yul\":4048:4051   */\n              dup2\n                /* \"#utility.yul\":4043:4046   */\n              dup4\n                /* \"#utility.yul\":4030:4060   */\n              calldatacopy\n                /* \"#utility.yul\":4115:4116   */\n              0x00\n                /* \"#utility.yul\":4106:4112   */\n              dup4\n                /* \"#utility.yul\":4101:4104   */\n              dup4\n                /* \"#utility.yul\":4097:4113   */\n              add\n                /* \"#utility.yul\":4090:4117   */\n              mstore\n                /* \"#utility.yul\":3969:4123   */\n              pop\n              pop\n              pop\n              jump\t// out\n                /* \"#utility.yul\":4129:4436   */\n            tag_94:\n                /* \"#utility.yul\":4197:4198   */\n              0x00\n                /* \"#utility.yul\":4207:4320   */\n            tag_122:\n                /* \"#utility.yul\":4221:4227   */\n              dup4\n                /* \"#utility.yul\":4218:4219   */\n              dup2\n                /* \"#utility.yul\":4215:4228   */\n              lt\n                /* \"#utility.yul\":4207:4320   */\n              iszero\n              tag_124\n              jumpi\n                /* \"#utility.yul\":4306:4307   */\n              dup1\n                /* \"#utility.yul\":4301:4304   */\n              dup3\n                /* \"#utility.yul\":4297:4308   */\n              add\n                /* \"#utility.yul\":4291:4309   */\n              mload\n                /* \"#utility.yul\":4287:4288   */\n              dup2\n                /* \"#utility.yul\":4282:4285   */\n              dup5\n                /* \"#utility.yul\":4278:4289   */\n              add\n                /* \"#utility.yul\":4271:4310   */\n              mstore\n                /* \"#utility.yul\":4243:4245   */\n              0x20\n                /* \"#utility.yul\":4240:4241   */\n              dup2\n                /* \"#utility.yul\":4236:4246   */\n              add\n                /* \"#utility.yul\":4231:4246   */\n              swap1\n              pop\n                /* \"#utility.yul\":4207:4320   */\n              jump(tag_122)\n            tag_124:\n                /* \"#utility.yul\":4338:4344   */\n              dup4\n                /* \"#utility.yul\":4335:4336   */\n              dup2\n                /* \"#utility.yul\":4332:4345   */\n              gt\n                /* \"#utility.yul\":4329:4430   */\n              iszero\n              tag_125\n              jumpi\n                /* \"#utility.yul\":4418:4419   */\n              0x00\n                /* \"#utility.yul\":4409:4415   */\n              dup5\n                /* \"#utility.yul\":4404:4407   */\n              dup5\n                /* \"#utility.yul\":4400:4416   */\n              add\n                /* \"#utility.yul\":4393:4420   */\n              mstore\n                /* \"#utility.yul\":4329:4430   */\n            tag_125:\n                /* \"#utility.yul\":4178:4436   */\n              pop\n                /* \"#utility.yul\":4129:4436   */\n              pop\n              pop\n              pop\n              jump\t// out\n                /* \"#utility.yul\":4442:4762   */\n            tag_36:\n                /* \"#utility.yul\":4486:4492   */\n              0x00\n                /* \"#utility.yul\":4523:4524   */\n              0x02\n                /* \"#utility.yul\":4517:4521   */\n              dup3\n                /* \"#utility.yul\":4513:4525   */\n              div\n                /* \"#utility.yul\":4503:4525   */\n              swap1\n              pop\n                /* \"#utility.yul\":4570:4571   */\n              0x01\n                /* \"#utility.yul\":4564:4568   */\n              dup3\n                /* \"#utility.yul\":4560:4572   */\n              and\n                /* \"#utility.yul\":4591:4609   */\n              dup1\n                /* \"#utility.yul\":4581:4662   */\n              tag_127\n              jumpi\n                /* \"#utility.yul\":4647:4651   */\n              0x7f\n                /* \"#utility.yul\":4639:4645   */\n              dup3\n                /* \"#utility.yul\":4635:4652   */\n              and\n                /* \"#utility.yul\":4625:4652   */\n              swap2\n              pop\n                /* \"#utility.yul\":4581:4662   */\n            tag_127:\n                /* \"#utility.yul\":4709:4711   */\n              0x20\n                /* \"#utility.yul\":4701:4707   */\n              dup3\n                /* \"#utility.yul\":4698:4712   */\n              lt\n                /* \"#utility.yul\":4678:4696   */\n              dup2\n                /* \"#utility.yul\":4675:4713   */\n              eq\n                /* \"#utility.yul\":4672:4756   */\n              iszero\n              tag_128\n              jumpi\n                /* \"#utility.yul\":4728:4746   */\n              tag_129\n              tag_130\n              jump\t// in\n            tag_129:\n                /* \"#utility.yul\":4672:4756   */\n            tag_128:\n                /* \"#utility.yul\":4493:4762   */\n              pop\n                /* \"#utility.yul\":4442:4762   */\n              swap2\n              swap1\n              pop\n              jump\t// out\n                /* \"#utility.yul\":4768:5049   */\n            tag_110:\n                /* \"#utility.yul\":4851:4878   */\n              tag_132\n                /* \"#utility.yul\":4873:4877   */\n              dup3\n                /* \"#utility.yul\":4851:4878   */\n              tag_96\n              jump\t// in\n            tag_132:\n                /* \"#utility.yul\":4843:4849   */\n              dup2\n                /* \"#utility.yul\":4839:4879   */\n              add\n                /* \"#utility.yul\":4981:4987   */\n              dup2\n                /* \"#utility.yul\":4969:4979   */\n              dup2\n                /* \"#utility.yul\":4966:4988   */\n              lt\n                /* \"#utility.yul\":4945:4963   */\n              0xffffffffffffffff\n                /* \"#utility.yul\":4933:4943   */\n              dup3\n                /* \"#utility.yul\":4930:4964   */\n              gt\n                /* \"#utility.yul\":4927:4989   */\n              or\n                /* \"#utility.yul\":4924:5012   */\n              iszero\n              tag_133\n              jumpi\n                /* \"#utility.yul\":4992:5010   */\n              tag_134\n              tag_115\n              jump\t// in\n            tag_134:\n                /* \"#utility.yul\":4924:5012   */\n            tag_133:\n                /* \"#utility.yul\":5032:5042   */\n              dup1\n                /* \"#utility.yul\":5028:5030   */\n              0x40\n                /* \"#utility.yul\":5021:5043   */\n              mstore\n                /* \"#utility.yul\":4811:5049   */\n              pop\n                /* \"#utility.yul\":4768:5049   */\n              pop\n              pop\n              jump\t// out\n                /* \"#utility.yul\":5055:5235   */\n            tag_130:\n                /* \"#utility.yul\":5103:5180   */\n              0x4e487b7100000000000000000000000000000000000000000000000000000000\n                /* \"#utility.yul\":5100:5101   */\n              0x00\n                /* \"#utility.yul\":5093:5181   */\n              mstore\n                /* \"#utility.yul\":5200:5204   */\n              0x22\n                /* \"#utility.yul\":5197:5198   */\n              0x04\n                /* \"#utility.yul\":5190:5205   */\n              mstore\n                /* \"#utility.yul\":5224:5228   */\n              0x24\n                /* \"#utility.yul\":5221:5222   */\n              0x00\n                /* \"#utility.yul\":5214:5229   */\n              revert\n                /* \"#utility.yul\":5241:5421   */\n            tag_115:\n                /* \"#utility.yul\":5289:5366   */\n              0x4e487b7100000000000000000000000000000000000000000000000000000000\n                /* \"#utility.yul\":5286:5287   */\n              0x00\n                /* \"#utility.yul\":5279:5367   */\n              mstore\n                /* \"#utility.yul\":5386:5390   */\n              0x41\n                /* \"#utility.yul\":5383:5384   */\n              0x04\n                /* \"#utility.yul\":5376:5391   */\n              mstore\n                /* \"#utility.yul\":5410:5414   */\n              0x24\n                /* \"#utility.yul\":5407:5408   */\n              0x00\n                /* \"#utility.yul\":5400:5415   */\n              revert\n                /* \"#utility.yul\":5427:5544   */\n            tag_68:\n                /* \"#utility.yul\":5536:5537   */\n              0x00\n                /* \"#utility.yul\":5533:5534   */\n              dup1\n                /* \"#utility.yul\":5526:5538   */\n              revert\n                /* \"#utility.yul\":5550:5667   */\n            tag_61:\n                /* \"#utility.yul\":5659:5660   */\n              0x00\n                /* \"#utility.yul\":5656:5657   */\n              dup1\n                /* \"#utility.yul\":5649:5661   */\n              revert\n                /* \"#utility.yul\":5673:5790   */\n            tag_85:\n                /* \"#utility.yul\":5782:5783   */\n              0x00\n                /* \"#utility.yul\":5779:5780   */\n              dup1\n                /* \"#utility.yul\":5772:5784   */\n              revert\n                /* \"#utility.yul\":5796:5913   */\n            tag_77:\n                /* \"#utility.yul\":5905:5906   */\n              0x00\n                /* \"#utility.yul\":5902:5903   */\n              dup1\n                /* \"#utility.yul\":5895:5907   */\n              revert\n                /* \"#utility.yul\":5919:6021   */\n            tag_96:\n                /* \"#utility.yul\":5960:5966   */\n              0x00\n                /* \"#utility.yul\":6011:6013   */\n              0x1f\n                /* \"#utility.yul\":6007:6014   */\n              not\n                /* \"#utility.yul\":6002:6004   */\n              0x1f\n                /* \"#utility.yul\":5995:6000   */\n              dup4\n                /* \"#utility.yul\":5991:6005   */\n              add\n                /* \"#utility.yul\":5987:6015   */\n              and\n                /* \"#utility.yul\":5977:6015   */\n              swap1\n              pop\n                /* \"#utility.yul\":5919:6021   */\n              swap2\n              swap1\n              pop\n              jump\t// out\n                /* \"#utility.yul\":6027:6149   */\n            tag_73:\n                /* \"#utility.yul\":6100:6124   */\n              tag_143\n                /* \"#utility.yul\":6118:6123   */\n              dup2\n                /* \"#utility.yul\":6100:6124   */\n              tag_100\n              jump\t// in\n            tag_143:\n                /* \"#utility.yul\":6093:6098   */\n              dup2\n                /* \"#utility.yul\":6090:6125   */\n              eq\n                /* \"#utility.yul\":6080:6143   */\n              tag_144\n              jumpi\n                /* \"#utility.yul\":6139:6140   */\n              0x00\n                /* \"#utility.yul\":6136:6137   */\n              dup1\n                /* \"#utility.yul\":6129:6141   */\n              revert\n                /* \"#utility.yul\":6080:6143   */\n            tag_144:\n                /* \"#utility.yul\":6027:6149   */\n              pop\n              jump\t// out\n\n            auxdata: 0xa264697066735822122006c71ecf58b13c74adaa42239b1b8c639ac42af472d6b14bd14551aced4e35bd64736f6c63430008070033\n        }\n    }\n\n    auxdata: 0xa264697066735822122084492d9b09995867009bea76ec8d2f4bbea2b115a181332b14c3c2e897e139c164736f6c63430008070033\n}\n",
				"bytecode": {
					"linkReferences": {},
					"object": "608060405234801561001057600080fd5b50610bb8806100206000396000f3fe608060405234801561001057600080fd5b506004361061004c5760003560e01c80631563700f146100515780631dda65411461006d57806364591bf114610077578063c5f19c20146100a7575b600080fd5b61006b600480360381019061006691906103ab565b6100d7565b005b610075610184565b005b610091600480360381019061008c9190610351565b610217565b60405161009e9190610409565b60405180910390f35b6100c160048036038101906100bc9190610351565b610256565b6040516100ce9190610424565b60405180910390f35b600082815481106100eb576100ea61049f565b5b9060005260206000200160009054906101000a900473ffffffffffffffffffffffffffffffffffffffff1673ffffffffffffffffffffffffffffffffffffffff16636057361d826040518263ffffffff1660e01b815260040161014e9190610424565b600060405180830381600087803b15801561016857600080fd5b505af115801561017c573d6000803e3d6000fd5b505050505050565b60006040516101929061031a565b604051809103906000f0801580156101ae573d6000803e3d6000fd5b5090506000819080600181540180825580915050600190039060005260206000200160009091909190916101000a81548173ffffffffffffffffffffffffffffffffffffffff021916908373ffffffffffffffffffffffffffffffffffffffff16021790555050565b6000818154811061022757600080fd5b906000526020600020016000915054906101000a900473ffffffffffffffffffffffffffffffffffffffff1681565b600080828154811061026b5761026a61049f565b5b9060005260206000200160009054906101000a900473ffffffffffffffffffffffffffffffffffffffff1673ffffffffffffffffffffffffffffffffffffffff1663a6b7fc5b6040518163ffffffff1660e01b815260040160206040518083038186803b1580156102db57600080fd5b505afa1580156102ef573d6000803e3d6000fd5b505050506040513d601f19601f82011682018060405250810190610313919061037e565b9050919050565b610698806104eb83390190565b600081359050610336816104d3565b92915050565b60008151905061034b816104d3565b92915050565b600060208284031215610367576103666104ce565b5b600061037584828501610327565b91505092915050565b600060208284031215610394576103936104ce565b5b60006103a28482850161033c565b91505092915050565b600080604083850312156103c2576103c16104ce565b5b60006103d085828601610327565b92505060206103e185828601610327565b9150509250929050565b6103f481610469565b82525050565b6104038161045f565b82525050565b600060208201905061041e60008301846103eb565b92915050565b600060208201905061043960008301846103fa565b92915050565b600073ffffffffffffffffffffffffffffffffffffffff82169050919050565b6000819050919050565b60006104748261047b565b9050919050565b60006104868261048d565b9050919050565b60006104988261043f565b9050919050565b7f4e487b7100000000000000000000000000000000000000000000000000000000600052603260045260246000fd5b600080fd5b6104dc8161045f565b81146104e757600080fd5b5056fe608060405234801561001057600080fd5b50610678806100206000396000f3fe608060405234801561001057600080fd5b50600436106100575760003560e01c80636057361d1461005c5780638f7d59b8146100785780639e7a13ad14610094578063a6b7fc5b146100c5578063c7a0d9f6146100e3575b600080fd5b6100766004803603810190610071919061036b565b610101565b005b610092600480360381019061008d9190610398565b61010b565b005b6100ae60048036038101906100a9919061036b565b610178565b6040516100bc929190610457565b60405180910390f35b6100cd610234565b6040516100da919061043c565b60405180910390f35b6100eb61023d565b6040516100f8919061043c565b60405180910390f35b8060008190555050565b60016040518060400160405280848152602001838152509080600181540180825580915050600190039060005260206000209060020201600090919091909150600082015181600001556020820151816001019080519060200190610171929190610243565b5050505050565b6001818154811061018857600080fd5b90600052602060002090600202016000915090508060000154908060010180546101b190610545565b80601f01602080910402602001604051908101604052809291908181526020018280546101dd90610545565b801561022a5780601f106101ff5761010080835404028352916020019161022a565b820191906000526020600020905b81548152906001019060200180831161020d57829003601f168201915b5050505050905082565b60008054905090565b60005481565b82805461024f90610545565b90600052602060002090601f01602090048101928261027157600085556102b8565b82601f1061028a57805160ff19168380011785556102b8565b828001600101855582156102b8579182015b828111156102b757825182559160200191906001019061029c565b5b5090506102c591906102c9565b5090565b5b808211156102e25760008160009055506001016102ca565b5090565b60006102f96102f4846104ac565b610487565b9050828152602081018484840111156103155761031461060b565b5b610320848285610503565b509392505050565b600082601f83011261033d5761033c610606565b5b813561034d8482602086016102e6565b91505092915050565b6000813590506103658161062b565b92915050565b60006020828403121561038157610380610615565b5b600061038f84828501610356565b91505092915050565b600080604083850312156103af576103ae610615565b5b60006103bd85828601610356565b925050602083013567ffffffffffffffff8111156103de576103dd610610565b5b6103ea85828601610328565b9150509250929050565b60006103ff826104dd565b61040981856104e8565b9350610419818560208601610512565b6104228161061a565b840191505092915050565b610436816104f9565b82525050565b6000602082019050610451600083018461042d565b92915050565b600060408201905061046c600083018561042d565b818103602083015261047e81846103f4565b90509392505050565b60006104916104a2565b905061049d8282610577565b919050565b6000604051905090565b600067ffffffffffffffff8211156104c7576104c66105d7565b5b6104d08261061a565b9050602081019050919050565b600081519050919050565b600082825260208201905092915050565b6000819050919050565b82818337600083830152505050565b60005b83811015610530578082015181840152602081019050610515565b8381111561053f576000848401525b50505050565b6000600282049050600182168061055d57607f821691505b60208210811415610571576105706105a8565b5b50919050565b6105808261061a565b810181811067ffffffffffffffff8211171561059f5761059e6105d7565b5b80604052505050565b7f4e487b7100000000000000000000000000000000000000000000000000000000600052602260045260246000fd5b7f4e487b7100000000000000000000000000000000000000000000000000000000600052604160045260246000fd5b600080fd5b600080fd5b600080fd5b600080fd5b6000601f19601f8301169050919050565b610634816104f9565b811461063f57600080fd5b5056fea264697066735822122006c71ecf58b13c74adaa42239b1b8c639ac42af472d6b14bd14551aced4e35bd64736f6c63430008070033a264697066735822122084492d9b09995867009bea76ec8d2f4bbea2b115a181332b14c3c2e897e139c164736f6c63430008070033",
					"opcodes": "PUSH1 0x80 PUSH1 0x40 MSTORE CALLVALUE DUP1 ISZERO PUSH2 0x10 JUMPI PUSH1 0x0 DUP1 REVERT JUMPDEST POP PUSH2 0xBB8 DUP1 PUSH2 0x20 PUSH1 0x0 CODECOPY PUSH1 0x0 RETURN INVALID PUSH1 0x80 PUSH1 0x40 MSTORE CALLVALUE DUP1 ISZERO PUSH2 0x10 JUMPI PUSH1 0x0 DUP1 REVERT JUMPDEST POP PUSH1 0x4 CALLDATASIZE LT PUSH2 0x4C JUMPI PUSH1 0x0 CALLDATALOAD PUSH1 0xE0 SHR DUP1 PUSH4 0x1563700F EQ PUSH2 0x51 JUMPI DUP1 PUSH4 0x1DDA6541 EQ PUSH2 0x6D JUMPI DUP1 PUSH4 0x64591BF1 EQ PUSH2 0x77 JUMPI DUP1 PUSH4 0xC5F19C20 EQ PUSH2 0xA7 JUMPI JUMPDEST PUSH1 0x0 DUP1 REVERT JUMPDEST PUSH2 0x6B PUSH1 0x4 DUP1 CALLDATASIZE SUB DUP2 ADD SWAP1 PUSH2 0x66 SWAP2 SWAP1 PUSH2 0x3AB JUMP JUMPDEST PUSH2 0xD7 JUMP JUMPDEST STOP JUMPDEST PUSH2 0x75 PUSH2 0x184 JUMP JUMPDEST STOP JUMPDEST PUSH2 0x91 PUSH1 0x4 DUP1 CALLDATASIZE SUB DUP2 ADD SWAP1 PUSH2 0x8C SWAP2 SWAP1 PUSH2 0x351 JUMP JUMPDEST PUSH2 0x217 JUMP JUMPDEST PUSH1 0x40 MLOAD PUSH2 0x9E SWAP2 SWAP1 PUSH2 0x409 JUMP JUMPDEST PUSH1 0x40 MLOAD DUP1 SWAP2 SUB SWAP1 RETURN JUMPDEST PUSH2 0xC1 PUSH1 0x4 DUP1 CALLDATASIZE SUB DUP2 ADD SWAP1 PUSH2 0xBC SWAP2 SWAP1 PUSH2 0x351 JUMP JUMPDEST PUSH2 0x256 JUMP JUMPDEST PUSH1 0x40 MLOAD PUSH2 0xCE SWAP2 SWAP1 PUSH2 0x424 JUMP JUMPDEST PUSH1 0x40 MLOAD DUP1 SWAP2 SUB SWAP1 RETURN JUMPDEST PUSH1 0x0 DUP3 DUP2 SLOAD DUP2 LT PUSH2 0xEB JUMPI PUSH2 0xEA PUSH2 0x49F JUMP JUMPDEST JUMPDEST SWAP1 PUSH1 0x0 MSTORE PUSH1 0x20 PUSH1 0x0 KECCAK256 ADD PUSH1 0x0 SWAP1 SLOAD SWAP1 PUSH2 0x100 EXP SWAP1 DIV PUSH20 0xFFFFFFFFFFFFFFFFFFFFFFFFFFFFFFFFFFFFFFFF AND PUSH20 0xFFFFFFFFFFFFFFFFFFFFFFFFFFFFFFFFFFFFFFFF AND PUSH4 0x6057361D DUP3 PUSH1 0x40 MLOAD DUP3 PUSH4 0xFFFFFFFF AND PUSH1 0xE0 SHL DUP2 MSTORE PUSH1 0x4 ADD PUSH2 0x14E SWAP2 SWAP1 PUSH2 0x424 JUMP JUMPDEST PUSH1 0x0 PUSH1 0x40 MLOAD DUP1 DUP4 SUB DUP2 PUSH1 0x0 DUP8 DUP1 EXTCODESIZE ISZERO DUP1 ISZERO PUSH2 0x168 JUMPI PUSH1 0x0 DUP1 REVERT JUMPDEST POP GAS CALL ISZERO DUP1 ISZERO PUSH2 0x17C JUMPI RETURNDATASIZE PUSH1 0x0 DUP1 RETURNDATACOPY RETURNDATASIZE PUSH1 0x0 REVERT JUMPDEST POP POP POP POP POP POP JUMP JUMPDEST PUSH1 0x0 PUSH1 0x40 MLOAD PUSH2 0x192 SWAP1 PUSH2 0x31A JUMP JUMPDEST PUSH1 0x40 MLOAD DUP1 SWAP2 SUB SWAP1 PUSH1 0x0 CREATE DUP1 ISZERO DUP1 ISZERO PUSH2 0x1AE JUMPI RETURNDATASIZE PUSH1 0x0 DUP1 RETURNDATACOPY RETURNDATASIZE PUSH1 0x0 REVERT JUMPDEST POP SWAP1 POP PUSH1 0x0 DUP2 SWAP1 DUP1 PUSH1 0x1 DUP2 SLOAD ADD DUP1 DUP3 SSTORE DUP1 SWAP2 POP POP PUSH1 0x1 SWAP1 SUB SWAP1 PUSH1 0x0 MSTORE PUSH1 0x20 PUSH1 0x0 KECCAK256 ADD PUSH1 0x0 SWAP1 SWAP2 SWAP1 SWAP2 SWAP1 SWAP2 PUSH2 0x100 EXP DUP2 SLOAD DUP2 PUSH20 0xFFFFFFFFFFFFFFFFFFFFFFFFFFFFFFFFFFFFFFFF MUL NOT AND SWAP1 DUP4 PUSH20 0xFFFFFFFFFFFFFFFFFFFFFFFFFFFFFFFFFFFFFFFF AND MUL OR SWAP1 SSTORE POP POP JUMP JUMPDEST PUSH1 0x0 DUP2 DUP2 SLOAD DUP2 LT PUSH2 0x227 JUMPI PUSH1 0x0 DUP1 REVERT JUMPDEST SWAP1 PUSH1 0x0 MSTORE PUSH1 0x20 PUSH1 0x0 KECCAK256 ADD PUSH1 0x0 SWAP2 POP SLOAD SWAP1 PUSH2 0x100 EXP SWAP1 DIV PUSH20 0xFFFFFFFFFFFFFFFFFFFFFFFFFFFFFFFFFFFFFFFF AND DUP2 JUMP JUMPDEST PUSH1 0x0 DUP1 DUP3 DUP2 SLOAD DUP2 LT PUSH2 0x26B JUMPI PUSH2 0x26A PUSH2 0x49F JUMP JUMPDEST JUMPDEST SWAP1 PUSH1 0x0 MSTORE PUSH1 0x20 PUSH1 0x0 KECCAK256 ADD PUSH1 0x0 SWAP1 SLOAD SWAP1 PUSH2 0x100 EXP SWAP1 DIV PUSH20 0xFFFFFFFFFFFFFFFFFFFFFFFFFFFFFFFFFFFFFFFF AND PUSH20 0xFFFFFFFFFFFFFFFFFFFFFFFFFFFFFFFFFFFFFFFF AND PUSH4 0xA6B7FC5B PUSH1 0x40 MLOAD DUP2 PUSH4 0xFFFFFFFF AND PUSH1 0xE0 SHL DUP2 MSTORE PUSH1 0x4 ADD PUSH1 0x20 PUSH1 0x40 MLOAD DUP1 DUP4 SUB DUP2 DUP7 DUP1 EXTCODESIZE ISZERO DUP1 ISZERO PUSH2 0x2DB JUMPI PUSH1 0x0 DUP1 REVERT JUMPDEST POP GAS STATICCALL ISZERO DUP1 ISZERO PUSH2 0x2EF JUMPI RETURNDATASIZE PUSH1 0x0 DUP1 RETURNDATACOPY RETURNDATASIZE PUSH1 0x0 REVERT JUMPDEST POP POP POP POP PUSH1 0x40 MLOAD RETURNDATASIZE PUSH1 0x1F NOT PUSH1 0x1F DUP3 ADD AND DUP3 ADD DUP1 PUSH1 0x40 MSTORE POP DUP2 ADD SWAP1 PUSH2 0x313 SWAP2 SWAP1 PUSH2 0x37E JUMP JUMPDEST SWAP1 POP SWAP2 SWAP1 POP JUMP JUMPDEST PUSH2 0x698 DUP1 PUSH2 0x4EB DUP4 CODECOPY ADD SWAP1 JUMP JUMPDEST PUSH1 0x0 DUP2 CALLDATALOAD SWAP1 POP PUSH2 0x336 DUP2 PUSH2 0x4D3 JUMP JUMPDEST SWAP3 SWAP2 POP POP JUMP JUMPDEST PUSH1 0x0 DUP2 MLOAD SWAP1 POP PUSH2 0x34B DUP2 PUSH2 0x4D3 JUMP JUMPDEST SWAP3 SWAP2 POP POP JUMP JUMPDEST PUSH1 0x0 PUSH1 0x20 DUP3 DUP5 SUB SLT ISZERO PUSH2 0x367 JUMPI PUSH2 0x366 PUSH2 0x4CE JUMP JUMPDEST JUMPDEST PUSH1 0x0 PUSH2 0x375 DUP5 DUP3 DUP6 ADD PUSH2 0x327 JUMP JUMPDEST SWAP2 POP POP SWAP3 SWAP2 POP POP JUMP JUMPDEST PUSH1 0x0 PUSH1 0x20 DUP3 DUP5 SUB SLT ISZERO PUSH2 0x394 JUMPI PUSH2 0x393 PUSH2 0x4CE JUMP JUMPDEST JUMPDEST PUSH1 0x0 PUSH2 0x3A2 DUP5 DUP3 DUP6 ADD PUSH2 0x33C JUMP JUMPDEST SWAP2 POP POP SWAP3 SWAP2 POP POP JUMP JUMPDEST PUSH1 0x0 DUP1 PUSH1 0x40 DUP4 DUP6 SUB SLT ISZERO PUSH2 0x3C2 JUMPI PUSH2 0x3C1 PUSH2 0x4CE JUMP JUMPDEST JUMPDEST PUSH1 0x0 PUSH2 0x3D0 DUP6 DUP3 DUP7 ADD PUSH2 0x327 JUMP JUMPDEST SWAP3 POP POP PUSH1 0x20 PUSH2 0x3E1 DUP6 DUP3 DUP7 ADD PUSH2 0x327 JUMP JUMPDEST SWAP2 POP POP SWAP3 POP SWAP3 SWAP1 POP JUMP JUMPDEST PUSH2 0x3F4 DUP2 PUSH2 0x469 JUMP JUMPDEST DUP3 MSTORE POP POP JUMP JUMPDEST PUSH2 0x403 DUP2 PUSH2 0x45F JUMP JUMPDEST DUP3 MSTORE POP POP JUMP JUMPDEST PUSH1 0x0 PUSH1 0x20 DUP3 ADD SWAP1 POP PUSH2 0x41E PUSH1 0x0 DUP4 ADD DUP5 PUSH2 0x3EB JUMP JUMPDEST SWAP3 SWAP2 POP POP JUMP JUMPDEST PUSH1 0x0 PUSH1 0x20 DUP3 ADD SWAP1 POP PUSH2 0x439 PUSH1 0x0 DUP4 ADD DUP5 PUSH2 0x3FA JUMP JUMPDEST SWAP3 SWAP2 POP POP JUMP JUMPDEST PUSH1 0x0 PUSH20 0xFFFFFFFFFFFFFFFFFFFFFFFFFFFFFFFFFFFFFFFF DUP3 AND SWAP1 POP SWAP2 SWAP1 POP JUMP JUMPDEST PUSH1 0x0 DUP2 SWAP1 POP SWAP2 SWAP1 POP JUMP JUMPDEST PUSH1 0x0 PUSH2 0x474 DUP3 PUSH2 0x47B JUMP JUMPDEST SWAP1 POP SWAP2 SWAP1 POP JUMP JUMPDEST PUSH1 0x0 PUSH2 0x486 DUP3 PUSH2 0x48D JUMP JUMPDEST SWAP1 POP SWAP2 SWAP1 POP JUMP JUMPDEST PUSH1 0x0 PUSH2 0x498 DUP3 PUSH2 0x43F JUMP JUMPDEST SWAP1 POP SWAP2 SWAP1 POP JUMP JUMPDEST PUSH32 0x4E487B7100000000000000000000000000000000000000000000000000000000 PUSH1 0x0 MSTORE PUSH1 0x32 PUSH1 0x4 MSTORE PUSH1 0x24 PUSH1 0x0 REVERT JUMPDEST PUSH1 0x0 DUP1 REVERT JUMPDEST PUSH2 0x4DC DUP2 PUSH2 0x45F JUMP JUMPDEST DUP2 EQ PUSH2 0x4E7 JUMPI PUSH1 0x0 DUP1 REVERT JUMPDEST POP JUMP INVALID PUSH1 0x80 PUSH1 0x40 MSTORE CALLVALUE DUP1 ISZERO PUSH2 0x10 JUMPI PUSH1 0x0 DUP1 REVERT JUMPDEST POP PUSH2 0x678 DUP1 PUSH2 0x20 PUSH1 0x0 CODECOPY PUSH1 0x0 RETURN INVALID PUSH1 0x80 PUSH1 0x40 MSTORE CALLVALUE DUP1 ISZERO PUSH2 0x10 JUMPI PUSH1 0x0 DUP1 REVERT JUMPDEST POP PUSH1 0x4 CALLDATASIZE LT PUSH2 0x57 JUMPI PUSH1 0x0 CALLDATALOAD PUSH1 0xE0 SHR DUP1 PUSH4 0x6057361D EQ PUSH2 0x5C JUMPI DUP1 PUSH4 0x8F7D59B8 EQ PUSH2 0x78 JUMPI DUP1 PUSH4 0x9E7A13AD EQ PUSH2 0x94 JUMPI DUP1 PUSH4 0xA6B7FC5B EQ PUSH2 0xC5 JUMPI DUP1 PUSH4 0xC7A0D9F6 EQ PUSH2 0xE3 JUMPI JUMPDEST PUSH1 0x0 DUP1 REVERT JUMPDEST PUSH2 0x76 PUSH1 0x4 DUP1 CALLDATASIZE SUB DUP2 ADD SWAP1 PUSH2 0x71 SWAP2 SWAP1 PUSH2 0x36B JUMP JUMPDEST PUSH2 0x101 JUMP JUMPDEST STOP JUMPDEST PUSH2 0x92 PUSH1 0x4 DUP1 CALLDATASIZE SUB DUP2 ADD SWAP1 PUSH2 0x8D SWAP2 SWAP1 PUSH2 0x398 JUMP JUMPDEST PUSH2 0x10B JUMP JUMPDEST STOP JUMPDEST PUSH2 0xAE PUSH1 0x4 DUP1 CALLDATASIZE SUB DUP2 ADD SWAP1 PUSH2 0xA9 SWAP2 SWAP1 PUSH2 0x36B JUMP JUMPDEST PUSH2 0x178 JUMP JUMPDEST PUSH1 0x40 MLOAD PUSH2 0xBC SWAP3 SWAP2 SWAP1 PUSH2 0x457 JUMP JUMPDEST PUSH1 0x40 MLOAD DUP1 SWAP2 SUB SWAP1 RETURN JUMPDEST PUSH2 0xCD PUSH2 0x234 JUMP JUMPDEST PUSH1 0x40 MLOAD PUSH2 0xDA SWAP2 SWAP1 PUSH2 0x43C JUMP JUMPDEST PUSH1 0x40 MLOAD DUP1 SWAP2 SUB SWAP1 RETURN JUMPDEST PUSH2 0xEB PUSH2 0x23D JUMP JUMPDEST PUSH1 0x40 MLOAD PUSH2 0xF8 SWAP2 SWAP1 PUSH2 0x43C JUMP JUMPDEST PUSH1 0x40 MLOAD DUP1 SWAP2 SUB SWAP1 RETURN JUMPDEST DUP1 PUSH1 0x0 DUP2 SWAP1 SSTORE POP POP JUMP JUMPDEST PUSH1 0x1 PUSH1 0x40 MLOAD DUP1 PUSH1 0x40 ADD PUSH1 0x40 MSTORE DUP1 DUP5 DUP2 MSTORE PUSH1 0x20 ADD DUP4 DUP2 MSTORE POP SWAP1 DUP1 PUSH1 0x1 DUP2 SLOAD ADD DUP1 DUP3 SSTORE DUP1 SWAP2 POP POP PUSH1 0x1 SWAP1 SUB SWAP1 PUSH1 0x0 MSTORE PUSH1 0x20 PUSH1 0x0 KECCAK256 SWAP1 PUSH1 0x2 MUL ADD PUSH1 0x0 SWAP1 SWAP2 SWAP1 SWAP2 SWAP1 SWAP2 POP PUSH1 0x0 DUP3 ADD MLOAD DUP2 PUSH1 0x0 ADD SSTORE PUSH1 0x20 DUP3 ADD MLOAD DUP2 PUSH1 0x1 ADD SWAP1 DUP1 MLOAD SWAP1 PUSH1 0x20 ADD SWAP1 PUSH2 0x171 SWAP3 SWAP2 SWAP1 PUSH2 0x243 JUMP JUMPDEST POP POP POP POP POP JUMP JUMPDEST PUSH1 0x1 DUP2 DUP2 SLOAD DUP2 LT PUSH2 0x188 JUMPI PUSH1 0x0 DUP1 REVERT JUMPDEST SWAP1 PUSH1 0x0 MSTORE PUSH1 0x20 PUSH1 0x0 KECCAK256 SWAP1 PUSH1 0x2 MUL ADD PUSH1 0x0 SWAP2 POP SWAP1 POP DUP1 PUSH1 0x0 ADD SLOAD SWAP1 DUP1 PUSH1 0x1 ADD DUP1 SLOAD PUSH2 0x1B1 SWAP1 PUSH2 0x545 JUMP JUMPDEST DUP1 PUSH1 0x1F ADD PUSH1 0x20 DUP1 SWAP2 DIV MUL PUSH1 0x20 ADD PUSH1 0x40 MLOAD SWAP1 DUP2 ADD PUSH1 0x40 MSTORE DUP1 SWAP3 SWAP2 SWAP1 DUP2 DUP2 MSTORE PUSH1 0x20 ADD DUP3 DUP1 SLOAD PUSH2 0x1DD SWAP1 PUSH2 0x545 JUMP JUMPDEST DUP1 ISZERO PUSH2 0x22A JUMPI DUP1 PUSH1 0x1F LT PUSH2 0x1FF JUMPI PUSH2 0x100 DUP1 DUP4 SLOAD DIV MUL DUP4 MSTORE SWAP2 PUSH1 0x20 ADD SWAP2 PUSH2 0x22A JUMP JUMPDEST DUP3 ADD SWAP2 SWAP1 PUSH1 0x0 MSTORE PUSH1 0x20 PUSH1 0x0 KECCAK256 SWAP1 JUMPDEST DUP2 SLOAD DUP2 MSTORE SWAP1 PUSH1 0x1 ADD SWAP1 PUSH1 0x20 ADD DUP1 DUP4 GT PUSH2 0x20D JUMPI DUP3 SWAP1 SUB PUSH1 0x1F AND DUP3 ADD SWAP2 JUMPDEST POP POP POP POP POP SWAP1 POP DUP3 JUMP JUMPDEST PUSH1 0x0 DUP1 SLOAD SWAP1 POP SWAP1 JUMP JUMPDEST PUSH1 0x0 SLOAD DUP2 JUMP JUMPDEST DUP3 DUP1 SLOAD PUSH2 0x24F SWAP1 PUSH2 0x545 JUMP JUMPDEST SWAP1 PUSH1 0x0 MSTORE PUSH1 0x20 PUSH1 0x0 KECCAK256 SWAP1 PUSH1 0x1F ADD PUSH1 0x20 SWAP1 DIV DUP2 ADD SWAP3 DUP3 PUSH2 0x271 JUMPI PUSH1 0x0 DUP6 SSTORE PUSH2 0x2B8 JUMP JUMPDEST DUP3 PUSH1 0x1F LT PUSH2 0x28A JUMPI DUP1 MLOAD PUSH1 0xFF NOT AND DUP4 DUP1 ADD OR DUP6 SSTORE PUSH2 0x2B8 JUMP JUMPDEST DUP3 DUP1 ADD PUSH1 0x1 ADD DUP6 SSTORE DUP3 ISZERO PUSH2 0x2B8 JUMPI SWAP2 DUP3 ADD JUMPDEST DUP3 DUP2 GT ISZERO PUSH2 0x2B7 JUMPI DUP3 MLOAD DUP3 SSTORE SWAP2 PUSH1 0x20 ADD SWAP2 SWAP1 PUSH1 0x1 ADD SWAP1 PUSH2 0x29C JUMP JUMPDEST JUMPDEST POP SWAP1 POP PUSH2 0x2C5 SWAP2 SWAP1 PUSH2 0x2C9 JUMP JUMPDEST POP SWAP1 JUMP JUMPDEST JUMPDEST DUP1 DUP3 GT ISZERO PUSH2 0x2E2 JUMPI PUSH1 0x0 DUP2 PUSH1 0x0 SWAP1 SSTORE POP PUSH1 0x1 ADD PUSH2 0x2CA JUMP JUMPDEST POP SWAP1 JUMP JUMPDEST PUSH1 0x0 PUSH2 0x2F9 PUSH2 0x2F4 DUP5 PUSH2 0x4AC JUMP JUMPDEST PUSH2 0x487 JUMP JUMPDEST SWAP1 POP DUP3 DUP2 MSTORE PUSH1 0x20 DUP2 ADD DUP5 DUP5 DUP5 ADD GT ISZERO PUSH2 0x315 JUMPI PUSH2 0x314 PUSH2 0x60B JUMP JUMPDEST JUMPDEST PUSH2 0x320 DUP5 DUP3 DUP6 PUSH2 0x503 JUMP JUMPDEST POP SWAP4 SWAP3 POP POP POP JUMP JUMPDEST PUSH1 0x0 DUP3 PUSH1 0x1F DUP4 ADD SLT PUSH2 0x33D JUMPI PUSH2 0x33C PUSH2 0x606 JUMP JUMPDEST JUMPDEST DUP2 CALLDATALOAD PUSH2 0x34D DUP5 DUP3 PUSH1 0x20 DUP7 ADD PUSH2 0x2E6 JUMP JUMPDEST SWAP2 POP POP SWAP3 SWAP2 POP POP JUMP JUMPDEST PUSH1 0x0 DUP2 CALLDATALOAD SWAP1 POP PUSH2 0x365 DUP2 PUSH2 0x62B JUMP JUMPDEST SWAP3 SWAP2 POP POP JUMP JUMPDEST PUSH1 0x0 PUSH1 0x20 DUP3 DUP5 SUB SLT ISZERO PUSH2 0x381 JUMPI PUSH2 0x380 PUSH2 0x615 JUMP JUMPDEST JUMPDEST PUSH1 0x0 PUSH2 0x38F DUP5 DUP3 DUP6 ADD PUSH2 0x356 JUMP JUMPDEST SWAP2 POP POP SWAP3 SWAP2 POP POP JUMP JUMPDEST PUSH1 0x0 DUP1 PUSH1 0x40 DUP4 DUP6 SUB SLT ISZERO PUSH2 0x3AF JUMPI PUSH2 0x3AE PUSH2 0x615 JUMP JUMPDEST JUMPDEST PUSH1 0x0 PUSH2 0x3BD DUP6 DUP3 DUP7 ADD PUSH2 0x356 JUMP JUMPDEST SWAP3 POP POP PUSH1 0x20 DUP4 ADD CALLDATALOAD PUSH8 0xFFFFFFFFFFFFFFFF DUP2 GT ISZERO PUSH2 0x3DE JUMPI PUSH2 0x3DD PUSH2 0x610 JUMP JUMPDEST JUMPDEST PUSH2 0x3EA DUP6 DUP3 DUP7 ADD PUSH2 0x328 JUMP JUMPDEST SWAP2 POP POP SWAP3 POP SWAP3 SWAP1 POP JUMP JUMPDEST PUSH1 0x0 PUSH2 0x3FF DUP3 PUSH2 0x4DD JUMP JUMPDEST PUSH2 0x409 DUP2 DUP6 PUSH2 0x4E8 JUMP JUMPDEST SWAP4 POP PUSH2 0x419 DUP2 DUP6 PUSH1 0x20 DUP7 ADD PUSH2 0x512 JUMP JUMPDEST PUSH2 0x422 DUP2 PUSH2 0x61A JUMP JUMPDEST DUP5 ADD SWAP2 POP POP SWAP3 SWAP2 POP POP JUMP JUMPDEST PUSH2 0x436 DUP2 PUSH2 0x4F9 JUMP JUMPDEST DUP3 MSTORE POP POP JUMP JUMPDEST PUSH1 0x0 PUSH1 0x20 DUP3 ADD SWAP1 POP PUSH2 0x451 PUSH1 0x0 DUP4 ADD DUP5 PUSH2 0x42D JUMP JUMPDEST SWAP3 SWAP2 POP POP JUMP JUMPDEST PUSH1 0x0 PUSH1 0x40 DUP3 ADD SWAP1 POP PUSH2 0x46C PUSH1 0x0 DUP4 ADD DUP6 PUSH2 0x42D JUMP JUMPDEST DUP2 DUP2 SUB PUSH1 0x20 DUP4 ADD MSTORE PUSH2 0x47E DUP2 DUP5 PUSH2 0x3F4 JUMP JUMPDEST SWAP1 POP SWAP4 SWAP3 POP POP POP JUMP JUMPDEST PUSH1 0x0 PUSH2 0x491 PUSH2 0x4A2 JUMP JUMPDEST SWAP1 POP PUSH2 0x49D DUP3 DUP3 PUSH2 0x577 JUMP JUMPDEST SWAP2 SWAP1 POP JUMP JUMPDEST PUSH1 0x0 PUSH1 0x40 MLOAD SWAP1 POP SWAP1 JUMP JUMPDEST PUSH1 0x0 PUSH8 0xFFFFFFFFFFFFFFFF DUP3 GT ISZERO PUSH2 0x4C7 JUMPI PUSH2 0x4C6 PUSH2 0x5D7 JUMP JUMPDEST JUMPDEST PUSH2 0x4D0 DUP3 PUSH2 0x61A JUMP JUMPDEST SWAP1 POP PUSH1 0x20 DUP2 ADD SWAP1 POP SWAP2 SWAP1 POP JUMP JUMPDEST PUSH1 0x0 DUP2 MLOAD SWAP1 POP SWAP2 SWAP1 POP JUMP JUMPDEST PUSH1 0x0 DUP3 DUP3 MSTORE PUSH1 0x20 DUP3 ADD SWAP1 POP SWAP3 SWAP2 POP POP JUMP JUMPDEST PUSH1 0x0 DUP2 SWAP1 POP SWAP2 SWAP1 POP JUMP JUMPDEST DUP3 DUP2 DUP4 CALLDATACOPY PUSH1 0x0 DUP4 DUP4 ADD MSTORE POP POP POP JUMP JUMPDEST PUSH1 0x0 JUMPDEST DUP4 DUP2 LT ISZERO PUSH2 0x530 JUMPI DUP1 DUP3 ADD MLOAD DUP2 DUP5 ADD MSTORE PUSH1 0x20 DUP2 ADD SWAP1 POP PUSH2 0x515 JUMP JUMPDEST DUP4 DUP2 GT ISZERO PUSH2 0x53F JUMPI PUSH1 0x0 DUP5 DUP5 ADD MSTORE JUMPDEST POP POP POP POP JUMP JUMPDEST PUSH1 0x0 PUSH1 0x2 DUP3 DIV SWAP1 POP PUSH1 0x1 DUP3 AND DUP1 PUSH2 0x55D JUMPI PUSH1 0x7F DUP3 AND SWAP2 POP JUMPDEST PUSH1 0x20 DUP3 LT DUP2 EQ ISZERO PUSH2 0x571 JUMPI PUSH2 0x570 PUSH2 0x5A8 JUMP JUMPDEST JUMPDEST POP SWAP2 SWAP1 POP JUMP JUMPDEST PUSH2 0x580 DUP3 PUSH2 0x61A JUMP JUMPDEST DUP2 ADD DUP2 DUP2 LT PUSH8 0xFFFFFFFFFFFFFFFF DUP3 GT OR ISZERO PUSH2 0x59F JUMPI PUSH2 0x59E PUSH2 0x5D7 JUMP JUMPDEST JUMPDEST DUP1 PUSH1 0x40 MSTORE POP POP POP JUMP JUMPDEST PUSH32 0x4E487B7100000000000000000000000000000000000000000000000000000000 PUSH1 0x0 MSTORE PUSH1 0x22 PUSH1 0x4 MSTORE PUSH1 0x24 PUSH1 0x0 REVERT JUMPDEST PUSH32 0x4E487B7100000000000000000000000000000000000000000000000000000000 PUSH1 0x0 MSTORE PUSH1 0x41 PUSH1 0x4 MSTORE PUSH1 0x24 PUSH1 0x0 REVERT JUMPDEST PUSH1 0x0 DUP1 REVERT JUMPDEST PUSH1 0x0 DUP1 REVERT JUMPDEST PUSH1 0x0 DUP1 REVERT JUMPDEST PUSH1 0x0 DUP1 REVERT JUMPDEST PUSH1 0x0 PUSH1 0x1F NOT PUSH1 0x1F DUP4 ADD AND SWAP1 POP SWAP2 SWAP1 POP JUMP JUMPDEST PUSH2 0x634 DUP2 PUSH2 0x4F9 JUMP JUMPDEST DUP2 EQ PUSH2 0x63F JUMPI PUSH1 0x0 DUP1 REVERT JUMPDEST POP JUMP INVALID LOG2 PUSH5 0x6970667358 0x22 SLT KECCAK256 MOD 0xC7 0x1E 0xCF PC 0xB1 EXTCODECOPY PUSH21 0xADAA42239B1B8C639AC42AF472D6B14BD14551ACED 0x4E CALLDATALOAD 0xBD PUSH5 0x736F6C6343 STOP ADDMOD SMOD STOP CALLER LOG2 PUSH5 0x6970667358 0x22 SLT KECCAK256 DUP5 0x49 0x2D SWAP12 MULMOD SWAP10 PC PUSH8 0x9BEA76EC8D2F4B 0xBE LOG2 0xB1 ISZERO LOG1 DUP2 CALLER 0x2B EQ 0xC3 0xC2 0xE8 SWAP8 0xE1 CODECOPY 0xC1 PUSH5 0x736F6C6343 STOP ADDMOD SMOD STOP CALLER "
				},
				"gasEstimates": {
					"creation": {
						"codeDepositCost": "600000",
						"executionCost": "632",
						"totalCost": "600632"
					},
					"external": {
						"createSimpleStorageContract()": "infinite",
						"sfGet(uint256)": "infinite",
						"sfStore(uint256,uint256)": "infinite",
						"simpleStorageArray(uint256)": "5064"
					}
				},
				"methodIdentifiers": {
					"createSimpleStorageContract()": "1dda6541",
					"sfGet(uint256)": "c5f19c20",
					"sfStore(uint256,uint256)": "1563700f",
					"simpleStorageArray(uint256)": "64591bf1"
				}
			},
			"storageLayout": {
				"storage": [
					{
						"astId": 55,
						"contract": "contracts/StorageFactory.sol:StorageFactory",
						"label": "simpleStorageArray",
						"offset": 0,
						"slot": "0",
						"type": "t_array(t_contract(SimpleStorage)48)dyn_storage"
					}
				],
				"types": {
					"t_array(t_contract(SimpleStorage)48)dyn_storage": {
						"base": "t_contract(SimpleStorage)48",
						"encoding": "dynamic_array",
						"label": "contract SimpleStorage[]",
						"numberOfBytes": "32"
					},
					"t_contract(SimpleStorage)48": {
						"encoding": "inplace",
						"label": "contract SimpleStorage",
						"numberOfBytes": "20"
					}
				}
			},
			"userdoc": {
				"kind": "user",
				"methods": {},
				"version": 1
			}
		}
	}
}