{
	"data": {
		"bytecode": {
			"linkReferences": {},
			"object": "60a0604052674563918244f4000060005534801561001c57600080fd5b503373ffffffffffffffffffffffffffffffffffffffff1660808173ffffffffffffffffffffffffffffffffffffffff1681525050608051610cae6100736000396000818161015301526104ec0152610cae6000f3fe6080604052600436106100555760003560e01c8063213dbea21461005a5780633ccfd60b146100855780633e47d6f31461009c578063b60d4288146100d9578063dba6335f146100e3578063dc0d3dff1461010e575b600080fd5b34801561006657600080fd5b5061006f61014b565b60405161007c91906106f0565b60405180910390f35b34801561009157600080fd5b5061009a610151565b005b3480156100a857600080fd5b506100c360048036038101906100be919061076e565b610392565b6040516100d091906106f0565b60405180910390f35b6100e16103aa565b005b3480156100ef57600080fd5b506100f86104ea565b60405161010591906107aa565b60405180910390f35b34801561011a57600080fd5b50610135600480360381019061013091906107f1565b61050e565b60405161014291906107aa565b60405180910390f35b60005481565b7f000000000000000000000000000000000000000000000000000000000000000073ffffffffffffffffffffffffffffffffffffffff163373ffffffffffffffffffffffffffffffffffffffff16146101d6576040517f30cd747100000000000000000000000000000000000000000000000000000000815260040160405180910390fd5b60005b600180549050811015610282576000600182815481106101fc576101fb61081e565b5b9060005260206000200160009054906101000a900473ffffffffffffffffffffffffffffffffffffffff1690506000600260008373ffffffffffffffffffffffffffffffffffffffff1673ffffffffffffffffffffffffffffffffffffffff1681526020019081526020016000208190555050808061027a9061087c565b9150506101d9565b50600067ffffffffffffffff81111561029e5761029d6108c4565b5b6040519080825280602002602001820160405280156102cc5781602001602082028036833780820191505090505b50600190805190602001906102e2929190610630565b5060003373ffffffffffffffffffffffffffffffffffffffff164760405161030990610924565b60006040518083038185875af1925050503d8060008114610346576040519150601f19603f3d011682016040523d82523d6000602084013e61034b565b606091505b505090508061038f576040517f08c379a000000000000000000000000000000000000000000000000000000000815260040161038690610996565b60405180910390fd5b50565b60026020528060005260406000206000915090505481565b6000546103b63461054d565b10156103f7576040517f08c379a00000000000000000000000000000000000000000000000000000000081526004016103ee90610a02565b60405180910390fd5b6001339080600181540180825580915050600190039060005260206000200160009091909190916101000a81548173ffffffffffffffffffffffffffffffffffffffff021916908373ffffffffffffffffffffffffffffffffffffffff16021790555034600260003373ffffffffffffffffffffffffffffffffffffffff1673ffffffffffffffffffffffffffffffffffffffff168152602001908152602001600020546104a59190610a22565b600260003373ffffffffffffffffffffffffffffffffffffffff1673ffffffffffffffffffffffffffffffffffffffff16815260200190815260200160002081905550565b7f000000000000000000000000000000000000000000000000000000000000000081565b6001818154811061051e57600080fd5b906000526020600020016000915054906101000a900473ffffffffffffffffffffffffffffffffffffffff1681565b600080610558610587565b90506000670de0b6b3a764000084836105719190610a56565b61057b9190610ac7565b90508092505050919050565b60008073694aa1769357215de4fac081bf1f309adc325306905060008173ffffffffffffffffffffffffffffffffffffffff1663feaf968c6040518163ffffffff1660e01b815260040160a060405180830381865afa1580156105ee573d6000803e3d6000fd5b505050506040513d601f19601f820116820180604052508101906106129190610b85565b5050509150506402540be400816106299190610c00565b9250505090565b8280548282559060005260206000209081019282156106a9579160200282015b828111156106a85782518260006101000a81548173ffffffffffffffffffffffffffffffffffffffff021916908373ffffffffffffffffffffffffffffffffffffffff16021790555091602001919060010190610650565b5b5090506106b691906106ba565b5090565b5b808211156106d35760008160009055506001016106bb565b5090565b6000819050919050565b6106ea816106d7565b82525050565b600060208201905061070560008301846106e1565b92915050565b600080fd5b600073ffffffffffffffffffffffffffffffffffffffff82169050919050565b600061073b82610710565b9050919050565b61074b81610730565b811461075657600080fd5b50565b60008135905061076881610742565b92915050565b6000602082840312156107845761078361070b565b5b600061079284828501610759565b91505092915050565b6107a481610730565b82525050565b60006020820190506107bf600083018461079b565b92915050565b6107ce816106d7565b81146107d957600080fd5b50565b6000813590506107eb816107c5565b92915050565b6000602082840312156108075761080661070b565b5b6000610815848285016107dc565b91505092915050565b7f4e487b7100000000000000000000000000000000000000000000000000000000600052603260045260246000fd5b7f4e487b7100000000000000000000000000000000000000000000000000000000600052601160045260246000fd5b6000610887826106d7565b91507fffffffffffffffffffffffffffffffffffffffffffffffffffffffffffffffff82036108b9576108b861084d565b5b600182019050919050565b7f4e487b7100000000000000000000000000000000000000000000000000000000600052604160045260246000fd5b600081905092915050565b50565b600061090e6000836108f3565b9150610919826108fe565b600082019050919050565b600061092f82610901565b9150819050919050565b600082825260208201905092915050565b7f43616c6c206661696c6564000000000000000000000000000000000000000000600082015250565b6000610980600b83610939565b915061098b8261094a565b602082019050919050565b600060208201905081810360008301526109af81610973565b9050919050565b7f4469646e27742073656e6420656e6f6768742045544800000000000000000000600082015250565b60006109ec601683610939565b91506109f7826109b6565b602082019050919050565b60006020820190508181036000830152610a1b816109df565b9050919050565b6000610a2d826106d7565b9150610a38836106d7565b9250828201905080821115610a5057610a4f61084d565b5b92915050565b6000610a61826106d7565b9150610a6c836106d7565b9250828202610a7a816106d7565b91508282048414831517610a9157610a9061084d565b5b5092915050565b7f4e487b7100000000000000000000000000000000000000000000000000000000600052601260045260246000fd5b6000610ad2826106d7565b9150610add836106d7565b925082610aed57610aec610a98565b5b828204905092915050565b600069ffffffffffffffffffff82169050919050565b610b1781610af8565b8114610b2257600080fd5b50565b600081519050610b3481610b0e565b92915050565b6000819050919050565b610b4d81610b3a565b8114610b5857600080fd5b50565b600081519050610b6a81610b44565b92915050565b600081519050610b7f816107c5565b92915050565b600080600080600060a08688031215610ba157610ba061070b565b5b6000610baf88828901610b25565b9550506020610bc088828901610b5b565b9450506040610bd188828901610b70565b9350506060610be288828901610b70565b9250506080610bf388828901610b25565b9150509295509295909350565b6000610c0b82610b3a565b9150610c1683610b3a565b9250828202610c2481610b3a565b91507f80000000000000000000000000000000000000000000000000000000000000008414600084121615610c5c57610c5b61084d565b5b8282058414831517610c7157610c7061084d565b5b509291505056fea2646970667358221220de7436412e32286d0b6315549e5fd00efc1c9b255a21bf1bf13b98fd543709b664736f6c63430008120033",
			"opcodes": "PUSH1 0xA0 PUSH1 0x40 MSTORE PUSH8 0x4563918244F40000 PUSH1 0x0 SSTORE CALLVALUE DUP1 ISZERO PUSH2 0x1C JUMPI PUSH1 0x0 DUP1 REVERT JUMPDEST POP CALLER PUSH20 0xFFFFFFFFFFFFFFFFFFFFFFFFFFFFFFFFFFFFFFFF AND PUSH1 0x80 DUP2 PUSH20 0xFFFFFFFFFFFFFFFFFFFFFFFFFFFFFFFFFFFFFFFF AND DUP2 MSTORE POP POP PUSH1 0x80 MLOAD PUSH2 0xCAE PUSH2 0x73 PUSH1 0x0 CODECOPY PUSH1 0x0 DUP2 DUP2 PUSH2 0x153 ADD MSTORE PUSH2 0x4EC ADD MSTORE PUSH2 0xCAE PUSH1 0x0 RETURN INVALID PUSH1 0x80 PUSH1 0x40 MSTORE PUSH1 0x4 CALLDATASIZE LT PUSH2 0x55 JUMPI PUSH1 0x0 CALLDATALOAD PUSH1 0xE0 SHR DUP1 PUSH4 0x213DBEA2 EQ PUSH2 0x5A JUMPI DUP1 PUSH4 0x3CCFD60B EQ PUSH2 0x85 JUMPI DUP1 PUSH4 0x3E47D6F3 EQ PUSH2 0x9C JUMPI DUP1 PUSH4 0xB60D4288 EQ PUSH2 0xD9 JUMPI DUP1 PUSH4 0xDBA6335F EQ PUSH2 0xE3 JUMPI DUP1 PUSH4 0xDC0D3DFF EQ PUSH2 0x10E JUMPI JUMPDEST PUSH1 0x0 DUP1 REVERT JUMPDEST CALLVALUE DUP1 ISZERO PUSH2 0x66 JUMPI PUSH1 0x0 DUP1 REVERT JUMPDEST POP PUSH2 0x6F PUSH2 0x14B JUMP JUMPDEST PUSH1 0x40 MLOAD PUSH2 0x7C SWAP2 SWAP1 PUSH2 0x6F0 JUMP JUMPDEST PUSH1 0x40 MLOAD DUP1 SWAP2 SUB SWAP1 RETURN JUMPDEST CALLVALUE DUP1 ISZERO PUSH2 0x91 JUMPI PUSH1 0x0 DUP1 REVERT JUMPDEST POP PUSH2 0x9A PUSH2 0x151 JUMP JUMPDEST STOP JUMPDEST CALLVALUE DUP1 ISZERO PUSH2 0xA8 JUMPI PUSH1 0x0 DUP1 REVERT JUMPDEST POP PUSH2 0xC3 PUSH1 0x4 DUP1 CALLDATASIZE SUB DUP2 ADD SWAP1 PUSH2 0xBE SWAP2 SWAP1 PUSH2 0x76E JUMP JUMPDEST PUSH2 0x392 JUMP JUMPDEST PUSH1 0x40 MLOAD PUSH2 0xD0 SWAP2 SWAP1 PUSH2 0x6F0 JUMP JUMPDEST PUSH1 0x40 MLOAD DUP1 SWAP2 SUB SWAP1 RETURN JUMPDEST PUSH2 0xE1 PUSH2 0x3AA JUMP JUMPDEST STOP JUMPDEST CALLVALUE DUP1 ISZERO PUSH2 0xEF JUMPI PUSH1 0x0 DUP1 REVERT JUMPDEST POP PUSH2 0xF8 PUSH2 0x4EA JUMP JUMPDEST PUSH1 0x40 MLOAD PUSH2 0x105 SWAP2 SWAP1 PUSH2 0x7AA JUMP JUMPDEST PUSH1 0x40 MLOAD DUP1 SWAP2 SUB SWAP1 RETURN JUMPDEST CALLVALUE DUP1 ISZERO PUSH2 0x11A JUMPI PUSH1 0x0 DUP1 REVERT JUMPDEST POP PUSH2 0x135 PUSH1 0x4 DUP1 CALLDATASIZE SUB DUP2 ADD SWAP1 PUSH2 0x130 SWAP2 SWAP1 PUSH2 0x7F1 JUMP JUMPDEST PUSH2 0x50E JUMP JUMPDEST PUSH1 0x40 MLOAD PUSH2 0x142 SWAP2 SWAP1 PUSH2 0x7AA JUMP JUMPDEST PUSH1 0x40 MLOAD DUP1 SWAP2 SUB SWAP1 RETURN JUMPDEST PUSH1 0x0 SLOAD DUP2 JUMP JUMPDEST PUSH32 0x0 PUSH20 0xFFFFFFFFFFFFFFFFFFFFFFFFFFFFFFFFFFFFFFFF AND CALLER PUSH20 0xFFFFFFFFFFFFFFFFFFFFFFFFFFFFFFFFFFFFFFFF AND EQ PUSH2 0x1D6 JUMPI PUSH1 0x40 MLOAD PUSH32 0x30CD747100000000000000000000000000000000000000000000000000000000 DUP2 MSTORE PUSH1 0x4 ADD PUSH1 0x40 MLOAD DUP1 SWAP2 SUB SWAP1 REVERT JUMPDEST PUSH1 0x0 JUMPDEST PUSH1 0x1 DUP1 SLOAD SWAP1 POP DUP2 LT ISZERO PUSH2 0x282 JUMPI PUSH1 0x0 PUSH1 0x1 DUP3 DUP2 SLOAD DUP2 LT PUSH2 0x1FC JUMPI PUSH2 0x1FB PUSH2 0x81E JUMP JUMPDEST JUMPDEST SWAP1 PUSH1 0x0 MSTORE PUSH1 0x20 PUSH1 0x0 KECCAK256 ADD PUSH1 0x0 SWAP1 SLOAD SWAP1 PUSH2 0x100 EXP SWAP1 DIV PUSH20 0xFFFFFFFFFFFFFFFFFFFFFFFFFFFFFFFFFFFFFFFF AND SWAP1 POP PUSH1 0x0 PUSH1 0x2 PUSH1 0x0 DUP4 PUSH20 0xFFFFFFFFFFFFFFFFFFFFFFFFFFFFFFFFFFFFFFFF AND PUSH20 0xFFFFFFFFFFFFFFFFFFFFFFFFFFFFFFFFFFFFFFFF AND DUP2 MSTORE PUSH1 0x20 ADD SWAP1 DUP2 MSTORE PUSH1 0x20 ADD PUSH1 0x0 KECCAK256 DUP2 SWAP1 SSTORE POP POP DUP1 DUP1 PUSH2 0x27A SWAP1 PUSH2 0x87C JUMP JUMPDEST SWAP2 POP POP PUSH2 0x1D9 JUMP JUMPDEST POP PUSH1 0x0 PUSH8 0xFFFFFFFFFFFFFFFF DUP2 GT ISZERO PUSH2 0x29E JUMPI PUSH2 0x29D PUSH2 0x8C4 JUMP JUMPDEST JUMPDEST PUSH1 0x40 MLOAD SWAP1 DUP1 DUP3 MSTORE DUP1 PUSH1 0x20 MUL PUSH1 0x20 ADD DUP3 ADD PUSH1 0x40 MSTORE DUP1 ISZERO PUSH2 0x2CC JUMPI DUP2 PUSH1 0x20 ADD PUSH1 0x20 DUP3 MUL DUP1 CALLDATASIZE DUP4 CALLDATACOPY DUP1 DUP3 ADD SWAP2 POP POP SWAP1 POP JUMPDEST POP PUSH1 0x1 SWAP1 DUP1 MLOAD SWAP1 PUSH1 0x20 ADD SWAP1 PUSH2 0x2E2 SWAP3 SWAP2 SWAP1 PUSH2 0x630 JUMP JUMPDEST POP PUSH1 0x0 CALLER PUSH20 0xFFFFFFFFFFFFFFFFFFFFFFFFFFFFFFFFFFFFFFFF AND SELFBALANCE PUSH1 0x40 MLOAD PUSH2 0x309 SWAP1 PUSH2 0x924 JUMP JUMPDEST PUSH1 0x0 PUSH1 0x40 MLOAD DUP1 DUP4 SUB DUP2 DUP6 DUP8 GAS CALL SWAP3 POP POP POP RETURNDATASIZE DUP1 PUSH1 0x0 DUP2 EQ PUSH2 0x346 JUMPI PUSH1 0x40 MLOAD SWAP2 POP PUSH1 0x1F NOT PUSH1 0x3F RETURNDATASIZE ADD AND DUP3 ADD PUSH1 0x40 MSTORE RETURNDATASIZE DUP3 MSTORE RETURNDATASIZE PUSH1 0x0 PUSH1 0x20 DUP5 ADD RETURNDATACOPY PUSH2 0x34B JUMP JUMPDEST PUSH1 0x60 SWAP2 POP JUMPDEST POP POP SWAP1 POP DUP1 PUSH2 0x38F JUMPI PUSH1 0x40 MLOAD PUSH32 0x8C379A000000000000000000000000000000000000000000000000000000000 DUP2 MSTORE PUSH1 0x4 ADD PUSH2 0x386 SWAP1 PUSH2 0x996 JUMP JUMPDEST PUSH1 0x40 MLOAD DUP1 SWAP2 SUB SWAP1 REVERT JUMPDEST POP JUMP JUMPDEST PUSH1 0x2 PUSH1 0x20 MSTORE DUP1 PUSH1 0x0 MSTORE PUSH1 0x40 PUSH1 0x0 KECCAK256 PUSH1 0x0 SWAP2 POP SWAP1 POP SLOAD DUP2 JUMP JUMPDEST PUSH1 0x0 SLOAD PUSH2 0x3B6 CALLVALUE PUSH2 0x54D JUMP JUMPDEST LT ISZERO PUSH2 0x3F7 JUMPI PUSH1 0x40 MLOAD PUSH32 0x8C379A000000000000000000000000000000000000000000000000000000000 DUP2 MSTORE PUSH1 0x4 ADD PUSH2 0x3EE SWAP1 PUSH2 0xA02 JUMP JUMPDEST PUSH1 0x40 MLOAD DUP1 SWAP2 SUB SWAP1 REVERT JUMPDEST PUSH1 0x1 CALLER SWAP1 DUP1 PUSH1 0x1 DUP2 SLOAD ADD DUP1 DUP3 SSTORE DUP1 SWAP2 POP POP PUSH1 0x1 SWAP1 SUB SWAP1 PUSH1 0x0 MSTORE PUSH1 0x20 PUSH1 0x0 KECCAK256 ADD PUSH1 0x0 SWAP1 SWAP2 SWAP1 SWAP2 SWAP1 SWAP2 PUSH2 0x100 EXP DUP2 SLOAD DUP2 PUSH20 0xFFFFFFFFFFFFFFFFFFFFFFFFFFFFFFFFFFFFFFFF MUL NOT AND SWAP1 DUP4 PUSH20 0xFFFFFFFFFFFFFFFFFFFFFFFFFFFFFFFFFFFFFFFF AND MUL OR SWAP1 SSTORE POP CALLVALUE PUSH1 0x2 PUSH1 0x0 CALLER PUSH20 0xFFFFFFFFFFFFFFFFFFFFFFFFFFFFFFFFFFFFFFFF AND PUSH20 0xFFFFFFFFFFFFFFFFFFFFFFFFFFFFFFFFFFFFFFFF AND DUP2 MSTORE PUSH1 0x20 ADD SWAP1 DUP2 MSTORE PUSH1 0x20 ADD PUSH1 0x0 KECCAK256 SLOAD PUSH2 0x4A5 SWAP2 SWAP1 PUSH2 0xA22 JUMP JUMPDEST PUSH1 0x2 PUSH1 0x0 CALLER PUSH20 0xFFFFFFFFFFFFFFFFFFFFFFFFFFFFFFFFFFFFFFFF AND PUSH20 0xFFFFFFFFFFFFFFFFFFFFFFFFFFFFFFFFFFFFFFFF AND DUP2 MSTORE PUSH1 0x20 ADD SWAP1 DUP2 MSTORE PUSH1 0x20 ADD PUSH1 0x0 KECCAK256 DUP2 SWAP1 SSTORE POP JUMP JUMPDEST PUSH32 0x0 DUP2 JUMP JUMPDEST PUSH1 0x1 DUP2 DUP2 SLOAD DUP2 LT PUSH2 0x51E JUMPI PUSH1 0x0 DUP1 REVERT JUMPDEST SWAP1 PUSH1 0x0 MSTORE PUSH1 0x20 PUSH1 0x0 KECCAK256 ADD PUSH1 0x0 SWAP2 POP SLOAD SWAP1 PUSH2 0x100 EXP SWAP1 DIV PUSH20 0xFFFFFFFFFFFFFFFFFFFFFFFFFFFFFFFFFFFFFFFF AND DUP2 JUMP JUMPDEST PUSH1 0x0 DUP1 PUSH2 0x558 PUSH2 0x587 JUMP JUMPDEST SWAP1 POP PUSH1 0x0 PUSH8 0xDE0B6B3A7640000 DUP5 DUP4 PUSH2 0x571 SWAP2 SWAP1 PUSH2 0xA56 JUMP JUMPDEST PUSH2 0x57B SWAP2 SWAP1 PUSH2 0xAC7 JUMP JUMPDEST SWAP1 POP DUP1 SWAP3 POP POP POP SWAP2 SWAP1 POP JUMP JUMPDEST PUSH1 0x0 DUP1 PUSH20 0x694AA1769357215DE4FAC081BF1F309ADC325306 SWAP1 POP PUSH1 0x0 DUP2 PUSH20 0xFFFFFFFFFFFFFFFFFFFFFFFFFFFFFFFFFFFFFFFF AND PUSH4 0xFEAF968C PUSH1 0x40 MLOAD DUP2 PUSH4 0xFFFFFFFF AND PUSH1 0xE0 SHL DUP2 MSTORE PUSH1 0x4 ADD PUSH1 0xA0 PUSH1 0x40 MLOAD DUP1 DUP4 SUB DUP2 DUP7 GAS STATICCALL ISZERO DUP1 ISZERO PUSH2 0x5EE JUMPI RETURNDATASIZE PUSH1 0x0 DUP1 RETURNDATACOPY RETURNDATASIZE PUSH1 0x0 REVERT JUMPDEST POP POP POP POP PUSH1 0x40 MLOAD RETURNDATASIZE PUSH1 0x1F NOT PUSH1 0x1F DUP3 ADD AND DUP3 ADD DUP1 PUSH1 0x40 MSTORE POP DUP2 ADD SWAP1 PUSH2 0x612 SWAP2 SWAP1 PUSH2 0xB85 JUMP JUMPDEST POP POP POP SWAP2 POP POP PUSH5 0x2540BE400 DUP2 PUSH2 0x629 SWAP2 SWAP1 PUSH2 0xC00 JUMP JUMPDEST SWAP3 POP POP POP SWAP1 JUMP JUMPDEST DUP3 DUP1 SLOAD DUP3 DUP3 SSTORE SWAP1 PUSH1 0x0 MSTORE PUSH1 0x20 PUSH1 0x0 KECCAK256 SWAP1 DUP2 ADD SWAP3 DUP3 ISZERO PUSH2 0x6A9 JUMPI SWAP2 PUSH1 0x20 MUL DUP3 ADD JUMPDEST DUP3 DUP2 GT ISZERO PUSH2 0x6A8 JUMPI DUP3 MLOAD DUP3 PUSH1 0x0 PUSH2 0x100 EXP DUP2 SLOAD DUP2 PUSH20 0xFFFFFFFFFFFFFFFFFFFFFFFFFFFFFFFFFFFFFFFF MUL NOT AND SWAP1 DUP4 PUSH20 0xFFFFFFFFFFFFFFFFFFFFFFFFFFFFFFFFFFFFFFFF AND MUL OR SWAP1 SSTORE POP SWAP2 PUSH1 0x20 ADD SWAP2 SWAP1 PUSH1 0x1 ADD SWAP1 PUSH2 0x650 JUMP JUMPDEST JUMPDEST POP SWAP1 POP PUSH2 0x6B6 SWAP2 SWAP1 PUSH2 0x6BA JUMP JUMPDEST POP SWAP1 JUMP JUMPDEST JUMPDEST DUP1 DUP3 GT ISZERO PUSH2 0x6D3 JUMPI PUSH1 0x0 DUP2 PUSH1 0x0 SWAP1 SSTORE POP PUSH1 0x1 ADD PUSH2 0x6BB JUMP JUMPDEST POP SWAP1 JUMP JUMPDEST PUSH1 0x0 DUP2 SWAP1 POP SWAP2 SWAP1 POP JUMP JUMPDEST PUSH2 0x6EA DUP2 PUSH2 0x6D7 JUMP JUMPDEST DUP3 MSTORE POP POP JUMP JUMPDEST PUSH1 0x0 PUSH1 0x20 DUP3 ADD SWAP1 POP PUSH2 0x705 PUSH1 0x0 DUP4 ADD DUP5 PUSH2 0x6E1 JUMP JUMPDEST SWAP3 SWAP2 POP POP JUMP JUMPDEST PUSH1 0x0 DUP1 REVERT JUMPDEST PUSH1 0x0 PUSH20 0xFFFFFFFFFFFFFFFFFFFFFFFFFFFFFFFFFFFFFFFF DUP3 AND SWAP1 POP SWAP2 SWAP1 POP JUMP JUMPDEST PUSH1 0x0 PUSH2 0x73B DUP3 PUSH2 0x710 JUMP JUMPDEST SWAP1 POP SWAP2 SWAP1 POP JUMP JUMPDEST PUSH2 0x74B DUP2 PUSH2 0x730 JUMP JUMPDEST DUP2 EQ PUSH2 0x756 JUMPI PUSH1 0x0 DUP1 REVERT JUMPDEST POP JUMP JUMPDEST PUSH1 0x0 DUP2 CALLDATALOAD SWAP1 POP PUSH2 0x768 DUP2 PUSH2 0x742 JUMP JUMPDEST SWAP3 SWAP2 POP POP JUMP JUMPDEST PUSH1 0x0 PUSH1 0x20 DUP3 DUP5 SUB SLT ISZERO PUSH2 0x784 JUMPI PUSH2 0x783 PUSH2 0x70B JUMP JUMPDEST JUMPDEST PUSH1 0x0 PUSH2 0x792 DUP5 DUP3 DUP6 ADD PUSH2 0x759 JUMP JUMPDEST SWAP2 POP POP SWAP3 SWAP2 POP POP JUMP JUMPDEST PUSH2 0x7A4 DUP2 PUSH2 0x730 JUMP JUMPDEST DUP3 MSTORE POP POP JUMP JUMPDEST PUSH1 0x0 PUSH1 0x20 DUP3 ADD SWAP1 POP PUSH2 0x7BF PUSH1 0x0 DUP4 ADD DUP5 PUSH2 0x79B JUMP JUMPDEST SWAP3 SWAP2 POP POP JUMP JUMPDEST PUSH2 0x7CE DUP2 PUSH2 0x6D7 JUMP JUMPDEST DUP2 EQ PUSH2 0x7D9 JUMPI PUSH1 0x0 DUP1 REVERT JUMPDEST POP JUMP JUMPDEST PUSH1 0x0 DUP2 CALLDATALOAD SWAP1 POP PUSH2 0x7EB DUP2 PUSH2 0x7C5 JUMP JUMPDEST SWAP3 SWAP2 POP POP JUMP JUMPDEST PUSH1 0x0 PUSH1 0x20 DUP3 DUP5 SUB SLT ISZERO PUSH2 0x807 JUMPI PUSH2 0x806 PUSH2 0x70B JUMP JUMPDEST JUMPDEST PUSH1 0x0 PUSH2 0x815 DUP5 DUP3 DUP6 ADD PUSH2 0x7DC JUMP JUMPDEST SWAP2 POP POP SWAP3 SWAP2 POP POP JUMP JUMPDEST PUSH32 0x4E487B7100000000000000000000000000000000000000000000000000000000 PUSH1 0x0 MSTORE PUSH1 0x32 PUSH1 0x4 MSTORE PUSH1 0x24 PUSH1 0x0 REVERT JUMPDEST PUSH32 0x4E487B7100000000000000000000000000000000000000000000000000000000 PUSH1 0x0 MSTORE PUSH1 0x11 PUSH1 0x4 MSTORE PUSH1 0x24 PUSH1 0x0 REVERT JUMPDEST PUSH1 0x0 PUSH2 0x887 DUP3 PUSH2 0x6D7 JUMP JUMPDEST SWAP2 POP PUSH32 0xFFFFFFFFFFFFFFFFFFFFFFFFFFFFFFFFFFFFFFFFFFFFFFFFFFFFFFFFFFFFFFFF DUP3 SUB PUSH2 0x8B9 JUMPI PUSH2 0x8B8 PUSH2 0x84D JUMP JUMPDEST JUMPDEST PUSH1 0x1 DUP3 ADD SWAP1 POP SWAP2 SWAP1 POP JUMP JUMPDEST PUSH32 0x4E487B7100000000000000000000000000000000000000000000000000000000 PUSH1 0x0 MSTORE PUSH1 0x41 PUSH1 0x4 MSTORE PUSH1 0x24 PUSH1 0x0 REVERT JUMPDEST PUSH1 0x0 DUP2 SWAP1 POP SWAP3 SWAP2 POP POP JUMP JUMPDEST POP JUMP JUMPDEST PUSH1 0x0 PUSH2 0x90E PUSH1 0x0 DUP4 PUSH2 0x8F3 JUMP JUMPDEST SWAP2 POP PUSH2 0x919 DUP3 PUSH2 0x8FE JUMP JUMPDEST PUSH1 0x0 DUP3 ADD SWAP1 POP SWAP2 SWAP1 POP JUMP JUMPDEST PUSH1 0x0 PUSH2 0x92F DUP3 PUSH2 0x901 JUMP JUMPDEST SWAP2 POP DUP2 SWAP1 POP SWAP2 SWAP1 POP JUMP JUMPDEST PUSH1 0x0 DUP3 DUP3 MSTORE PUSH1 0x20 DUP3 ADD SWAP1 POP SWAP3 SWAP2 POP POP JUMP JUMPDEST PUSH32 0x43616C6C206661696C6564000000000000000000000000000000000000000000 PUSH1 0x0 DUP3 ADD MSTORE POP JUMP JUMPDEST PUSH1 0x0 PUSH2 0x980 PUSH1 0xB DUP4 PUSH2 0x939 JUMP JUMPDEST SWAP2 POP PUSH2 0x98B DUP3 PUSH2 0x94A JUMP JUMPDEST PUSH1 0x20 DUP3 ADD SWAP1 POP SWAP2 SWAP1 POP JUMP JUMPDEST PUSH1 0x0 PUSH1 0x20 DUP3 ADD SWAP1 POP DUP2 DUP2 SUB PUSH1 0x0 DUP4 ADD MSTORE PUSH2 0x9AF DUP2 PUSH2 0x973 JUMP JUMPDEST SWAP1 POP SWAP2 SWAP1 POP JUMP JUMPDEST PUSH32 0x4469646E27742073656E6420656E6F6768742045544800000000000000000000 PUSH1 0x0 DUP3 ADD MSTORE POP JUMP JUMPDEST PUSH1 0x0 PUSH2 0x9EC PUSH1 0x16 DUP4 PUSH2 0x939 JUMP JUMPDEST SWAP2 POP PUSH2 0x9F7 DUP3 PUSH2 0x9B6 JUMP JUMPDEST PUSH1 0x20 DUP3 ADD SWAP1 POP SWAP2 SWAP1 POP JUMP JUMPDEST PUSH1 0x0 PUSH1 0x20 DUP3 ADD SWAP1 POP DUP2 DUP2 SUB PUSH1 0x0 DUP4 ADD MSTORE PUSH2 0xA1B DUP2 PUSH2 0x9DF JUMP JUMPDEST SWAP1 POP SWAP2 SWAP1 POP JUMP JUMPDEST PUSH1 0x0 PUSH2 0xA2D DUP3 PUSH2 0x6D7 JUMP JUMPDEST SWAP2 POP PUSH2 0xA38 DUP4 PUSH2 0x6D7 JUMP JUMPDEST SWAP3 POP DUP3 DUP3 ADD SWAP1 POP DUP1 DUP3 GT ISZERO PUSH2 0xA50 JUMPI PUSH2 0xA4F PUSH2 0x84D JUMP JUMPDEST JUMPDEST SWAP3 SWAP2 POP POP JUMP JUMPDEST PUSH1 0x0 PUSH2 0xA61 DUP3 PUSH2 0x6D7 JUMP JUMPDEST SWAP2 POP PUSH2 0xA6C DUP4 PUSH2 0x6D7 JUMP JUMPDEST SWAP3 POP DUP3 DUP3 MUL PUSH2 0xA7A DUP2 PUSH2 0x6D7 JUMP JUMPDEST SWAP2 POP DUP3 DUP3 DIV DUP5 EQ DUP4 ISZERO OR PUSH2 0xA91 JUMPI PUSH2 0xA90 PUSH2 0x84D JUMP JUMPDEST JUMPDEST POP SWAP3 SWAP2 POP POP JUMP JUMPDEST PUSH32 0x4E487B7100000000000000000000000000000000000000000000000000000000 PUSH1 0x0 MSTORE PUSH1 0x12 PUSH1 0x4 MSTORE PUSH1 0x24 PUSH1 0x0 REVERT JUMPDEST PUSH1 0x0 PUSH2 0xAD2 DUP3 PUSH2 0x6D7 JUMP JUMPDEST SWAP2 POP PUSH2 0xADD DUP4 PUSH2 0x6D7 JUMP JUMPDEST SWAP3 POP DUP3 PUSH2 0xAED JUMPI PUSH2 0xAEC PUSH2 0xA98 JUMP JUMPDEST JUMPDEST DUP3 DUP3 DIV SWAP1 POP SWAP3 SWAP2 POP POP JUMP JUMPDEST PUSH1 0x0 PUSH10 0xFFFFFFFFFFFFFFFFFFFF DUP3 AND SWAP1 POP SWAP2 SWAP1 POP JUMP JUMPDEST PUSH2 0xB17 DUP2 PUSH2 0xAF8 JUMP JUMPDEST DUP2 EQ PUSH2 0xB22 JUMPI PUSH1 0x0 DUP1 REVERT JUMPDEST POP JUMP JUMPDEST PUSH1 0x0 DUP2 MLOAD SWAP1 POP PUSH2 0xB34 DUP2 PUSH2 0xB0E JUMP JUMPDEST SWAP3 SWAP2 POP POP JUMP JUMPDEST PUSH1 0x0 DUP2 SWAP1 POP SWAP2 SWAP1 POP JUMP JUMPDEST PUSH2 0xB4D DUP2 PUSH2 0xB3A JUMP JUMPDEST DUP2 EQ PUSH2 0xB58 JUMPI PUSH1 0x0 DUP1 REVERT JUMPDEST POP JUMP JUMPDEST PUSH1 0x0 DUP2 MLOAD SWAP1 POP PUSH2 0xB6A DUP2 PUSH2 0xB44 JUMP JUMPDEST SWAP3 SWAP2 POP POP JUMP JUMPDEST PUSH1 0x0 DUP2 MLOAD SWAP1 POP PUSH2 0xB7F DUP2 PUSH2 0x7C5 JUMP JUMPDEST SWAP3 SWAP2 POP POP JUMP JUMPDEST PUSH1 0x0 DUP1 PUSH1 0x0 DUP1 PUSH1 0x0 PUSH1 0xA0 DUP7 DUP9 SUB SLT ISZERO PUSH2 0xBA1 JUMPI PUSH2 0xBA0 PUSH2 0x70B JUMP JUMPDEST JUMPDEST PUSH1 0x0 PUSH2 0xBAF DUP9 DUP3 DUP10 ADD PUSH2 0xB25 JUMP JUMPDEST SWAP6 POP POP PUSH1 0x20 PUSH2 0xBC0 DUP9 DUP3 DUP10 ADD PUSH2 0xB5B JUMP JUMPDEST SWAP5 POP POP PUSH1 0x40 PUSH2 0xBD1 DUP9 DUP3 DUP10 ADD PUSH2 0xB70 JUMP JUMPDEST SWAP4 POP POP PUSH1 0x60 PUSH2 0xBE2 DUP9 DUP3 DUP10 ADD PUSH2 0xB70 JUMP JUMPDEST SWAP3 POP POP PUSH1 0x80 PUSH2 0xBF3 DUP9 DUP3 DUP10 ADD PUSH2 0xB25 JUMP JUMPDEST SWAP2 POP POP SWAP3 SWAP6 POP SWAP3 SWAP6 SWAP1 SWAP4 POP JUMP JUMPDEST PUSH1 0x0 PUSH2 0xC0B DUP3 PUSH2 0xB3A JUMP JUMPDEST SWAP2 POP PUSH2 0xC16 DUP4 PUSH2 0xB3A JUMP JUMPDEST SWAP3 POP DUP3 DUP3 MUL PUSH2 0xC24 DUP2 PUSH2 0xB3A JUMP JUMPDEST SWAP2 POP PUSH32 0x8000000000000000000000000000000000000000000000000000000000000000 DUP5 EQ PUSH1 0x0 DUP5 SLT AND ISZERO PUSH2 0xC5C JUMPI PUSH2 0xC5B PUSH2 0x84D JUMP JUMPDEST JUMPDEST DUP3 DUP3 SDIV DUP5 EQ DUP4 ISZERO OR PUSH2 0xC71 JUMPI PUSH2 0xC70 PUSH2 0x84D JUMP JUMPDEST JUMPDEST POP SWAP3 SWAP2 POP POP JUMP INVALID LOG2 PUSH5 0x6970667358 0x22 SLT KECCAK256 0xDE PUSH21 0x36412E32286D0B6315549E5FD00EFC1C9B255A21BF SHL CALL EXTCODESIZE SWAP9 REVERT SLOAD CALLDATACOPY MULMOD 0xB6 PUSH5 0x736F6C6343 STOP ADDMOD SLT STOP CALLER "
		},
		"gasEstimates": {
			"creation": {
				"codeDepositCost": "649200",
				"executionCost": "infinite",
				"totalCost": "infinite"
			},
			"external": {
				"MIN_USD()": "2407",
				"addressToAmountFunded(address)": "2836",
				"fund()": "infinite",
				"funders(uint256)": "5044",
				"i_owner()": "infinite",
				"withdraw()": "infinite"
			}
		},
		"methodIdentifiers": {
			"MIN_USD()": "213dbea2",
			"addressToAmountFunded(address)": "3e47d6f3",
			"fund()": "b60d4288",
			"funders(uint256)": "dc0d3dff",
			"i_owner()": "dba6335f",
			"withdraw()": "3ccfd60b"
		}
	},
	"abi": [
		{
			"inputs": [],
			"stateMutability": "nonpayable",
			"type": "constructor"
		},
		{
			"inputs": [],
			"name": "NotOwner",
			"type": "error"
		},
		{
			"inputs": [],
			"name": "MIN_USD",
			"outputs": [
				{
					"internalType": "uint256",
					"name": "",
					"type": "uint256"
				}
			],
			"stateMutability": "view",
			"type": "function"
		},
		{
			"inputs": [
				{
					"internalType": "address",
					"name": "funder",
					"type": "address"
				}
			],
			"name": "addressToAmountFunded",
			"outputs": [
				{
					"internalType": "uint256",
					"name": "amountFunded",
					"type": "uint256"
				}
			],
			"stateMutability": "view",
			"type": "function"
		},
		{
			"inputs": [],
			"name": "fund",
			"outputs": [],
			"stateMutability": "payable",
			"type": "function"
		},
		{
			"inputs": [
				{
					"internalType": "uint256",
					"name": "",
					"type": "uint256"
				}
			],
			"name": "funders",
			"outputs": [
				{
					"internalType": "address",
					"name": "",
					"type": "address"
				}
			],
			"stateMutability": "view",
			"type": "function"
		},
		{
			"inputs": [],
			"name": "i_owner",
			"outputs": [
				{
					"internalType": "address",
					"name": "",
					"type": "address"
				}
			],
			"stateMutability": "view",
			"type": "function"
		},
		{
			"inputs": [],
			"name": "withdraw",
			"outputs": [],
			"stateMutability": "nonpayable",
			"type": "function"
		}
	]
}